{"abi":[{"type":"constructor","inputs":[{"name":"premiumAccess","type":"address","internalType":"address"}],"stateMutability":"nonpayable"},{"type":"function","name":"PREMIUM_ACCESS","inputs":[],"outputs":[{"name":"","type":"address","internalType":"contract IPremiumAccess"}],"stateMutability":"view"},{"type":"function","name":"fractionalizeVault","inputs":[{"name":"newValue","type":"uint256","internalType":"uint256"}],"outputs":[],"stateMutability":"nonpayable"},{"type":"function","name":"vaultValue","inputs":[],"outputs":[{"name":"","type":"uint256","internalType":"uint256"}],"stateMutability":"view"},{"type":"error","name":"PremiumRequired","inputs":[]}],"bytecode":{"object":"0x60a060405234801561000f575f5ffd5b5060405161049b38038061049b833981810160405281019061003191906100cb565b808073ffffffffffffffffffffffffffffffffffffffff1660808173ffffffffffffffffffffffffffffffffffffffff168152505050506100f6565b5f5ffd5b5f73ffffffffffffffffffffffffffffffffffffffff82169050919050565b5f61009a82610071565b9050919050565b6100aa81610090565b81146100b4575f5ffd5b50565b5f815190506100c5816100a1565b92915050565b5f602082840312156100e0576100df61006d565b5b5f6100ed848285016100b7565b91505092915050565b6080516103876101145f395f8181609d015261017901526103875ff3fe608060405234801561000f575f5ffd5b506004361061003f575f3560e01c80631e2f39e0146100435780638c21c9e11461005f5780639b3319de1461007d575b5f5ffd5b61005d600480360381019061005891906101d2565b61009b565b005b610067610172565b604051610074919061020c565b60405180910390f35b610085610177565b604051610092919061029f565b60405180910390f35b7f000000000000000000000000000000000000000000000000000000000000000073ffffffffffffffffffffffffffffffffffffffff16636283aa4e336040518263ffffffff1660e01b81526004016100f491906102d8565b602060405180830381865afa15801561010f573d5f5f3e3d5ffd5b505050506040513d601f19601f820116820180604052508101906101339190610326565b610169576040517f7e1e0e5b00000000000000000000000000000000000000000000000000000000815260040160405180910390fd5b805f8190555050565b5f5481565b7f000000000000000000000000000000000000000000000000000000000000000081565b5f5ffd5b5f819050919050565b6101b18161019f565b81146101bb575f5ffd5b50565b5f813590506101cc816101a8565b92915050565b5f602082840312156101e7576101e661019b565b5b5f6101f4848285016101be565b91505092915050565b6102068161019f565b82525050565b5f60208201905061021f5f8301846101fd565b92915050565b5f73ffffffffffffffffffffffffffffffffffffffff82169050919050565b5f819050919050565b5f61026761026261025d84610225565b610244565b610225565b9050919050565b5f6102788261024d565b9050919050565b5f6102898261026e565b9050919050565b6102998161027f565b82525050565b5f6020820190506102b25f830184610290565b92915050565b5f6102c282610225565b9050919050565b6102d2816102b8565b82525050565b5f6020820190506102eb5f8301846102c9565b92915050565b5f8115159050919050565b610305816102f1565b811461030f575f5ffd5b50565b5f81519050610320816102fc565b92915050565b5f6020828403121561033b5761033a61019b565b5b5f61034884828501610312565b9150509291505056fea2646970667358221220a5deb012f0bf197c697af19db8e34d2f3de76f1f89b3c0be658417878b5ab62064736f6c63430008210033","linkReferences":{}},"methodIdentifiers":{"PREMIUM_ACCESS()":"9b3319de","fractionalizeVault(uint256)":"1e2f39e0","vaultValue()":"8c21c9e1"},"id":47}