{
  "_format": "hh-sol-artifact-1",
  "contractName": "Facinations",
  "sourceName": "contracts/Facinations.sol",
  "abi": [
    {
      "inputs": [
        {
          "internalType": "string",
          "name": "name_",
          "type": "string"
        },
        {
          "internalType": "string",
          "name": "symbol_",
          "type": "string"
        },
        {
          "internalType": "address",
          "name": "initialOwner",
          "type": "address"
        },
        {
          "internalType": "address",
          "name": "royaltyReceiver",
          "type": "address"
        },
        {
          "internalType": "uint96",
          "name": "royaltyFee",
          "type": "uint96"
        }
      ],
      "stateMutability": "nonpayable",
      "type": "constructor"
    },
    {
      "inputs": [
        {
          "internalType": "uint256",
          "name": "numerator",
          "type": "uint256"
        },
        {
          "internalType": "uint256",
          "name": "denominator",
          "type": "uint256"
        }
      ],
      "name": "ERC2981InvalidDefaultRoyalty",
      "type": "error"
    },
    {
      "inputs": [
        {
          "internalType": "address",
          "name": "receiver",
          "type": "address"
        }
      ],
      "name": "ERC2981InvalidDefaultRoyaltyReceiver",
      "type": "error"
    },
    {
      "inputs": [
        {
          "internalType": "uint256",
          "name": "tokenId",
          "type": "uint256"
        },
        {
          "internalType": "uint256",
          "name": "numerator",
          "type": "uint256"
        },
        {
          "internalType": "uint256",
          "name": "denominator",
          "type": "uint256"
        }
      ],
      "name": "ERC2981InvalidTokenRoyalty",
      "type": "error"
    },
    {
      "inputs": [
        {
          "internalType": "uint256",
          "name": "tokenId",
          "type": "uint256"
        },
        {
          "internalType": "address",
          "name": "receiver",
          "type": "address"
        }
      ],
      "name": "ERC2981InvalidTokenRoyaltyReceiver",
      "type": "error"
    },
    {
      "inputs": [
        {
          "internalType": "address",
          "name": "sender",
          "type": "address"
        },
        {
          "internalType": "uint256",
          "name": "tokenId",
          "type": "uint256"
        },
        {
          "internalType": "address",
          "name": "owner",
          "type": "address"
        }
      ],
      "name": "ERC721IncorrectOwner",
      "type": "error"
    },
    {
      "inputs": [
        {
          "internalType": "address",
          "name": "operator",
          "type": "address"
        },
        {
          "internalType": "uint256",
          "name": "tokenId",
          "type": "uint256"
        }
      ],
      "name": "ERC721InsufficientApproval",
      "type": "error"
    },
    {
      "inputs": [
        {
          "internalType": "address",
          "name": "approver",
          "type": "address"
        }
      ],
      "name": "ERC721InvalidApprover",
      "type": "error"
    },
    {
      "inputs": [
        {
          "internalType": "address",
          "name": "operator",
          "type": "address"
        }
      ],
      "name": "ERC721InvalidOperator",
      "type": "error"
    },
    {
      "inputs": [
        {
          "internalType": "address",
          "name": "owner",
          "type": "address"
        }
      ],
      "name": "ERC721InvalidOwner",
      "type": "error"
    },
    {
      "inputs": [
        {
          "internalType": "address",
          "name": "receiver",
          "type": "address"
        }
      ],
      "name": "ERC721InvalidReceiver",
      "type": "error"
    },
    {
      "inputs": [
        {
          "internalType": "address",
          "name": "sender",
          "type": "address"
        }
      ],
      "name": "ERC721InvalidSender",
      "type": "error"
    },
    {
      "inputs": [
        {
          "internalType": "uint256",
          "name": "tokenId",
          "type": "uint256"
        }
      ],
      "name": "ERC721NonexistentToken",
      "type": "error"
    },
    {
      "inputs": [
        {
          "internalType": "address",
          "name": "owner",
          "type": "address"
        }
      ],
      "name": "OwnableInvalidOwner",
      "type": "error"
    },
    {
      "inputs": [
        {
          "internalType": "address",
          "name": "account",
          "type": "address"
        }
      ],
      "name": "OwnableUnauthorizedAccount",
      "type": "error"
    },
    {
      "anonymous": false,
      "inputs": [
        {
          "indexed": true,
          "internalType": "address",
          "name": "owner",
          "type": "address"
        },
        {
          "indexed": true,
          "internalType": "address",
          "name": "approved",
          "type": "address"
        },
        {
          "indexed": true,
          "internalType": "uint256",
          "name": "tokenId",
          "type": "uint256"
        }
      ],
      "name": "Approval",
      "type": "event"
    },
    {
      "anonymous": false,
      "inputs": [
        {
          "indexed": true,
          "internalType": "address",
          "name": "owner",
          "type": "address"
        },
        {
          "indexed": true,
          "internalType": "address",
          "name": "operator",
          "type": "address"
        },
        {
          "indexed": false,
          "internalType": "bool",
          "name": "approved",
          "type": "bool"
        }
      ],
      "name": "ApprovalForAll",
      "type": "event"
    },
    {
      "anonymous": false,
      "inputs": [
        {
          "indexed": false,
          "internalType": "uint256",
          "name": "_fromTokenId",
          "type": "uint256"
        },
        {
          "indexed": false,
          "internalType": "uint256",
          "name": "_toTokenId",
          "type": "uint256"
        }
      ],
      "name": "BatchMetadataUpdate",
      "type": "event"
    },
    {
      "anonymous": false,
      "inputs": [
        {
          "indexed": false,
          "internalType": "uint256",
          "name": "_tokenId",
          "type": "uint256"
        }
      ],
      "name": "MetadataUpdate",
      "type": "event"
    },
    {
      "anonymous": false,
      "inputs": [
        {
          "indexed": true,
          "internalType": "address",
          "name": "previousOwner",
          "type": "address"
        },
        {
          "indexed": true,
          "internalType": "address",
          "name": "newOwner",
          "type": "address"
        }
      ],
      "name": "OwnershipTransferred",
      "type": "event"
    },
    {
      "anonymous": false,
      "inputs": [
        {
          "indexed": true,
          "internalType": "address",
          "name": "from",
          "type": "address"
        },
        {
          "indexed": true,
          "internalType": "address",
          "name": "to",
          "type": "address"
        },
        {
          "indexed": true,
          "internalType": "uint256",
          "name": "tokenId",
          "type": "uint256"
        }
      ],
      "name": "Transfer",
      "type": "event"
    },
    {
      "inputs": [
        {
          "internalType": "address",
          "name": "to",
          "type": "address"
        },
        {
          "internalType": "uint256",
          "name": "tokenId",
          "type": "uint256"
        }
      ],
      "name": "approve",
      "outputs": [],
      "stateMutability": "nonpayable",
      "type": "function"
    },
    {
      "inputs": [
        {
          "internalType": "address",
          "name": "owner",
          "type": "address"
        }
      ],
      "name": "balanceOf",
      "outputs": [
        {
          "internalType": "uint256",
          "name": "",
          "type": "uint256"
        }
      ],
      "stateMutability": "view",
      "type": "function"
    },
    {
      "inputs": [
        {
          "internalType": "uint256",
          "name": "tokenId",
          "type": "uint256"
        }
      ],
      "name": "getApproved",
      "outputs": [
        {
          "internalType": "address",
          "name": "",
          "type": "address"
        }
      ],
      "stateMutability": "view",
      "type": "function"
    },
    {
      "inputs": [
        {
          "internalType": "address",
          "name": "owner",
          "type": "address"
        },
        {
          "internalType": "address",
          "name": "operator",
          "type": "address"
        }
      ],
      "name": "isApprovedForAll",
      "outputs": [
        {
          "internalType": "bool",
          "name": "",
          "type": "bool"
        }
      ],
      "stateMutability": "view",
      "type": "function"
    },
    {
      "inputs": [
        {
          "internalType": "address",
          "name": "to",
          "type": "address"
        },
        {
          "internalType": "string",
          "name": "uri",
          "type": "string"
        }
      ],
      "name": "mint",
      "outputs": [],
      "stateMutability": "nonpayable",
      "type": "function"
    },
    {
      "inputs": [],
      "name": "name",
      "outputs": [
        {
          "internalType": "string",
          "name": "",
          "type": "string"
        }
      ],
      "stateMutability": "view",
      "type": "function"
    },
    {
      "inputs": [],
      "name": "owner",
      "outputs": [
        {
          "internalType": "address",
          "name": "",
          "type": "address"
        }
      ],
      "stateMutability": "view",
      "type": "function"
    },
    {
      "inputs": [
        {
          "internalType": "uint256",
          "name": "tokenId",
          "type": "uint256"
        }
      ],
      "name": "ownerOf",
      "outputs": [
        {
          "internalType": "address",
          "name": "",
          "type": "address"
        }
      ],
      "stateMutability": "view",
      "type": "function"
    },
    {
      "inputs": [],
      "name": "renounceOwnership",
      "outputs": [],
      "stateMutability": "nonpayable",
      "type": "function"
    },
    {
      "inputs": [
        {
          "internalType": "uint256",
          "name": "tokenId",
          "type": "uint256"
        },
        {
          "internalType": "uint256",
          "name": "salePrice",
          "type": "uint256"
        }
      ],
      "name": "royaltyInfo",
      "outputs": [
        {
          "internalType": "address",
          "name": "receiver",
          "type": "address"
        },
        {
          "internalType": "uint256",
          "name": "amount",
          "type": "uint256"
        }
      ],
      "stateMutability": "view",
      "type": "function"
    },
    {
      "inputs": [
        {
          "internalType": "address",
          "name": "from",
          "type": "address"
        },
        {
          "internalType": "address",
          "name": "to",
          "type": "address"
        },
        {
          "internalType": "uint256",
          "name": "tokenId",
          "type": "uint256"
        }
      ],
      "name": "safeTransferFrom",
      "outputs": [],
      "stateMutability": "nonpayable",
      "type": "function"
    },
    {
      "inputs": [
        {
          "internalType": "address",
          "name": "from",
          "type": "address"
        },
        {
          "internalType": "address",
          "name": "to",
          "type": "address"
        },
        {
          "internalType": "uint256",
          "name": "tokenId",
          "type": "uint256"
        },
        {
          "internalType": "bytes",
          "name": "data",
          "type": "bytes"
        }
      ],
      "name": "safeTransferFrom",
      "outputs": [],
      "stateMutability": "nonpayable",
      "type": "function"
    },
    {
      "inputs": [
        {
          "internalType": "address",
          "name": "operator",
          "type": "address"
        },
        {
          "internalType": "bool",
          "name": "approved",
          "type": "bool"
        }
      ],
      "name": "setApprovalForAll",
      "outputs": [],
      "stateMutability": "nonpayable",
      "type": "function"
    },
    {
      "inputs": [
        {
          "internalType": "bytes4",
          "name": "interfaceId",
          "type": "bytes4"
        }
      ],
      "name": "supportsInterface",
      "outputs": [
        {
          "internalType": "bool",
          "name": "",
          "type": "bool"
        }
      ],
      "stateMutability": "view",
      "type": "function"
    },
    {
      "inputs": [],
      "name": "symbol",
      "outputs": [
        {
          "internalType": "string",
          "name": "",
          "type": "string"
        }
      ],
      "stateMutability": "view",
      "type": "function"
    },
    {
      "inputs": [
        {
          "internalType": "uint256",
          "name": "tokenId",
          "type": "uint256"
        }
      ],
      "name": "tokenURI",
      "outputs": [
        {
          "internalType": "string",
          "name": "",
          "type": "string"
        }
      ],
      "stateMutability": "view",
      "type": "function"
    },
    {
      "inputs": [
        {
          "internalType": "address",
          "name": "from",
          "type": "address"
        },
        {
          "internalType": "address",
          "name": "to",
          "type": "address"
        },
        {
          "internalType": "uint256",
          "name": "tokenId",
          "type": "uint256"
        }
      ],
      "name": "transferFrom",
      "outputs": [],
      "stateMutability": "nonpayable",
      "type": "function"
    },
    {
      "inputs": [
        {
          "internalType": "address",
          "name": "newOwner",
          "type": "address"
        }
      ],
      "name": "transferOwnership",
      "outputs": [],
      "stateMutability": "nonpayable",
      "type": "function"
    }
  ],
  "bytecode": "0x60806040523480156200001157600080fd5b5060405162003397380380620033978339818101604052810190620000379190620005cd565b82858581600090816200004b9190620008de565b5080600190816200005d9190620008de565b505050600073ffffffffffffffffffffffffffffffffffffffff168173ffffffffffffffffffffffffffffffffffffffff1603620000d55760006040517f1e4fbdf7000000000000000000000000000000000000000000000000000000008152600401620000cc9190620009d6565b60405180910390fd5b620000e6816200010c60201b60201c565b50620000f98282620001d260201b60201c565b6000600a81905550505050505062000a6a565b6000600960009054906101000a900473ffffffffffffffffffffffffffffffffffffffff16905081600960006101000a81548173ffffffffffffffffffffffffffffffffffffffff021916908373ffffffffffffffffffffffffffffffffffffffff1602179055508173ffffffffffffffffffffffffffffffffffffffff168173ffffffffffffffffffffffffffffffffffffffff167f8be0079c531659141344cd1fd0a4f28419497f9722a3daafe3b4186f6b6457e060405160405180910390a35050565b6000620001e46200038260201b60201c565b6bffffffffffffffffffffffff16905080826bffffffffffffffffffffffff1611156200024c5781816040517f6f483d090000000000000000000000000000000000000000000000000000000081526004016200024392919062000a3d565b60405180910390fd5b600073ffffffffffffffffffffffffffffffffffffffff168373ffffffffffffffffffffffffffffffffffffffff1603620002c15760006040517fb6d9900a000000000000000000000000000000000000000000000000000000008152600401620002b89190620009d6565b60405180910390fd5b60405180604001604052808473ffffffffffffffffffffffffffffffffffffffff168152602001836bffffffffffffffffffffffff16815250600760008201518160000160006101000a81548173ffffffffffffffffffffffffffffffffffffffff021916908373ffffffffffffffffffffffffffffffffffffffff16021790555060208201518160000160146101000a8154816bffffffffffffffffffffffff02191690836bffffffffffffffffffffffff160217905550905050505050565b6000612710905090565b6000604051905090565b600080fd5b600080fd5b600080fd5b600080fd5b6000601f19601f8301169050919050565b7f4e487b7100000000000000000000000000000000000000000000000000000000600052604160045260246000fd5b620003f582620003aa565b810181811067ffffffffffffffff82111715620004175762000416620003bb565b5b80604052505050565b60006200042c6200038c565b90506200043a8282620003ea565b919050565b600067ffffffffffffffff8211156200045d576200045c620003bb565b5b6200046882620003aa565b9050602081019050919050565b60005b838110156200049557808201518184015260208101905062000478565b60008484015250505050565b6000620004b8620004b2846200043f565b62000420565b905082815260208101848484011115620004d757620004d6620003a5565b5b620004e484828562000475565b509392505050565b600082601f830112620005045762000503620003a0565b5b815162000516848260208601620004a1565b91505092915050565b600073ffffffffffffffffffffffffffffffffffffffff82169050919050565b60006200054c826200051f565b9050919050565b6200055e816200053f565b81146200056a57600080fd5b50565b6000815190506200057e8162000553565b92915050565b60006bffffffffffffffffffffffff82169050919050565b620005a78162000584565b8114620005b357600080fd5b50565b600081519050620005c7816200059c565b92915050565b600080600080600060a08688031215620005ec57620005eb62000396565b5b600086015167ffffffffffffffff8111156200060d576200060c6200039b565b5b6200061b88828901620004ec565b955050602086015167ffffffffffffffff8111156200063f576200063e6200039b565b5b6200064d88828901620004ec565b945050604062000660888289016200056d565b935050606062000673888289016200056d565b92505060806200068688828901620005b6565b9150509295509295909350565b600081519050919050565b7f4e487b7100000000000000000000000000000000000000000000000000000000600052602260045260246000fd5b60006002820490506001821680620006e657607f821691505b602082108103620006fc57620006fb6200069e565b5b50919050565b60008190508160005260206000209050919050565b60006020601f8301049050919050565b600082821b905092915050565b600060088302620007667fffffffffffffffffffffffffffffffffffffffffffffffffffffffffffffffff8262000727565b62000772868362000727565b95508019841693508086168417925050509392505050565b6000819050919050565b6000819050919050565b6000620007bf620007b9620007b3846200078a565b62000794565b6200078a565b9050919050565b6000819050919050565b620007db836200079e565b620007f3620007ea82620007c6565b84845462000734565b825550505050565b600090565b6200080a620007fb565b62000817818484620007d0565b505050565b5b818110156200083f576200083360008262000800565b6001810190506200081d565b5050565b601f8211156200088e57620008588162000702565b620008638462000717565b8101602085101562000873578190505b6200088b620008828562000717565b8301826200081c565b50505b505050565b600082821c905092915050565b6000620008b36000198460080262000893565b1980831691505092915050565b6000620008ce8383620008a0565b9150826002028217905092915050565b620008e98262000693565b67ffffffffffffffff811115620009055762000904620003bb565b5b620009118254620006cd565b6200091e82828562000843565b600060209050601f83116001811462000956576000841562000941578287015190505b6200094d8582620008c0565b865550620009bd565b601f198416620009668662000702565b60005b82811015620009905784890151825560018201915060208501945060208101905062000969565b86831015620009b05784890151620009ac601f891682620008a0565b8355505b6001600288020188555050505b505050505050565b620009d0816200053f565b82525050565b6000602082019050620009ed6000830184620009c5565b92915050565b600062000a1462000a0e62000a088462000584565b62000794565b6200078a565b9050919050565b62000a2681620009f3565b82525050565b62000a37816200078a565b82525050565b600060408201905062000a54600083018562000a1b565b62000a63602083018462000a2c565b9392505050565b61291d8062000a7a6000396000f3fe608060405234801561001057600080fd5b50600436106101165760003560e01c8063715018a6116100a2578063b88d4fde11610071578063b88d4fde146102e0578063c87b56dd146102fc578063d0def5211461032c578063e985e9c514610348578063f2fde38b1461037857610116565b8063715018a61461027e5780638da5cb5b1461028857806395d89b41146102a6578063a22cb465146102c457610116565b806323b872dd116100e957806323b872dd146101b55780632a55205a146101d157806342842e0e146102025780636352211e1461021e57806370a082311461024e57610116565b806301ffc9a71461011b57806306fdde031461014b578063081812fc14610169578063095ea7b314610199575b600080fd5b61013560048036038101906101309190611cc2565b610394565b6040516101429190611d0a565b60405180910390f35b6101536103a6565b6040516101609190611db5565b60405180910390f35b610183600480360381019061017e9190611e0d565b610438565b6040516101909190611e7b565b60405180910390f35b6101b360048036038101906101ae9190611ec2565b610454565b005b6101cf60048036038101906101ca9190611f02565b61046a565b005b6101eb60048036038101906101e69190611f55565b61056c565b6040516101f9929190611fa4565b60405180910390f35b61021c60048036038101906102179190611f02565b61069c565b005b61023860048036038101906102339190611e0d565b6106bc565b6040516102459190611e7b565b60405180910390f35b61026860048036038101906102639190611fcd565b6106ce565b6040516102759190611ffa565b60405180910390f35b610286610788565b005b61029061079c565b60405161029d9190611e7b565b60405180910390f35b6102ae6107c6565b6040516102bb9190611db5565b60405180910390f35b6102de60048036038101906102d99190612041565b610858565b005b6102fa60048036038101906102f591906121b6565b61086e565b005b61031660048036038101906103119190611e0d565b610893565b6040516103239190611db5565b60405180910390f35b610346600480360381019061034191906122da565b6109a6565b005b610362600480360381019061035d9190612336565b6109e6565b60405161036f9190611d0a565b60405180910390f35b610392600480360381019061038d9190611fcd565b610a7a565b005b600061039f82610b00565b9050919050565b6060600080546103b5906123a5565b80601f01602080910402602001604051908101604052809291908181526020018280546103e1906123a5565b801561042e5780601f106104035761010080835404028352916020019161042e565b820191906000526020600020905b81548152906001019060200180831161041157829003601f168201915b5050505050905090565b600061044382610b7a565b5061044d82610c02565b9050919050565b6104668282610461610c3f565b610c47565b5050565b600073ffffffffffffffffffffffffffffffffffffffff168273ffffffffffffffffffffffffffffffffffffffff16036104dc5760006040517f64a0ae920000000000000000000000000000000000000000000000000000000081526004016104d39190611e7b565b60405180910390fd5b60006104f083836104eb610c3f565b610c59565b90508373ffffffffffffffffffffffffffffffffffffffff168173ffffffffffffffffffffffffffffffffffffffff1614610566578382826040517f64283d7b00000000000000000000000000000000000000000000000000000000815260040161055d939291906123d6565b60405180910390fd5b50505050565b600080600060086000868152602001908152602001600020905060008160000160009054906101000a900473ffffffffffffffffffffffffffffffffffffffff16905060008260000160149054906101000a90046bffffffffffffffffffffffff169050600073ffffffffffffffffffffffffffffffffffffffff168273ffffffffffffffffffffffffffffffffffffffff160361064d57600760000160009054906101000a900473ffffffffffffffffffffffffffffffffffffffff169150600760000160149054906101000a90046bffffffffffffffffffffffff1690505b6000610657610e73565b6bffffffffffffffffffffffff16826bffffffffffffffffffffffff168861067f919061243c565b61068991906124ad565b9050828195509550505050509250929050565b6106b78383836040518060200160405280600081525061086e565b505050565b60006106c782610b7a565b9050919050565b60008073ffffffffffffffffffffffffffffffffffffffff168273ffffffffffffffffffffffffffffffffffffffff16036107415760006040517f89c62b640000000000000000000000000000000000000000000000000000000081526004016107389190611e7b565b60405180910390fd5b600360008373ffffffffffffffffffffffffffffffffffffffff1673ffffffffffffffffffffffffffffffffffffffff168152602001908152602001600020549050919050565b610790610e7d565b61079a6000610f04565b565b6000600960009054906101000a900473ffffffffffffffffffffffffffffffffffffffff16905090565b6060600180546107d5906123a5565b80601f0160208091040260200160405190810160405280929190818152602001828054610801906123a5565b801561084e5780601f106108235761010080835404028352916020019161084e565b820191906000526020600020905b81548152906001019060200180831161083157829003601f168201915b5050505050905090565b61086a610863610c3f565b8383610fca565b5050565b61087984848461046a565b61088d610884610c3f565b85858585611139565b50505050565b606061089e82610b7a565b5060006006600084815260200190815260200160002080546108bf906123a5565b80601f01602080910402602001604051908101604052809291908181526020018280546108eb906123a5565b80156109385780601f1061090d57610100808354040283529160200191610938565b820191906000526020600020905b81548152906001019060200180831161091b57829003601f168201915b5050505050905060006109496112ea565b9050600081510361095e5781925050506109a1565b60008251111561099357808260405160200161097b92919061251a565b604051602081830303815290604052925050506109a1565b61099c84611301565b925050505b919050565b6109ae610e7d565b6000600a5490506109bf838261136a565b6109c98183611388565b600a60008154809291906109dc9061253e565b9190505550505050565b6000600560008473ffffffffffffffffffffffffffffffffffffffff1673ffffffffffffffffffffffffffffffffffffffff16815260200190815260200160002060008373ffffffffffffffffffffffffffffffffffffffff1673ffffffffffffffffffffffffffffffffffffffff16815260200190815260200160002060009054906101000a900460ff16905092915050565b610a82610e7d565b600073ffffffffffffffffffffffffffffffffffffffff168173ffffffffffffffffffffffffffffffffffffffff1603610af45760006040517f1e4fbdf7000000000000000000000000000000000000000000000000000000008152600401610aeb9190611e7b565b60405180910390fd5b610afd81610f04565b50565b60007f2a55205a000000000000000000000000000000000000000000000000000000007bffffffffffffffffffffffffffffffffffffffffffffffffffffffff1916827bffffffffffffffffffffffffffffffffffffffffffffffffffffffff19161480610b735750610b72826113e4565b5b9050919050565b600080610b8683611445565b9050600073ffffffffffffffffffffffffffffffffffffffff168173ffffffffffffffffffffffffffffffffffffffff1603610bf957826040517f7e273289000000000000000000000000000000000000000000000000000000008152600401610bf09190611ffa565b60405180910390fd5b80915050919050565b60006004600083815260200190815260200160002060009054906101000a900473ffffffffffffffffffffffffffffffffffffffff169050919050565b600033905090565b610c548383836001611482565b505050565b600080610c6584611445565b9050600073ffffffffffffffffffffffffffffffffffffffff168373ffffffffffffffffffffffffffffffffffffffff1614610ca757610ca6818486611647565b5b600073ffffffffffffffffffffffffffffffffffffffff168173ffffffffffffffffffffffffffffffffffffffff1614610d3857610ce9600085600080611482565b6001600360008373ffffffffffffffffffffffffffffffffffffffff1673ffffffffffffffffffffffffffffffffffffffff168152602001908152602001600020600082825403925050819055505b600073ffffffffffffffffffffffffffffffffffffffff168573ffffffffffffffffffffffffffffffffffffffff1614610dbb576001600360008773ffffffffffffffffffffffffffffffffffffffff1673ffffffffffffffffffffffffffffffffffffffff168152602001908152602001600020600082825401925050819055505b846002600086815260200190815260200160002060006101000a81548173ffffffffffffffffffffffffffffffffffffffff021916908373ffffffffffffffffffffffffffffffffffffffff160217905550838573ffffffffffffffffffffffffffffffffffffffff168273ffffffffffffffffffffffffffffffffffffffff167fddf252ad1be2c89b69c2b068fc378daa952ba7f163c4a11628f55a4df523b3ef60405160405180910390a4809150509392505050565b6000612710905090565b610e85610c3f565b73ffffffffffffffffffffffffffffffffffffffff16610ea361079c565b73ffffffffffffffffffffffffffffffffffffffff1614610f0257610ec6610c3f565b6040517f118cdaa7000000000000000000000000000000000000000000000000000000008152600401610ef99190611e7b565b60405180910390fd5b565b6000600960009054906101000a900473ffffffffffffffffffffffffffffffffffffffff16905081600960006101000a81548173ffffffffffffffffffffffffffffffffffffffff021916908373ffffffffffffffffffffffffffffffffffffffff1602179055508173ffffffffffffffffffffffffffffffffffffffff168173ffffffffffffffffffffffffffffffffffffffff167f8be0079c531659141344cd1fd0a4f28419497f9722a3daafe3b4186f6b6457e060405160405180910390a35050565b600073ffffffffffffffffffffffffffffffffffffffff168273ffffffffffffffffffffffffffffffffffffffff160361103b57816040517f5b08ba180000000000000000000000000000000000000000000000000000000081526004016110329190611e7b565b60405180910390fd5b80600560008573ffffffffffffffffffffffffffffffffffffffff1673ffffffffffffffffffffffffffffffffffffffff16815260200190815260200160002060008473ffffffffffffffffffffffffffffffffffffffff1673ffffffffffffffffffffffffffffffffffffffff16815260200190815260200160002060006101000a81548160ff0219169083151502179055508173ffffffffffffffffffffffffffffffffffffffff168373ffffffffffffffffffffffffffffffffffffffff167f17307eab39ab6107e8899845ad3d59bd9653f200f220920489ca2b5937696c318360405161112c9190611d0a565b60405180910390a3505050565b60008373ffffffffffffffffffffffffffffffffffffffff163b11156112e3578273ffffffffffffffffffffffffffffffffffffffff1663150b7a02868685856040518563ffffffff1660e01b815260040161119894939291906125db565b6020604051808303816000875af19250505080156111d457506040513d601f19601f820116820180604052508101906111d1919061263c565b60015b611258573d8060008114611204576040519150601f19603f3d011682016040523d82523d6000602084013e611209565b606091505b50600081510361125057836040517f64a0ae920000000000000000000000000000000000000000000000000000000081526004016112479190611e7b565b60405180910390fd5b805160208201fd5b63150b7a0260e01b7bffffffffffffffffffffffffffffffffffffffffffffffffffffffff1916817bffffffffffffffffffffffffffffffffffffffffffffffffffffffff1916146112e157836040517f64a0ae920000000000000000000000000000000000000000000000000000000081526004016112d89190611e7b565b60405180910390fd5b505b5050505050565b606060405180602001604052806000815250905090565b606061130c82610b7a565b5060006113176112ea565b905060008151116113375760405180602001604052806000815250611362565b806113418461170b565b60405160200161135292919061251a565b6040516020818303038152906040525b915050919050565b6113848282604051806020016040528060008152506117d9565b5050565b806006600084815260200190815260200160002090816113a89190612815565b507ff8e1a15aba9398e019f0b49df1a4fde98ee17ae345cb5f6b5e2c27f5033e8ce7826040516113d89190611ffa565b60405180910390a15050565b6000634906490660e01b7bffffffffffffffffffffffffffffffffffffffffffffffffffffffff1916827bffffffffffffffffffffffffffffffffffffffffffffffffffffffff1916148061143e575061143d826117fd565b5b9050919050565b60006002600083815260200190815260200160002060009054906101000a900473ffffffffffffffffffffffffffffffffffffffff169050919050565b80806114bb5750600073ffffffffffffffffffffffffffffffffffffffff168273ffffffffffffffffffffffffffffffffffffffff1614155b156115ef5760006114cb84610b7a565b9050600073ffffffffffffffffffffffffffffffffffffffff168373ffffffffffffffffffffffffffffffffffffffff161415801561153657508273ffffffffffffffffffffffffffffffffffffffff168173ffffffffffffffffffffffffffffffffffffffff1614155b8015611549575061154781846109e6565b155b1561158b57826040517fa9fbf51f0000000000000000000000000000000000000000000000000000000081526004016115829190611e7b565b60405180910390fd5b81156115ed57838573ffffffffffffffffffffffffffffffffffffffff168273ffffffffffffffffffffffffffffffffffffffff167f8c5be1e5ebec7d5bd14f71427d1e84f3dd0314c0f7b2291e5b200ac8c7c3b92560405160405180910390a45b505b836004600085815260200190815260200160002060006101000a81548173ffffffffffffffffffffffffffffffffffffffff021916908373ffffffffffffffffffffffffffffffffffffffff16021790555050505050565b6116528383836118df565b61170657600073ffffffffffffffffffffffffffffffffffffffff168373ffffffffffffffffffffffffffffffffffffffff16036116c757806040517f7e2732890000000000000000000000000000000000000000000000000000000081526004016116be9190611ffa565b60405180910390fd5b81816040517f177e802f0000000000000000000000000000000000000000000000000000000081526004016116fd929190611fa4565b60405180910390fd5b505050565b60606000600161171a846119a0565b01905060008167ffffffffffffffff8111156117395761173861208b565b5b6040519080825280601f01601f19166020018201604052801561176b5781602001600182028036833780820191505090505b509050600082602083010190505b6001156117ce578080600190039150507f3031323334353637383961626364656600000000000000000000000000000000600a86061a8153600a85816117c2576117c161247e565b5b04945060008503611779575b819350505050919050565b6117e38383611af3565b6117f86117ee610c3f565b6000858585611139565b505050565b60007f80ac58cd000000000000000000000000000000000000000000000000000000007bffffffffffffffffffffffffffffffffffffffffffffffffffffffff1916827bffffffffffffffffffffffffffffffffffffffffffffffffffffffff191614806118c857507f5b5e139f000000000000000000000000000000000000000000000000000000007bffffffffffffffffffffffffffffffffffffffffffffffffffffffff1916827bffffffffffffffffffffffffffffffffffffffffffffffffffffffff1916145b806118d857506118d782611bec565b5b9050919050565b60008073ffffffffffffffffffffffffffffffffffffffff168373ffffffffffffffffffffffffffffffffffffffff161415801561199757508273ffffffffffffffffffffffffffffffffffffffff168473ffffffffffffffffffffffffffffffffffffffff161480611958575061195784846109e6565b5b8061199657508273ffffffffffffffffffffffffffffffffffffffff1661197e83610c02565b73ffffffffffffffffffffffffffffffffffffffff16145b5b90509392505050565b600080600090507a184f03e93ff9f4daa797ed6e38ed64bf6a1f01000000000000000083106119fe577a184f03e93ff9f4daa797ed6e38ed64bf6a1f01000000000000000083816119f4576119f361247e565b5b0492506040810190505b6d04ee2d6d415b85acef81000000008310611a3b576d04ee2d6d415b85acef81000000008381611a3157611a3061247e565b5b0492506020810190505b662386f26fc100008310611a6a57662386f26fc100008381611a6057611a5f61247e565b5b0492506010810190505b6305f5e1008310611a93576305f5e1008381611a8957611a8861247e565b5b0492506008810190505b6127108310611ab8576127108381611aae57611aad61247e565b5b0492506004810190505b60648310611adb5760648381611ad157611ad061247e565b5b0492506002810190505b600a8310611aea576001810190505b80915050919050565b600073ffffffffffffffffffffffffffffffffffffffff168273ffffffffffffffffffffffffffffffffffffffff1603611b655760006040517f64a0ae92000000000000000000000000000000000000000000000000000000008152600401611b5c9190611e7b565b60405180910390fd5b6000611b7383836000610c59565b9050600073ffffffffffffffffffffffffffffffffffffffff168173ffffffffffffffffffffffffffffffffffffffff1614611be75760006040517f73c6ac6e000000000000000000000000000000000000000000000000000000008152600401611bde9190611e7b565b60405180910390fd5b505050565b60007f01ffc9a7000000000000000000000000000000000000000000000000000000007bffffffffffffffffffffffffffffffffffffffffffffffffffffffff1916827bffffffffffffffffffffffffffffffffffffffffffffffffffffffff1916149050919050565b6000604051905090565b600080fd5b600080fd5b60007fffffffff0000000000000000000000000000000000000000000000000000000082169050919050565b611c9f81611c6a565b8114611caa57600080fd5b50565b600081359050611cbc81611c96565b92915050565b600060208284031215611cd857611cd7611c60565b5b6000611ce684828501611cad565b91505092915050565b60008115159050919050565b611d0481611cef565b82525050565b6000602082019050611d1f6000830184611cfb565b92915050565b600081519050919050565b600082825260208201905092915050565b60005b83811015611d5f578082015181840152602081019050611d44565b60008484015250505050565b6000601f19601f8301169050919050565b6000611d8782611d25565b611d918185611d30565b9350611da1818560208601611d41565b611daa81611d6b565b840191505092915050565b60006020820190508181036000830152611dcf8184611d7c565b905092915050565b6000819050919050565b611dea81611dd7565b8114611df557600080fd5b50565b600081359050611e0781611de1565b92915050565b600060208284031215611e2357611e22611c60565b5b6000611e3184828501611df8565b91505092915050565b600073ffffffffffffffffffffffffffffffffffffffff82169050919050565b6000611e6582611e3a565b9050919050565b611e7581611e5a565b82525050565b6000602082019050611e906000830184611e6c565b92915050565b611e9f81611e5a565b8114611eaa57600080fd5b50565b600081359050611ebc81611e96565b92915050565b60008060408385031215611ed957611ed8611c60565b5b6000611ee785828601611ead565b9250506020611ef885828601611df8565b9150509250929050565b600080600060608486031215611f1b57611f1a611c60565b5b6000611f2986828701611ead565b9350506020611f3a86828701611ead565b9250506040611f4b86828701611df8565b9150509250925092565b60008060408385031215611f6c57611f6b611c60565b5b6000611f7a85828601611df8565b9250506020611f8b85828601611df8565b9150509250929050565b611f9e81611dd7565b82525050565b6000604082019050611fb96000830185611e6c565b611fc66020830184611f95565b9392505050565b600060208284031215611fe357611fe2611c60565b5b6000611ff184828501611ead565b91505092915050565b600060208201905061200f6000830184611f95565b92915050565b61201e81611cef565b811461202957600080fd5b50565b60008135905061203b81612015565b92915050565b6000806040838503121561205857612057611c60565b5b600061206685828601611ead565b92505060206120778582860161202c565b9150509250929050565b600080fd5b600080fd5b7f4e487b7100000000000000000000000000000000000000000000000000000000600052604160045260246000fd5b6120c382611d6b565b810181811067ffffffffffffffff821117156120e2576120e161208b565b5b80604052505050565b60006120f5611c56565b905061210182826120ba565b919050565b600067ffffffffffffffff8211156121215761212061208b565b5b61212a82611d6b565b9050602081019050919050565b82818337600083830152505050565b600061215961215484612106565b6120eb565b90508281526020810184848401111561217557612174612086565b5b612180848285612137565b509392505050565b600082601f83011261219d5761219c612081565b5b81356121ad848260208601612146565b91505092915050565b600080600080608085870312156121d0576121cf611c60565b5b60006121de87828801611ead565b94505060206121ef87828801611ead565b935050604061220087828801611df8565b925050606085013567ffffffffffffffff81111561222157612220611c65565b5b61222d87828801612188565b91505092959194509250565b600067ffffffffffffffff8211156122545761225361208b565b5b61225d82611d6b565b9050602081019050919050565b600061227d61227884612239565b6120eb565b90508281526020810184848401111561229957612298612086565b5b6122a4848285612137565b509392505050565b600082601f8301126122c1576122c0612081565b5b81356122d184826020860161226a565b91505092915050565b600080604083850312156122f1576122f0611c60565b5b60006122ff85828601611ead565b925050602083013567ffffffffffffffff8111156123205761231f611c65565b5b61232c858286016122ac565b9150509250929050565b6000806040838503121561234d5761234c611c60565b5b600061235b85828601611ead565b925050602061236c85828601611ead565b9150509250929050565b7f4e487b7100000000000000000000000000000000000000000000000000000000600052602260045260246000fd5b600060028204905060018216806123bd57607f821691505b6020821081036123d0576123cf612376565b5b50919050565b60006060820190506123eb6000830186611e6c565b6123f86020830185611f95565b6124056040830184611e6c565b949350505050565b7f4e487b7100000000000000000000000000000000000000000000000000000000600052601160045260246000fd5b600061244782611dd7565b915061245283611dd7565b925082820261246081611dd7565b915082820484148315176124775761247661240d565b5b5092915050565b7f4e487b7100000000000000000000000000000000000000000000000000000000600052601260045260246000fd5b60006124b882611dd7565b91506124c383611dd7565b9250826124d3576124d261247e565b5b828204905092915050565b600081905092915050565b60006124f482611d25565b6124fe81856124de565b935061250e818560208601611d41565b80840191505092915050565b600061252682856124e9565b915061253282846124e9565b91508190509392505050565b600061254982611dd7565b91507fffffffffffffffffffffffffffffffffffffffffffffffffffffffffffffffff820361257b5761257a61240d565b5b600182019050919050565b600081519050919050565b600082825260208201905092915050565b60006125ad82612586565b6125b78185612591565b93506125c7818560208601611d41565b6125d081611d6b565b840191505092915050565b60006080820190506125f06000830187611e6c565b6125fd6020830186611e6c565b61260a6040830185611f95565b818103606083015261261c81846125a2565b905095945050505050565b60008151905061263681611c96565b92915050565b60006020828403121561265257612651611c60565b5b600061266084828501612627565b91505092915050565b60008190508160005260206000209050919050565b60006020601f8301049050919050565b600082821b905092915050565b6000600883026126cb7fffffffffffffffffffffffffffffffffffffffffffffffffffffffffffffffff8261268e565b6126d5868361268e565b95508019841693508086168417925050509392505050565b6000819050919050565b600061271261270d61270884611dd7565b6126ed565b611dd7565b9050919050565b6000819050919050565b61272c836126f7565b61274061273882612719565b84845461269b565b825550505050565b600090565b612755612748565b612760818484612723565b505050565b5b818110156127845761277960008261274d565b600181019050612766565b5050565b601f8211156127c95761279a81612669565b6127a38461267e565b810160208510156127b2578190505b6127c66127be8561267e565b830182612765565b50505b505050565b600082821c905092915050565b60006127ec600019846008026127ce565b1980831691505092915050565b600061280583836127db565b9150826002028217905092915050565b61281e82611d25565b67ffffffffffffffff8111156128375761283661208b565b5b61284182546123a5565b61284c828285612788565b600060209050601f83116001811461287f576000841561286d578287015190505b61287785826127f9565b8655506128df565b601f19841661288d86612669565b60005b828110156128b557848901518255600182019150602085019450602081019050612890565b868310156128d257848901516128ce601f8916826127db565b8355505b6001600288020188555050505b50505050505056fea2646970667358221220a5183bd51684a9c9a324e881a5b2eac6d209d4d0de52009e72fc694fe27d538764736f6c63430008140033",
  "linkReferences": {},
  "deployedLinkReferences": {}
}