{"abi":[{"type":"constructor","inputs":[{"name":"registry","type":"address","internalType":"address"},{"name":"vaultId","type":"string","internalType":"string"}],"stateMutability":"nonpayable"},{"type":"function","name":"REGISTRY","inputs":[],"outputs":[{"name":"","type":"address","internalType":"contract IVaultRegistry"}],"stateMutability":"view"},{"type":"function","name":"VAULT_ID","inputs":[],"outputs":[{"name":"","type":"string","internalType":"string"}],"stateMutability":"view"},{"type":"function","name":"storedValue","inputs":[],"outputs":[{"name":"","type":"uint256","internalType":"uint256"}],"stateMutability":"view"},{"type":"function","name":"updateValue","inputs":[{"name":"newValue","type":"uint256","internalType":"uint256"}],"outputs":[],"stateMutability":"nonpayable"}],"bytecode":{"object":"0x60a060405234801561000f575f5ffd5b50604051610b9f380380610b9f83398181016040528101906100319190610294565b81815f73ffffffffffffffffffffffffffffffffffffffff168273ffffffffffffffffffffffffffffffffffffffff16036100a1576040517f08c379a000000000000000000000000000000000000000000000000000000000815260040161009890610348565b60405180910390fd5b8173ffffffffffffffffffffffffffffffffffffffff1660808173ffffffffffffffffffffffffffffffffffffffff1681525050805f90816100e39190610587565b5050505050610656565b5f604051905090565b5f5ffd5b5f5ffd5b5f73ffffffffffffffffffffffffffffffffffffffff82169050919050565b5f610127826100fe565b9050919050565b6101378161011d565b8114610141575f5ffd5b50565b5f815190506101528161012e565b92915050565b5f5ffd5b5f5ffd5b5f601f19601f8301169050919050565b7f4e487b71000000000000000000000000000000000000000000000000000000005f52604160045260245ffd5b6101a682610160565b810181811067ffffffffffffffff821117156101c5576101c4610170565b5b80604052505050565b5f6101d76100ed565b90506101e3828261019d565b919050565b5f67ffffffffffffffff82111561020257610201610170565b5b61020b82610160565b9050602081019050919050565b8281835e5f83830152505050565b5f610238610233846101e8565b6101ce565b9050828152602081018484840111156102545761025361015c565b5b61025f848285610218565b509392505050565b5f82601f83011261027b5761027a610158565b5b815161028b848260208601610226565b91505092915050565b5f5f604083850312156102aa576102a96100f6565b5b5f6102b785828601610144565b925050602083015167ffffffffffffffff8111156102d8576102d76100fa565b5b6102e485828601610267565b9150509250929050565b5f82825260208201905092915050565b7f496e76616c6964207265676973747279000000000000000000000000000000005f82015250565b5f6103326010836102ee565b915061033d826102fe565b602082019050919050565b5f6020820190508181035f83015261035f81610326565b9050919050565b5f81519050919050565b7f4e487b71000000000000000000000000000000000000000000000000000000005f52602260045260245ffd5b5f60028204905060018216806103b457607f821691505b6020821081036103c7576103c6610370565b5b50919050565b5f819050815f5260205f209050919050565b5f6020601f8301049050919050565b5f82821b905092915050565b5f600883026104297fffffffffffffffffffffffffffffffffffffffffffffffffffffffffffffffff826103ee565b61043386836103ee565b95508019841693508086168417925050509392505050565b5f819050919050565b5f819050919050565b5f61047761047261046d8461044b565b610454565b61044b565b9050919050565b5f819050919050565b6104908361045d565b6104a461049c8261047e565b8484546103fa565b825550505050565b5f5f905090565b6104bb6104ac565b6104c6818484610487565b505050565b5f5b828110156104ec576104e15f8284016104b3565b6001810190506104cd565b505050565b601f82111561053f578282111561053e5761050b816103cd565b610514836103df565b61051d856103df565b602086101561052a575f90505b808301610539828403826104cb565b505050505b5b505050565b5f82821c905092915050565b5f61055f5f1984600802610544565b1980831691505092915050565b5f6105778383610550565b9150826002028217905092915050565b61059082610366565b67ffffffffffffffff8111156105a9576105a8610170565b5b6105b3825461039d565b6105be8282856104f1565b5f60209050601f8311600181146105ef575f84156105dd578287015190505b6105e7858261056c565b86555061064e565b601f1984166105fd866103cd565b5f5b82811015610624578489015182556001820191506020850194506020810190506105ff565b86831015610641578489015161063d601f891682610550565b8355505b6001600288020188555050505b505050505050565b60805161052b6106745f395f818160c60152610175015261052b5ff3fe608060405234801561000f575f5ffd5b506004361061004a575f3560e01c806306433b1b1461004e578063540acabc1461006c578063573c0bd31461008a5780636d619daa146100a6575b5f5ffd5b6100566100c4565b6040516100639190610284565b60405180910390f35b6100746100e8565b604051610081919061030d565b60405180910390f35b6100a4600480360381019061009f9190610364565b610173565b005b6100ae610204565b6040516100bb919061039e565b60405180910390f35b7f000000000000000000000000000000000000000000000000000000000000000081565b5f80546100f4906103e4565b80601f0160208091040260200160405190810160405280929190818152602001828054610120906103e4565b801561016b5780601f106101425761010080835404028352916020019161016b565b820191905f5260205f20905b81548152906001019060200180831161014e57829003601f168201915b505050505081565b7f000000000000000000000000000000000000000000000000000000000000000073ffffffffffffffffffffffffffffffffffffffff1663706474675f336040518363ffffffff1660e01b81526004016101ce9291906104c7565b5f6040518083038186803b1580156101e4575f5ffd5b505afa1580156101f6573d5f5f3e3d5ffd5b505050508060018190555050565b60015481565b5f73ffffffffffffffffffffffffffffffffffffffff82169050919050565b5f819050919050565b5f61024c6102476102428461020a565b610229565b61020a565b9050919050565b5f61025d82610232565b9050919050565b5f61026e82610253565b9050919050565b61027e81610264565b82525050565b5f6020820190506102975f830184610275565b92915050565b5f81519050919050565b5f82825260208201905092915050565b8281835e5f83830152505050565b5f601f19601f8301169050919050565b5f6102df8261029d565b6102e981856102a7565b93506102f98185602086016102b7565b610302816102c5565b840191505092915050565b5f6020820190508181035f83015261032581846102d5565b905092915050565b5f5ffd5b5f819050919050565b61034381610331565b811461034d575f5ffd5b50565b5f8135905061035e8161033a565b92915050565b5f602082840312156103795761037861032d565b5b5f61038684828501610350565b91505092915050565b61039881610331565b82525050565b5f6020820190506103b15f83018461038f565b92915050565b7f4e487b71000000000000000000000000000000000000000000000000000000005f52602260045260245ffd5b5f60028204905060018216806103fb57607f821691505b60208210810361040e5761040d6103b7565b5b50919050565b5f819050815f5260205f209050919050565b5f8154610432816103e4565b61043c81866102a7565b9450600182165f8114610456576001811461046c5761049e565b60ff19831686528115156020028601935061049e565b61047585610414565b5f5b8381101561049657815481890152600182019150602081019050610477565b808801955050505b50505092915050565b5f6104b18261020a565b9050919050565b6104c1816104a7565b82525050565b5f6040820190508181035f8301526104df8185610426565b90506104ee60208301846104b8565b939250505056fea2646970667358221220005e83a743711e8b7282fa44d1a84bf0c5cb9c8024dd5c68aa9c9d4dc8ccfae064736f6c63430008210033","linkReferences":{}},"methodIdentifiers":{"REGISTRY()":"06433b1b","VAULT_ID()":"540acabc","storedValue()":"6d619daa","updateValue(uint256)":"573c0bd3"},"id":42}