{
  "_format": "hh-sol-artifact-1",
  "contractName": "FractionalToken",
  "sourceName": "contracts/FractionalToken.sol",
  "abi": [
    {
      "inputs": [
        {
          "internalType": "string",
          "name": "name_",
          "type": "string"
        },
        {
          "internalType": "string",
          "name": "symbol_",
          "type": "string"
        },
        {
          "internalType": "uint256",
          "name": "totalSupply_",
          "type": "uint256"
        },
        {
          "internalType": "address",
          "name": "vaultAddress",
          "type": "address"
        }
      ],
      "stateMutability": "nonpayable",
      "type": "constructor"
    },
    {
      "inputs": [
        {
          "internalType": "address",
          "name": "spender",
          "type": "address"
        },
        {
          "internalType": "uint256",
          "name": "allowance",
          "type": "uint256"
        },
        {
          "internalType": "uint256",
          "name": "needed",
          "type": "uint256"
        }
      ],
      "name": "ERC20InsufficientAllowance",
      "type": "error"
    },
    {
      "inputs": [
        {
          "internalType": "address",
          "name": "sender",
          "type": "address"
        },
        {
          "internalType": "uint256",
          "name": "balance",
          "type": "uint256"
        },
        {
          "internalType": "uint256",
          "name": "needed",
          "type": "uint256"
        }
      ],
      "name": "ERC20InsufficientBalance",
      "type": "error"
    },
    {
      "inputs": [
        {
          "internalType": "address",
          "name": "approver",
          "type": "address"
        }
      ],
      "name": "ERC20InvalidApprover",
      "type": "error"
    },
    {
      "inputs": [
        {
          "internalType": "address",
          "name": "receiver",
          "type": "address"
        }
      ],
      "name": "ERC20InvalidReceiver",
      "type": "error"
    },
    {
      "inputs": [
        {
          "internalType": "address",
          "name": "sender",
          "type": "address"
        }
      ],
      "name": "ERC20InvalidSender",
      "type": "error"
    },
    {
      "inputs": [
        {
          "internalType": "address",
          "name": "spender",
          "type": "address"
        }
      ],
      "name": "ERC20InvalidSpender",
      "type": "error"
    },
    {
      "anonymous": false,
      "inputs": [
        {
          "indexed": true,
          "internalType": "address",
          "name": "owner",
          "type": "address"
        },
        {
          "indexed": true,
          "internalType": "address",
          "name": "spender",
          "type": "address"
        },
        {
          "indexed": false,
          "internalType": "uint256",
          "name": "value",
          "type": "uint256"
        }
      ],
      "name": "Approval",
      "type": "event"
    },
    {
      "anonymous": false,
      "inputs": [
        {
          "indexed": true,
          "internalType": "address",
          "name": "from",
          "type": "address"
        },
        {
          "indexed": true,
          "internalType": "address",
          "name": "to",
          "type": "address"
        },
        {
          "indexed": false,
          "internalType": "uint256",
          "name": "value",
          "type": "uint256"
        }
      ],
      "name": "Transfer",
      "type": "event"
    },
    {
      "inputs": [
        {
          "internalType": "address",
          "name": "owner",
          "type": "address"
        },
        {
          "internalType": "address",
          "name": "spender",
          "type": "address"
        }
      ],
      "name": "allowance",
      "outputs": [
        {
          "internalType": "uint256",
          "name": "",
          "type": "uint256"
        }
      ],
      "stateMutability": "view",
      "type": "function"
    },
    {
      "inputs": [
        {
          "internalType": "address",
          "name": "spender",
          "type": "address"
        },
        {
          "internalType": "uint256",
          "name": "value",
          "type": "uint256"
        }
      ],
      "name": "approve",
      "outputs": [
        {
          "internalType": "bool",
          "name": "",
          "type": "bool"
        }
      ],
      "stateMutability": "nonpayable",
      "type": "function"
    },
    {
      "inputs": [
        {
          "internalType": "address",
          "name": "account",
          "type": "address"
        }
      ],
      "name": "balanceOf",
      "outputs": [
        {
          "internalType": "uint256",
          "name": "",
          "type": "uint256"
        }
      ],
      "stateMutability": "view",
      "type": "function"
    },
    {
      "inputs": [],
      "name": "decimals",
      "outputs": [
        {
          "internalType": "uint8",
          "name": "",
          "type": "uint8"
        }
      ],
      "stateMutability": "view",
      "type": "function"
    },
    {
      "inputs": [],
      "name": "name",
      "outputs": [
        {
          "internalType": "string",
          "name": "",
          "type": "string"
        }
      ],
      "stateMutability": "view",
      "type": "function"
    },
    {
      "inputs": [],
      "name": "symbol",
      "outputs": [
        {
          "internalType": "string",
          "name": "",
          "type": "string"
        }
      ],
      "stateMutability": "view",
      "type": "function"
    },
    {
      "inputs": [],
      "name": "totalSupply",
      "outputs": [
        {
          "internalType": "uint256",
          "name": "",
          "type": "uint256"
        }
      ],
      "stateMutability": "view",
      "type": "function"
    },
    {
      "inputs": [
        {
          "internalType": "address",
          "name": "to",
          "type": "address"
        },
        {
          "internalType": "uint256",
          "name": "value",
          "type": "uint256"
        }
      ],
      "name": "transfer",
      "outputs": [
        {
          "internalType": "bool",
          "name": "",
          "type": "bool"
        }
      ],
      "stateMutability": "nonpayable",
      "type": "function"
    },
    {
      "inputs": [
        {
          "internalType": "address",
          "name": "from",
          "type": "address"
        },
        {
          "internalType": "address",
          "name": "to",
          "type": "address"
        },
        {
          "internalType": "uint256",
          "name": "value",
          "type": "uint256"
        }
      ],
      "name": "transferFrom",
      "outputs": [
        {
          "internalType": "bool",
          "name": "",
          "type": "bool"
        }
      ],
      "stateMutability": "nonpayable",
      "type": "function"
    },
    {
      "inputs": [],
      "name": "vault",
      "outputs": [
        {
          "internalType": "address",
          "name": "",
          "type": "address"
        }
      ],
      "stateMutability": "view",
      "type": "function"
    }
  ],
  "bytecode": "0x60806040523480156200001157600080fd5b506040516200193c3803806200193c8339818101604052810190620000379190620005ac565b838381600390816200004a91906200089d565b5080600490816200005c91906200089d565b50505080600560006101000a81548173ffffffffffffffffffffffffffffffffffffffff021916908373ffffffffffffffffffffffffffffffffffffffff160217905550620000b28183620000bc60201b60201c565b5050505062000a87565b600073ffffffffffffffffffffffffffffffffffffffff168273ffffffffffffffffffffffffffffffffffffffff1603620001315760006040517fec442f0500000000000000000000000000000000000000000000000000000000815260040162000128919062000995565b60405180910390fd5b62000145600083836200014960201b60201c565b5050565b600073ffffffffffffffffffffffffffffffffffffffff168373ffffffffffffffffffffffffffffffffffffffff16036200019f578060026000828254620001929190620009e1565b9250508190555062000275565b60008060008573ffffffffffffffffffffffffffffffffffffffff1673ffffffffffffffffffffffffffffffffffffffff168152602001908152602001600020549050818110156200022e578381836040517fe450d38c000000000000000000000000000000000000000000000000000000008152600401620002259392919062000a2d565b60405180910390fd5b8181036000808673ffffffffffffffffffffffffffffffffffffffff1673ffffffffffffffffffffffffffffffffffffffff16815260200190815260200160002081905550505b600073ffffffffffffffffffffffffffffffffffffffff168273ffffffffffffffffffffffffffffffffffffffff1603620002c057806002600082825403925050819055506200030d565b806000808473ffffffffffffffffffffffffffffffffffffffff1673ffffffffffffffffffffffffffffffffffffffff168152602001908152602001600020600082825401925050819055505b8173ffffffffffffffffffffffffffffffffffffffff168373ffffffffffffffffffffffffffffffffffffffff167fddf252ad1be2c89b69c2b068fc378daa952ba7f163c4a11628f55a4df523b3ef836040516200036c919062000a6a565b60405180910390a3505050565b6000604051905090565b600080fd5b600080fd5b600080fd5b600080fd5b6000601f19601f8301169050919050565b7f4e487b7100000000000000000000000000000000000000000000000000000000600052604160045260246000fd5b620003e28262000397565b810181811067ffffffffffffffff82111715620004045762000403620003a8565b5b80604052505050565b60006200041962000379565b9050620004278282620003d7565b919050565b600067ffffffffffffffff8211156200044a5762000449620003a8565b5b620004558262000397565b9050602081019050919050565b60005b838110156200048257808201518184015260208101905062000465565b60008484015250505050565b6000620004a56200049f846200042c565b6200040d565b905082815260208101848484011115620004c457620004c362000392565b5b620004d184828562000462565b509392505050565b600082601f830112620004f157620004f06200038d565b5b8151620005038482602086016200048e565b91505092915050565b6000819050919050565b62000521816200050c565b81146200052d57600080fd5b50565b600081519050620005418162000516565b92915050565b600073ffffffffffffffffffffffffffffffffffffffff82169050919050565b6000620005748262000547565b9050919050565b620005868162000567565b81146200059257600080fd5b50565b600081519050620005a6816200057b565b92915050565b60008060008060808587031215620005c957620005c862000383565b5b600085015167ffffffffffffffff811115620005ea57620005e962000388565b5b620005f887828801620004d9565b945050602085015167ffffffffffffffff8111156200061c576200061b62000388565b5b6200062a87828801620004d9565b93505060406200063d8782880162000530565b9250506060620006508782880162000595565b91505092959194509250565b600081519050919050565b7f4e487b7100000000000000000000000000000000000000000000000000000000600052602260045260246000fd5b60006002820490506001821680620006af57607f821691505b602082108103620006c557620006c462000667565b5b50919050565b60008190508160005260206000209050919050565b60006020601f8301049050919050565b600082821b905092915050565b6000600883026200072f7fffffffffffffffffffffffffffffffffffffffffffffffffffffffffffffffff82620006f0565b6200073b8683620006f0565b95508019841693508086168417925050509392505050565b6000819050919050565b60006200077e6200077862000772846200050c565b62000753565b6200050c565b9050919050565b6000819050919050565b6200079a836200075d565b620007b2620007a98262000785565b848454620006fd565b825550505050565b600090565b620007c9620007ba565b620007d68184846200078f565b505050565b5b81811015620007fe57620007f2600082620007bf565b600181019050620007dc565b5050565b601f8211156200084d576200081781620006cb565b6200082284620006e0565b8101602085101562000832578190505b6200084a6200084185620006e0565b830182620007db565b50505b505050565b600082821c905092915050565b6000620008726000198460080262000852565b1980831691505092915050565b60006200088d83836200085f565b9150826002028217905092915050565b620008a8826200065c565b67ffffffffffffffff811115620008c457620008c3620003a8565b5b620008d0825462000696565b620008dd82828562000802565b600060209050601f83116001811462000915576000841562000900578287015190505b6200090c85826200087f565b8655506200097c565b601f1984166200092586620006cb565b60005b828110156200094f5784890151825560018201915060208501945060208101905062000928565b868310156200096f57848901516200096b601f8916826200085f565b8355505b6001600288020188555050505b505050505050565b6200098f8162000567565b82525050565b6000602082019050620009ac600083018462000984565b92915050565b7f4e487b7100000000000000000000000000000000000000000000000000000000600052601160045260246000fd5b6000620009ee826200050c565b9150620009fb836200050c565b925082820190508082111562000a165762000a15620009b2565b5b92915050565b62000a27816200050c565b82525050565b600060608201905062000a44600083018662000984565b62000a53602083018562000a1c565b62000a62604083018462000a1c565b949350505050565b600060208201905062000a81600083018462000a1c565b92915050565b610ea58062000a976000396000f3fe608060405234801561001057600080fd5b506004361061009e5760003560e01c806370a082311161006657806370a082311461015d57806395d89b411461018d578063a9059cbb146101ab578063dd62ed3e146101db578063fbfa77cf1461020b5761009e565b806306fdde03146100a3578063095ea7b3146100c157806318160ddd146100f157806323b872dd1461010f578063313ce5671461013f575b600080fd5b6100ab610229565b6040516100b89190610af9565b60405180910390f35b6100db60048036038101906100d69190610bb4565b6102bb565b6040516100e89190610c0f565b60405180910390f35b6100f96102de565b6040516101069190610c39565b60405180910390f35b61012960048036038101906101249190610c54565b6102e8565b6040516101369190610c0f565b60405180910390f35b610147610317565b6040516101549190610cc3565b60405180910390f35b61017760048036038101906101729190610cde565b610320565b6040516101849190610c39565b60405180910390f35b610195610368565b6040516101a29190610af9565b60405180910390f35b6101c560048036038101906101c09190610bb4565b6103fa565b6040516101d29190610c0f565b60405180910390f35b6101f560048036038101906101f09190610d0b565b61041d565b6040516102029190610c39565b60405180910390f35b6102136104a4565b6040516102209190610d5a565b60405180910390f35b60606003805461023890610da4565b80601f016020809104026020016040519081016040528092919081815260200182805461026490610da4565b80156102b15780601f10610286576101008083540402835291602001916102b1565b820191906000526020600020905b81548152906001019060200180831161029457829003601f168201915b5050505050905090565b6000806102c66104ca565b90506102d38185856104d2565b600191505092915050565b6000600254905090565b6000806102f36104ca565b90506103008582856104e4565b61030b858585610579565b60019150509392505050565b60006012905090565b60008060008373ffffffffffffffffffffffffffffffffffffffff1673ffffffffffffffffffffffffffffffffffffffff168152602001908152602001600020549050919050565b60606004805461037790610da4565b80601f01602080910402602001604051908101604052809291908181526020018280546103a390610da4565b80156103f05780601f106103c5576101008083540402835291602001916103f0565b820191906000526020600020905b8154815290600101906020018083116103d357829003601f168201915b5050505050905090565b6000806104056104ca565b9050610412818585610579565b600191505092915050565b6000600160008473ffffffffffffffffffffffffffffffffffffffff1673ffffffffffffffffffffffffffffffffffffffff16815260200190815260200160002060008373ffffffffffffffffffffffffffffffffffffffff1673ffffffffffffffffffffffffffffffffffffffff16815260200190815260200160002054905092915050565b600560009054906101000a900473ffffffffffffffffffffffffffffffffffffffff1681565b600033905090565b6104df838383600161066d565b505050565b60006104f0848461041d565b90507fffffffffffffffffffffffffffffffffffffffffffffffffffffffffffffffff8110156105735781811015610563578281836040517ffb8f41b200000000000000000000000000000000000000000000000000000000815260040161055a93929190610dd5565b60405180910390fd5b6105728484848403600061066d565b5b50505050565b600073ffffffffffffffffffffffffffffffffffffffff168373ffffffffffffffffffffffffffffffffffffffff16036105eb5760006040517f96c6fd1e0000000000000000000000000000000000000000000000000000000081526004016105e29190610d5a565b60405180910390fd5b600073ffffffffffffffffffffffffffffffffffffffff168273ffffffffffffffffffffffffffffffffffffffff160361065d5760006040517fec442f050000000000000000000000000000000000000000000000000000000081526004016106549190610d5a565b60405180910390fd5b610668838383610844565b505050565b600073ffffffffffffffffffffffffffffffffffffffff168473ffffffffffffffffffffffffffffffffffffffff16036106df5760006040517fe602df050000000000000000000000000000000000000000000000000000000081526004016106d69190610d5a565b60405180910390fd5b600073ffffffffffffffffffffffffffffffffffffffff168373ffffffffffffffffffffffffffffffffffffffff16036107515760006040517f94280d620000000000000000000000000000000000000000000000000000000081526004016107489190610d5a565b60405180910390fd5b81600160008673ffffffffffffffffffffffffffffffffffffffff1673ffffffffffffffffffffffffffffffffffffffff16815260200190815260200160002060008573ffffffffffffffffffffffffffffffffffffffff1673ffffffffffffffffffffffffffffffffffffffff16815260200190815260200160002081905550801561083e578273ffffffffffffffffffffffffffffffffffffffff168473ffffffffffffffffffffffffffffffffffffffff167f8c5be1e5ebec7d5bd14f71427d1e84f3dd0314c0f7b2291e5b200ac8c7c3b925846040516108359190610c39565b60405180910390a35b50505050565b600073ffffffffffffffffffffffffffffffffffffffff168373ffffffffffffffffffffffffffffffffffffffff160361089657806002600082825461088a9190610e3b565b92505081905550610969565b60008060008573ffffffffffffffffffffffffffffffffffffffff1673ffffffffffffffffffffffffffffffffffffffff16815260200190815260200160002054905081811015610922578381836040517fe450d38c00000000000000000000000000000000000000000000000000000000815260040161091993929190610dd5565b60405180910390fd5b8181036000808673ffffffffffffffffffffffffffffffffffffffff1673ffffffffffffffffffffffffffffffffffffffff16815260200190815260200160002081905550505b600073ffffffffffffffffffffffffffffffffffffffff168273ffffffffffffffffffffffffffffffffffffffff16036109b257806002600082825403925050819055506109ff565b806000808473ffffffffffffffffffffffffffffffffffffffff1673ffffffffffffffffffffffffffffffffffffffff168152602001908152602001600020600082825401925050819055505b8173ffffffffffffffffffffffffffffffffffffffff168373ffffffffffffffffffffffffffffffffffffffff167fddf252ad1be2c89b69c2b068fc378daa952ba7f163c4a11628f55a4df523b3ef83604051610a5c9190610c39565b60405180910390a3505050565b600081519050919050565b600082825260208201905092915050565b60005b83811015610aa3578082015181840152602081019050610a88565b60008484015250505050565b6000601f19601f8301169050919050565b6000610acb82610a69565b610ad58185610a74565b9350610ae5818560208601610a85565b610aee81610aaf565b840191505092915050565b60006020820190508181036000830152610b138184610ac0565b905092915050565b600080fd5b600073ffffffffffffffffffffffffffffffffffffffff82169050919050565b6000610b4b82610b20565b9050919050565b610b5b81610b40565b8114610b6657600080fd5b50565b600081359050610b7881610b52565b92915050565b6000819050919050565b610b9181610b7e565b8114610b9c57600080fd5b50565b600081359050610bae81610b88565b92915050565b60008060408385031215610bcb57610bca610b1b565b5b6000610bd985828601610b69565b9250506020610bea85828601610b9f565b9150509250929050565b60008115159050919050565b610c0981610bf4565b82525050565b6000602082019050610c246000830184610c00565b92915050565b610c3381610b7e565b82525050565b6000602082019050610c4e6000830184610c2a565b92915050565b600080600060608486031215610c6d57610c6c610b1b565b5b6000610c7b86828701610b69565b9350506020610c8c86828701610b69565b9250506040610c9d86828701610b9f565b9150509250925092565b600060ff82169050919050565b610cbd81610ca7565b82525050565b6000602082019050610cd86000830184610cb4565b92915050565b600060208284031215610cf457610cf3610b1b565b5b6000610d0284828501610b69565b91505092915050565b60008060408385031215610d2257610d21610b1b565b5b6000610d3085828601610b69565b9250506020610d4185828601610b69565b9150509250929050565b610d5481610b40565b82525050565b6000602082019050610d6f6000830184610d4b565b92915050565b7f4e487b7100000000000000000000000000000000000000000000000000000000600052602260045260246000fd5b60006002820490506001821680610dbc57607f821691505b602082108103610dcf57610dce610d75565b5b50919050565b6000606082019050610dea6000830186610d4b565b610df76020830185610c2a565b610e046040830184610c2a565b949350505050565b7f4e487b7100000000000000000000000000000000000000000000000000000000600052601160045260246000fd5b6000610e4682610b7e565b9150610e5183610b7e565b9250828201905080821115610e6957610e68610e0c565b5b9291505056fea2646970667358221220b0837cb0785d172d3fd9d766e997f17bf3f282db6812a36605acb6788d7e75d164736f6c63430008140033",
  "linkReferences": {},
  "deployedLinkReferences": {}
}