{"abi":[{"type":"constructor","inputs":[{"name":"admin","type":"address","internalType":"address"},{"name":"initialPrice","type":"uint256","internalType":"uint256"}],"stateMutability":"nonpayable"},{"type":"receive","stateMutability":"payable"},{"type":"function","name":"DEFAULT_ADMIN_ROLE","inputs":[],"outputs":[{"name":"","type":"bytes32","internalType":"bytes32"}],"stateMutability":"view"},{"type":"function","name":"TREASURY_ROLE","inputs":[],"outputs":[{"name":"","type":"bytes32","internalType":"bytes32"}],"stateMutability":"view"},{"type":"function","name":"contractBalance","inputs":[],"outputs":[{"name":"","type":"uint256","internalType":"uint256"}],"stateMutability":"view"},{"type":"function","name":"getRoleAdmin","inputs":[{"name":"role","type":"bytes32","internalType":"bytes32"}],"outputs":[{"name":"","type":"bytes32","internalType":"bytes32"}],"stateMutability":"view"},{"type":"function","name":"grantRole","inputs":[{"name":"role","type":"bytes32","internalType":"bytes32"},{"name":"account","type":"address","internalType":"address"}],"outputs":[],"stateMutability":"nonpayable"},{"type":"function","name":"hasPremium","inputs":[{"name":"","type":"address","internalType":"address"}],"outputs":[{"name":"","type":"bool","internalType":"bool"}],"stateMutability":"view"},{"type":"function","name":"hasRole","inputs":[{"name":"role","type":"bytes32","internalType":"bytes32"},{"name":"account","type":"address","internalType":"address"}],"outputs":[{"name":"","type":"bool","internalType":"bool"}],"stateMutability":"view"},{"type":"function","name":"isPremium","inputs":[{"name":"account","type":"address","internalType":"address"}],"outputs":[{"name":"","type":"bool","internalType":"bool"}],"stateMutability":"view"},{"type":"function","name":"premiumPrice","inputs":[],"outputs":[{"name":"","type":"uint256","internalType":"uint256"}],"stateMutability":"view"},{"type":"function","name":"premiumSince","inputs":[{"name":"","type":"address","internalType":"address"}],"outputs":[{"name":"","type":"uint256","internalType":"uint256"}],"stateMutability":"view"},{"type":"function","name":"purchasePremium","inputs":[],"outputs":[],"stateMutability":"payable"},{"type":"function","name":"renounceRole","inputs":[{"name":"role","type":"bytes32","internalType":"bytes32"},{"name":"callerConfirmation","type":"address","internalType":"address"}],"outputs":[],"stateMutability":"nonpayable"},{"type":"function","name":"revokeRole","inputs":[{"name":"role","type":"bytes32","internalType":"bytes32"},{"name":"account","type":"address","internalType":"address"}],"outputs":[],"stateMutability":"nonpayable"},{"type":"function","name":"setPremiumPrice","inputs":[{"name":"newPrice","type":"uint256","internalType":"uint256"}],"outputs":[],"stateMutability":"nonpayable"},{"type":"function","name":"supportsInterface","inputs":[{"name":"interfaceId","type":"bytes4","internalType":"bytes4"}],"outputs":[{"name":"","type":"bool","internalType":"bool"}],"stateMutability":"view"},{"type":"function","name":"totalContributed","inputs":[{"name":"","type":"address","internalType":"address"}],"outputs":[{"name":"","type":"uint256","internalType":"uint256"}],"stateMutability":"view"},{"type":"function","name":"totalReceived","inputs":[],"outputs":[{"name":"","type":"uint256","internalType":"uint256"}],"stateMutability":"view"},{"type":"function","name":"withdraw","inputs":[{"name":"to","type":"address","internalType":"address"},{"name":"amount","type":"uint256","internalType":"uint256"}],"outputs":[],"stateMutability":"nonpayable"},{"type":"event","name":"FundsWithdrawn","inputs":[{"name":"to","type":"address","indexed":true,"internalType":"address"},{"name":"amount","type":"uint256","indexed":false,"internalType":"uint256"},{"name":"withdrawnBy","type":"address","indexed":true,"internalType":"address"}],"anonymous":false},{"type":"event","name":"PremiumPriceUpdated","inputs":[{"name":"oldPrice","type":"uint256","indexed":false,"internalType":"uint256"},{"name":"newPrice","type":"uint256","indexed":false,"internalType":"uint256"},{"name":"updatedBy","type":"address","indexed":true,"internalType":"address"}],"anonymous":false},{"type":"event","name":"PremiumPurchased","inputs":[{"name":"buyer","type":"address","indexed":true,"internalType":"address"},{"name":"amount","type":"uint256","indexed":false,"internalType":"uint256"},{"name":"timestamp","type":"uint256","indexed":false,"internalType":"uint256"}],"anonymous":false},{"type":"event","name":"RoleAdminChanged","inputs":[{"name":"role","type":"bytes32","indexed":true,"internalType":"bytes32"},{"name":"previousAdminRole","type":"bytes32","indexed":true,"internalType":"bytes32"},{"name":"newAdminRole","type":"bytes32","indexed":true,"internalType":"bytes32"}],"anonymous":false},{"type":"event","name":"RoleGranted","inputs":[{"name":"role","type":"bytes32","indexed":true,"internalType":"bytes32"},{"name":"account","type":"address","indexed":true,"internalType":"address"},{"name":"sender","type":"address","indexed":true,"internalType":"address"}],"anonymous":false},{"type":"event","name":"RoleRevoked","inputs":[{"name":"role","type":"bytes32","indexed":true,"internalType":"bytes32"},{"name":"account","type":"address","indexed":true,"internalType":"address"},{"name":"sender","type":"address","indexed":true,"internalType":"address"}],"anonymous":false},{"type":"error","name":"AccessControlBadConfirmation","inputs":[]},{"type":"error","name":"AccessControlUnauthorizedAccount","inputs":[{"name":"account","type":"address","internalType":"address"},{"name":"neededRole","type":"bytes32","internalType":"bytes32"}]},{"type":"error","name":"InsufficientPayment","inputs":[{"name":"sent","type":"uint256","internalType":"uint256"},{"name":"required","type":"uint256","internalType":"uint256"}]},{"type":"error","name":"NothingToWithdraw","inputs":[]},{"type":"error","name":"ReentrancyGuardReentrantCall","inputs":[]},{"type":"error","name":"WithdrawFailed","inputs":[]},{"type":"error","name":"ZeroAddress","inputs":[]}],"bytecode":{"object":"0x608060405234801561000f575f5ffd5b506040516117923803806117928339818101604052810190610031919061032e565b600161004f61004461010c60201b60201c565b61013560201b60201c565b5f01819055505f73ffffffffffffffffffffffffffffffffffffffff168273ffffffffffffffffffffffffffffffffffffffff16036100ba576040517fd92e233d00000000000000000000000000000000000000000000000000000000815260040160405180910390fd5b6100cc5f5f1b8361013e60201b60201c565b506100fd7fe1dcbdb91df27212a29bc27177c840cf2f819ecf2187432e1fac86c2dd5dfca98361013e60201b60201c565b5080600181905550505061036c565b5f7f9b779b17422d0df92223018b32b4d1fa46e071723d6817e2486d003becc55f005f1b905090565b5f819050919050565b5f61014f838361023360201b60201c565b6102295760015f5f8581526020019081526020015f205f015f8473ffffffffffffffffffffffffffffffffffffffff1673ffffffffffffffffffffffffffffffffffffffff1681526020019081526020015f205f6101000a81548160ff0219169083151502179055506101c661029660201b60201c565b73ffffffffffffffffffffffffffffffffffffffff168273ffffffffffffffffffffffffffffffffffffffff16847f2f8788117e7eff1d82e926ec794901d17c78024a50270940304540a733656f0d60405160405180910390a46001905061022d565b5f90505b92915050565b5f5f5f8481526020019081526020015f205f015f8373ffffffffffffffffffffffffffffffffffffffff1673ffffffffffffffffffffffffffffffffffffffff1681526020019081526020015f205f9054906101000a900460ff16905092915050565b5f33905090565b5f5ffd5b5f73ffffffffffffffffffffffffffffffffffffffff82169050919050565b5f6102ca826102a1565b9050919050565b6102da816102c0565b81146102e4575f5ffd5b50565b5f815190506102f5816102d1565b92915050565b5f819050919050565b61030d816102fb565b8114610317575f5ffd5b50565b5f8151905061032881610304565b92915050565b5f5f604083850312156103445761034361029d565b5b5f610351858286016102e7565b92505060206103628582860161031a565b9150509250929050565b611419806103795f395ff3fe60806040526004361061010c575f3560e01c806381ef77d311610094578063a217fddf11610063578063a217fddf146103ca578063a3c2c462146103f4578063d11a57ec1461041e578063d547741f14610448578063f3fef3a3146104705761014c565b806381ef77d31461031e5780638b7afe2e1461032857806391d1485414610352578063a0f243b81461038e5761014c565b806330654e13116100db57806330654e131461021857806336568abe146102425780634596ce201461026a5780636283aa4e146102a6578063742fe0d4146102e25761014c565b806301ffc9a714610150578063248a9ca31461018c5780632a958179146101c85780632f2ff15d146101f05761014c565b3661014c576040517f08c379a000000000000000000000000000000000000000000000000000000000815260040161014390610fd0565b60405180910390fd5b5f5ffd5b34801561015b575f5ffd5b5061017660048036038101906101719190611047565b610498565b604051610183919061108c565b60405180910390f35b348015610197575f5ffd5b506101b260048036038101906101ad91906110d8565b610511565b6040516101bf9190611112565b60405180910390f35b3480156101d3575f5ffd5b506101ee60048036038101906101e9919061115e565b61052d565b005b3480156101fb575f5ffd5b50610216600480360381019061021191906111e3565b610596565b005b348015610223575f5ffd5b5061022c6105b8565b6040516102399190611230565b60405180910390f35b34801561024d575f5ffd5b50610268600480360381019061026391906111e3565b6105be565b005b348015610275575f5ffd5b50610290600480360381019061028b9190611249565b610639565b60405161029d9190611230565b60405180910390f35b3480156102b1575f5ffd5b506102cc60048036038101906102c79190611249565b61064e565b6040516102d9919061108c565b60405180910390f35b3480156102ed575f5ffd5b5061030860048036038101906103039190611249565b61066b565b604051610315919061108c565b60405180910390f35b6103266106bd565b005b348015610333575f5ffd5b5061033c61092d565b6040516103499190611230565b60405180910390f35b34801561035d575f5ffd5b50610378600480360381019061037391906111e3565b610934565b604051610385919061108c565b60405180910390f35b348015610399575f5ffd5b506103b460048036038101906103af9190611249565b610997565b6040516103c19190611230565b60405180910390f35b3480156103d5575f5ffd5b506103de6109ac565b6040516103eb9190611112565b60405180910390f35b3480156103ff575f5ffd5b506104086109b2565b6040516104159190611230565b60405180910390f35b348015610429575f5ffd5b506104326109b8565b60405161043f9190611112565b60405180910390f35b348015610453575f5ffd5b5061046e600480360381019061046991906111e3565b6109dc565b005b34801561047b575f5ffd5b5061049660048036038101906104919190611274565b6109fe565b005b5f7f7965db0b000000000000000000000000000000000000000000000000000000007bffffffffffffffffffffffffffffffffffffffffffffffffffffffff1916827bffffffffffffffffffffffffffffffffffffffffffffffffffffffff1916148061050a575061050982610c04565b5b9050919050565b5f5f5f8381526020019081526020015f20600101549050919050565b5f5f1b61053981610c6d565b3373ffffffffffffffffffffffffffffffffffffffff167f01196859b7a4396b11996ce01f729fb357f09561ffacc7c694d3887d537512bb600154846040516105839291906112b2565b60405180910390a2816001819055505050565b61059f82610511565b6105a881610c6d565b6105b28383610c81565b50505050565b60015481565b6105c6610d6a565b73ffffffffffffffffffffffffffffffffffffffff168173ffffffffffffffffffffffffffffffffffffffff161461062a576040517f6697b23200000000000000000000000000000000000000000000000000000000815260040160405180910390fd5b6106348282610d71565b505050565b6003602052805f5260405f205f915090505481565b6002602052805f5260405f205f915054906101000a900460ff1681565b5f60025f8373ffffffffffffffffffffffffffffffffffffffff1673ffffffffffffffffffffffffffffffffffffffff1681526020019081526020015f205f9054906101000a900460ff169050919050565b6106c5610e5a565b60015434101561071057346001546040517fb99e2ab70000000000000000000000000000000000000000000000000000000081526004016107079291906112b2565b60405180910390fd5b600160025f3373ffffffffffffffffffffffffffffffffffffffff1673ffffffffffffffffffffffffffffffffffffffff1681526020019081526020015f205f6101000a81548160ff0219169083151502179055504260035f3373ffffffffffffffffffffffffffffffffffffffff1673ffffffffffffffffffffffffffffffffffffffff1681526020019081526020015f208190555060015460045f3373ffffffffffffffffffffffffffffffffffffffff1673ffffffffffffffffffffffffffffffffffffffff1681526020019081526020015f205f8282546107f59190611306565b9250508190555060015460055f82825461080f9190611306565b925050819055503373ffffffffffffffffffffffffffffffffffffffff167fbc9b2d27a2818f1a1bd296d73ae827d1c9019b00fe177365df70ba0a3faab28e600154426040516108609291906112b2565b60405180910390a25f600154346108779190611339565b90505f811115610922575f3373ffffffffffffffffffffffffffffffffffffffff16826040516108a690611399565b5f6040518083038185875af1925050503d805f81146108e0576040519150601f19603f3d011682016040523d82523d5f602084013e6108e5565b606091505b5050905080610920576040517f750b219c00000000000000000000000000000000000000000000000000000000815260040160405180910390fd5b505b5061092b610e7c565b565b5f47905090565b5f5f5f8481526020019081526020015f205f015f8373ffffffffffffffffffffffffffffffffffffffff1673ffffffffffffffffffffffffffffffffffffffff1681526020019081526020015f205f9054906101000a900460ff16905092915050565b6004602052805f5260405f205f915090505481565b5f5f1b81565b60055481565b7fe1dcbdb91df27212a29bc27177c840cf2f819ecf2187432e1fac86c2dd5dfca981565b6109e582610511565b6109ee81610c6d565b6109f88383610d71565b50505050565b7fe1dcbdb91df27212a29bc27177c840cf2f819ecf2187432e1fac86c2dd5dfca9610a2881610c6d565b610a30610e5a565b5f73ffffffffffffffffffffffffffffffffffffffff168373ffffffffffffffffffffffffffffffffffffffff1603610a95576040517fd92e233d00000000000000000000000000000000000000000000000000000000815260040160405180910390fd5b5f4790505f8103610ad2576040517fd0d04f6000000000000000000000000000000000000000000000000000000000815260040160405180910390fd5b5f5f8414610ae05783610ae2565b815b905081811115610af0578190505b5f8573ffffffffffffffffffffffffffffffffffffffff1682604051610b1590611399565b5f6040518083038185875af1925050503d805f8114610b4f576040519150601f19603f3d011682016040523d82523d5f602084013e610b54565b606091505b5050905080610b8f576040517f750b219c00000000000000000000000000000000000000000000000000000000815260040160405180910390fd5b3373ffffffffffffffffffffffffffffffffffffffff168673ffffffffffffffffffffffffffffffffffffffff167fe9171aeff46c37ab955b8aff908e14ae9732bd06634fa131226cfe5c25bfd2fb84604051610bec9190611230565b60405180910390a3505050610bff610e7c565b505050565b5f7f01ffc9a7000000000000000000000000000000000000000000000000000000007bffffffffffffffffffffffffffffffffffffffffffffffffffffffff1916827bffffffffffffffffffffffffffffffffffffffffffffffffffffffff1916149050919050565b610c7e81610c79610d6a565b610e96565b50565b5f610c8c8383610934565b610d605760015f5f8581526020019081526020015f205f015f8473ffffffffffffffffffffffffffffffffffffffff1673ffffffffffffffffffffffffffffffffffffffff1681526020019081526020015f205f6101000a81548160ff021916908315150217905550610cfd610d6a565b73ffffffffffffffffffffffffffffffffffffffff168273ffffffffffffffffffffffffffffffffffffffff16847f2f8788117e7eff1d82e926ec794901d17c78024a50270940304540a733656f0d60405160405180910390a460019050610d64565b5f90505b92915050565b5f33905090565b5f610d7c8383610934565b15610e50575f5f5f8581526020019081526020015f205f015f8473ffffffffffffffffffffffffffffffffffffffff1673ffffffffffffffffffffffffffffffffffffffff1681526020019081526020015f205f6101000a81548160ff021916908315150217905550610ded610d6a565b73ffffffffffffffffffffffffffffffffffffffff168273ffffffffffffffffffffffffffffffffffffffff16847ff6391f5c32d9c69d2a47ea670b442974b53935d1edc7fd64eb21e047a839171b60405160405180910390a460019050610e54565b5f90505b92915050565b610e62610ee7565b6002610e74610e6f610f28565b610f51565b5f0181905550565b6001610e8e610e89610f28565b610f51565b5f0181905550565b610ea08282610934565b610ee35780826040517fe2517d3f000000000000000000000000000000000000000000000000000000008152600401610eda9291906113bc565b60405180910390fd5b5050565b610eef610f5a565b15610f26576040517f3ee5aeb500000000000000000000000000000000000000000000000000000000815260040160405180910390fd5b565b5f7f9b779b17422d0df92223018b32b4d1fa46e071723d6817e2486d003becc55f005f1b905090565b5f819050919050565b5f6002610f6d610f68610f28565b610f51565b5f015414905090565b5f82825260208201905092915050565b7f5573652070757263686173655072656d69756d282900000000000000000000005f82015250565b5f610fba601583610f76565b9150610fc582610f86565b602082019050919050565b5f6020820190508181035f830152610fe781610fae565b9050919050565b5f5ffd5b5f7fffffffff0000000000000000000000000000000000000000000000000000000082169050919050565b61102681610ff2565b8114611030575f5ffd5b50565b5f813590506110418161101d565b92915050565b5f6020828403121561105c5761105b610fee565b5b5f61106984828501611033565b91505092915050565b5f8115159050919050565b61108681611072565b82525050565b5f60208201905061109f5f83018461107d565b92915050565b5f819050919050565b6110b7816110a5565b81146110c1575f5ffd5b50565b5f813590506110d2816110ae565b92915050565b5f602082840312156110ed576110ec610fee565b5b5f6110fa848285016110c4565b91505092915050565b61110c816110a5565b82525050565b5f6020820190506111255f830184611103565b92915050565b5f819050919050565b61113d8161112b565b8114611147575f5ffd5b50565b5f8135905061115881611134565b92915050565b5f6020828403121561117357611172610fee565b5b5f6111808482850161114a565b91505092915050565b5f73ffffffffffffffffffffffffffffffffffffffff82169050919050565b5f6111b282611189565b9050919050565b6111c2816111a8565b81146111cc575f5ffd5b50565b5f813590506111dd816111b9565b92915050565b5f5f604083850312156111f9576111f8610fee565b5b5f611206858286016110c4565b9250506020611217858286016111cf565b9150509250929050565b61122a8161112b565b82525050565b5f6020820190506112435f830184611221565b92915050565b5f6020828403121561125e5761125d610fee565b5b5f61126b848285016111cf565b91505092915050565b5f5f6040838503121561128a57611289610fee565b5b5f611297858286016111cf565b92505060206112a88582860161114a565b9150509250929050565b5f6040820190506112c55f830185611221565b6112d26020830184611221565b9392505050565b7f4e487b71000000000000000000000000000000000000000000000000000000005f52601160045260245ffd5b5f6113108261112b565b915061131b8361112b565b9250828201905080821115611333576113326112d9565b5b92915050565b5f6113438261112b565b915061134e8361112b565b9250828203905081811115611366576113656112d9565b5b92915050565b5f81905092915050565b50565b5f6113845f8361136c565b915061138f82611376565b5f82019050919050565b5f6113a382611379565b9150819050919050565b6113b6816111a8565b82525050565b5f6040820190506113cf5f8301856113ad565b6113dc6020830184611103565b939250505056fea2646970667358221220be64d98731281ee26aca9aa731284e7a0b7a59fa74a8af17d763ed985807eac964736f6c63430008210033","linkReferences":{}},"methodIdentifiers":{"DEFAULT_ADMIN_ROLE()":"a217fddf","TREASURY_ROLE()":"d11a57ec","contractBalance()":"8b7afe2e","getRoleAdmin(bytes32)":"248a9ca3","grantRole(bytes32,address)":"2f2ff15d","hasPremium(address)":"6283aa4e","hasRole(bytes32,address)":"91d14854","isPremium(address)":"742fe0d4","premiumPrice()":"30654e13","premiumSince(address)":"4596ce20","purchasePremium()":"81ef77d3","renounceRole(bytes32,address)":"36568abe","revokeRole(bytes32,address)":"d547741f","setPremiumPrice(uint256)":"2a958179","supportsInterface(bytes4)":"01ffc9a7","totalContributed(address)":"a0f243b8","totalReceived()":"a3c2c462","withdraw(address,uint256)":"f3fef3a3"},"id":50}