{"abi":[{"type":"constructor","inputs":[{"name":"xerToken","type":"address","internalType":"address"},{"name":"premiumAccess","type":"address","internalType":"address"},{"name":"nftContract","type":"address","internalType":"address"},{"name":"registry","type":"address","internalType":"address"},{"name":"swapRouter","type":"address","internalType":"address"},{"name":"adminWallet","type":"address","internalType":"address"},{"name":"admin","type":"address","internalType":"address"}],"stateMutability":"nonpayable"},{"type":"receive","stateMutability":"payable"},{"type":"function","name":"ADMIN_WALLET","inputs":[],"outputs":[{"name":"","type":"address","internalType":"address"}],"stateMutability":"view"},{"type":"function","name":"BPS_DENOMINATOR","inputs":[],"outputs":[{"name":"","type":"uint256","internalType":"uint256"}],"stateMutability":"view"},{"type":"function","name":"DEFAULT_ADMIN_ROLE","inputs":[],"outputs":[{"name":"","type":"bytes32","internalType":"bytes32"}],"stateMutability":"view"},{"type":"function","name":"NFT","inputs":[],"outputs":[{"name":"","type":"address","internalType":"contract IFacinationsNFT"}],"stateMutability":"view"},{"type":"function","name":"OPERATOR_ROLE","inputs":[],"outputs":[{"name":"","type":"bytes32","internalType":"bytes32"}],"stateMutability":"view"},{"type":"function","name":"PREMIUM_ACCESS","inputs":[],"outputs":[{"name":"","type":"address","internalType":"contract IPremiumAccess"}],"stateMutability":"view"},{"type":"function","name":"REGISTRY","inputs":[],"outputs":[{"name":"","type":"address","internalType":"contract IVaultRegistry"}],"stateMutability":"view"},{"type":"function","name":"SWAP_FEE_BPS","inputs":[],"outputs":[{"name":"","type":"uint256","internalType":"uint256"}],"stateMutability":"view"},{"type":"function","name":"SWAP_ROUTER","inputs":[],"outputs":[{"name":"","type":"address","internalType":"contract ISwapRouter"}],"stateMutability":"view"},{"type":"function","name":"XER","inputs":[],"outputs":[{"name":"","type":"address","internalType":"contract IERC20Ext"}],"stateMutability":"view"},{"type":"function","name":"getRoleAdmin","inputs":[{"name":"role","type":"bytes32","internalType":"bytes32"}],"outputs":[{"name":"","type":"bytes32","internalType":"bytes32"}],"stateMutability":"view"},{"type":"function","name":"grantRole","inputs":[{"name":"role","type":"bytes32","internalType":"bytes32"},{"name":"account","type":"address","internalType":"address"}],"outputs":[],"stateMutability":"nonpayable"},{"type":"function","name":"hasRole","inputs":[{"name":"role","type":"bytes32","internalType":"bytes32"},{"name":"account","type":"address","internalType":"address"}],"outputs":[{"name":"","type":"bool","internalType":"bool"}],"stateMutability":"view"},{"type":"function","name":"mintVault","inputs":[{"name":"vaultId","type":"string","internalType":"string"},{"name":"tokenURI","type":"string","internalType":"string"},{"name":"legalURI","type":"string","internalType":"string"}],"outputs":[{"name":"tokenId","type":"uint256","internalType":"uint256"}],"stateMutability":"nonpayable"},{"type":"function","name":"renounceRole","inputs":[{"name":"role","type":"bytes32","internalType":"bytes32"},{"name":"callerConfirmation","type":"address","internalType":"address"}],"outputs":[],"stateMutability":"nonpayable"},{"type":"function","name":"revokeRole","inputs":[{"name":"role","type":"bytes32","internalType":"bytes32"},{"name":"account","type":"address","internalType":"address"}],"outputs":[],"stateMutability":"nonpayable"},{"type":"function","name":"supportsInterface","inputs":[{"name":"interfaceId","type":"bytes4","internalType":"bytes4"}],"outputs":[{"name":"","type":"bool","internalType":"bool"}],"stateMutability":"view"},{"type":"function","name":"swap","inputs":[{"name":"tokenOut","type":"address","internalType":"address"},{"name":"amountIn","type":"uint256","internalType":"uint256"},{"name":"amountOutMin","type":"uint256","internalType":"uint256"},{"name":"poolFee","type":"uint24","internalType":"uint24"},{"name":"deadline","type":"uint256","internalType":"uint256"}],"outputs":[{"name":"amountOut","type":"uint256","internalType":"uint256"}],"stateMutability":"nonpayable"},{"type":"function","name":"withdrawToken","inputs":[{"name":"token","type":"address","internalType":"address"},{"name":"to","type":"address","internalType":"address"},{"name":"amount","type":"uint256","internalType":"uint256"}],"outputs":[],"stateMutability":"nonpayable"},{"type":"event","name":"FeeWithdrawn","inputs":[{"name":"to","type":"address","indexed":true,"internalType":"address"},{"name":"token","type":"address","indexed":true,"internalType":"address"},{"name":"amount","type":"uint256","indexed":false,"internalType":"uint256"},{"name":"timestamp","type":"uint256","indexed":false,"internalType":"uint256"}],"anonymous":false},{"type":"event","name":"RoleAdminChanged","inputs":[{"name":"role","type":"bytes32","indexed":true,"internalType":"bytes32"},{"name":"previousAdminRole","type":"bytes32","indexed":true,"internalType":"bytes32"},{"name":"newAdminRole","type":"bytes32","indexed":true,"internalType":"bytes32"}],"anonymous":false},{"type":"event","name":"RoleGranted","inputs":[{"name":"role","type":"bytes32","indexed":true,"internalType":"bytes32"},{"name":"account","type":"address","indexed":true,"internalType":"address"},{"name":"sender","type":"address","indexed":true,"internalType":"address"}],"anonymous":false},{"type":"event","name":"RoleRevoked","inputs":[{"name":"role","type":"bytes32","indexed":true,"internalType":"bytes32"},{"name":"account","type":"address","indexed":true,"internalType":"address"},{"name":"sender","type":"address","indexed":true,"internalType":"address"}],"anonymous":false},{"type":"event","name":"SwapExecuted","inputs":[{"name":"user","type":"address","indexed":true,"internalType":"address"},{"name":"tokenOut","type":"address","indexed":true,"internalType":"address"},{"name":"amountIn","type":"uint256","indexed":false,"internalType":"uint256"},{"name":"feePaid","type":"uint256","indexed":false,"internalType":"uint256"},{"name":"amountOut","type":"uint256","indexed":false,"internalType":"uint256"},{"name":"timestamp","type":"uint256","indexed":false,"internalType":"uint256"}],"anonymous":false},{"type":"event","name":"VaultMinted","inputs":[{"name":"user","type":"address","indexed":true,"internalType":"address"},{"name":"tokenId","type":"uint256","indexed":true,"internalType":"uint256"},{"name":"vaultId","type":"string","indexed":false,"internalType":"string"},{"name":"tokenURI","type":"string","indexed":false,"internalType":"string"},{"name":"legalURI","type":"string","indexed":false,"internalType":"string"},{"name":"timestamp","type":"uint256","indexed":false,"internalType":"uint256"}],"anonymous":false},{"type":"error","name":"AccessControlBadConfirmation","inputs":[]},{"type":"error","name":"AccessControlUnauthorizedAccount","inputs":[{"name":"account","type":"address","internalType":"address"},{"name":"neededRole","type":"bytes32","internalType":"bytes32"}]},{"type":"error","name":"PremiumRequired","inputs":[]},{"type":"error","name":"ReentrancyGuardReentrantCall","inputs":[]},{"type":"error","name":"TransferFailed","inputs":[]},{"type":"error","name":"ZeroAddress","inputs":[]},{"type":"error","name":"ZeroAmount","inputs":[]}],"bytecode":{"object":"0x610140604052348015610010575f5ffd5b5060405161280138038061280183398181016040528101906100329190610692565b60016100506100456104a360201b60201c565b6104cc60201b60201c565b5f01819055505f73ffffffffffffffffffffffffffffffffffffffff168773ffffffffffffffffffffffffffffffffffffffff16036100bb576040517fd92e233d00000000000000000000000000000000000000000000000000000000815260040160405180910390fd5b5f73ffffffffffffffffffffffffffffffffffffffff168673ffffffffffffffffffffffffffffffffffffffff1603610120576040517fd92e233d00000000000000000000000000000000000000000000000000000000815260040160405180910390fd5b5f73ffffffffffffffffffffffffffffffffffffffff168573ffffffffffffffffffffffffffffffffffffffff1603610185576040517fd92e233d00000000000000000000000000000000000000000000000000000000815260040160405180910390fd5b5f73ffffffffffffffffffffffffffffffffffffffff168473ffffffffffffffffffffffffffffffffffffffff16036101ea576040517fd92e233d00000000000000000000000000000000000000000000000000000000815260040160405180910390fd5b5f73ffffffffffffffffffffffffffffffffffffffff168373ffffffffffffffffffffffffffffffffffffffff160361024f576040517fd92e233d00000000000000000000000000000000000000000000000000000000815260040160405180910390fd5b5f73ffffffffffffffffffffffffffffffffffffffff168273ffffffffffffffffffffffffffffffffffffffff16036102b4576040517fd92e233d00000000000000000000000000000000000000000000000000000000815260040160405180910390fd5b5f73ffffffffffffffffffffffffffffffffffffffff168173ffffffffffffffffffffffffffffffffffffffff1603610319576040517fd92e233d00000000000000000000000000000000000000000000000000000000815260040160405180910390fd5b8673ffffffffffffffffffffffffffffffffffffffff1660808173ffffffffffffffffffffffffffffffffffffffff16815250508573ffffffffffffffffffffffffffffffffffffffff1660a08173ffffffffffffffffffffffffffffffffffffffff16815250508473ffffffffffffffffffffffffffffffffffffffff1660c08173ffffffffffffffffffffffffffffffffffffffff16815250508373ffffffffffffffffffffffffffffffffffffffff1660e08173ffffffffffffffffffffffffffffffffffffffff16815250508273ffffffffffffffffffffffffffffffffffffffff166101008173ffffffffffffffffffffffffffffffffffffffff16815250508173ffffffffffffffffffffffffffffffffffffffff166101208173ffffffffffffffffffffffffffffffffffffffff16815250506104655f5f1b826104d560201b60201c565b506104967f97667070c54ef182b0f5858b034beac1b6f3089aa2d3188bb1e8929f4fa9b929826104d560201b60201c565b505050505050505061072f565b5f7f9b779b17422d0df92223018b32b4d1fa46e071723d6817e2486d003becc55f005f1b905090565b5f819050919050565b5f6104e683836105ca60201b60201c565b6105c05760015f5f8581526020019081526020015f205f015f8473ffffffffffffffffffffffffffffffffffffffff1673ffffffffffffffffffffffffffffffffffffffff1681526020019081526020015f205f6101000a81548160ff02191690831515021790555061055d61062d60201b60201c565b73ffffffffffffffffffffffffffffffffffffffff168273ffffffffffffffffffffffffffffffffffffffff16847f2f8788117e7eff1d82e926ec794901d17c78024a50270940304540a733656f0d60405160405180910390a4600190506105c4565b5f90505b92915050565b5f5f5f8481526020019081526020015f205f015f8373ffffffffffffffffffffffffffffffffffffffff1673ffffffffffffffffffffffffffffffffffffffff1681526020019081526020015f205f9054906101000a900460ff16905092915050565b5f33905090565b5f5ffd5b5f73ffffffffffffffffffffffffffffffffffffffff82169050919050565b5f61066182610638565b9050919050565b61067181610657565b811461067b575f5ffd5b50565b5f8151905061068c81610668565b92915050565b5f5f5f5f5f5f5f60e0888a0312156106ad576106ac610634565b5b5f6106ba8a828b0161067e565b97505060206106cb8a828b0161067e565b96505060406106dc8a828b0161067e565b95505060606106ed8a828b0161067e565b94505060806106fe8a828b0161067e565b93505060a061070f8a828b0161067e565b92505060c06107208a828b0161067e565b91505092959891949750929550565b60805160a05160c05160e05161010051610120516120376107ca5f395f8181610a96015261111f01525f8181610b8701528181610c07015261114301525f81816106e50152610f5101525f8181610eb201528181610f90015261106e01525f81816107e701528181610ddc01526110f501525f81816107c20152818161095b01528181610a5a01528181610b4b0152610c4f01526120375ff3fe608060405260043610610117575f3560e01c80636e30a7fd1161009f578063c2cd4a0711610063578063c2cd4a07146103fb578063c600589314610425578063d547741f1461044f578063e1a4521814610477578063f5b541a6146104a157610157565b80636e30a7fd146103055780637c0b8de21461034157806391d148541461036b5780639b3319de146103a7578063a217fddf146103d157610157565b80632f2ff15d116100e65780632f2ff15d1461022557806336568abe1461024d578063449d55fe1461027557806357197c861461029f57806367a6c440146102db57610157565b806301e336671461015b57806301ffc9a71461018357806306433b1b146101bf578063248a9ca3146101e957610157565b36610157576040517f08c379a000000000000000000000000000000000000000000000000000000000815260040161014e9061157d565b60405180910390fd5b5f5ffd5b348015610166575f5ffd5b50610181600480360381019061017c9190611630565b6104cb565b005b34801561018e575f5ffd5b506101a960048036038101906101a491906116d5565b61066a565b6040516101b6919061171a565b60405180910390f35b3480156101ca575f5ffd5b506101d36106e3565b6040516101e0919061178e565b60405180910390f35b3480156101f4575f5ffd5b5061020f600480360381019061020a91906117da565b610707565b60405161021c9190611814565b60405180910390f35b348015610230575f5ffd5b5061024b6004803603810190610246919061182d565b610723565b005b348015610258575f5ffd5b50610273600480360381019061026e919061182d565b610745565b005b348015610280575f5ffd5b506102896107c0565b604051610296919061188b565b60405180910390f35b3480156102aa575f5ffd5b506102c560048036038101906102c091906118dc565b6107e4565b6040516102d29190611962565b60405180910390f35b3480156102e6575f5ffd5b506102ef610dd4565b6040516102fc9190611962565b60405180910390f35b348015610310575f5ffd5b5061032b600480360381019061032691906119dc565b610dd9565b6040516103389190611962565b60405180910390f35b34801561034c575f5ffd5b5061035561106c565b6040516103629190611aac565b60405180910390f35b348015610376575f5ffd5b50610391600480360381019061038c919061182d565b611090565b60405161039e919061171a565b60405180910390f35b3480156103b2575f5ffd5b506103bb6110f3565b6040516103c89190611ae5565b60405180910390f35b3480156103dc575f5ffd5b506103e5611117565b6040516103f29190611814565b60405180910390f35b348015610406575f5ffd5b5061040f61111d565b60405161041c9190611b0d565b60405180910390f35b348015610430575f5ffd5b50610439611141565b6040516104469190611b46565b60405180910390f35b34801561045a575f5ffd5b506104756004803603810190610470919061182d565b611165565b005b348015610482575f5ffd5b5061048b611187565b6040516104989190611962565b60405180910390f35b3480156104ac575f5ffd5b506104b561118d565b6040516104c29190611814565b60405180910390f35b5f5f1b6104d7816111b1565b6104df6111c5565b5f73ffffffffffffffffffffffffffffffffffffffff168373ffffffffffffffffffffffffffffffffffffffff1603610544576040517fd92e233d00000000000000000000000000000000000000000000000000000000815260040160405180910390fd5b8373ffffffffffffffffffffffffffffffffffffffff1663a9059cbb84846040518363ffffffff1660e01b815260040161057f929190611b5f565b6020604051808303815f875af115801561059b573d5f5f3e3d5ffd5b505050506040513d601f19601f820116820180604052508101906105bf9190611bb0565b6105f5576040517f90b8ec1800000000000000000000000000000000000000000000000000000000815260040160405180910390fd5b8373ffffffffffffffffffffffffffffffffffffffff168373ffffffffffffffffffffffffffffffffffffffff167f6ce49f8691a80db5eb4f60cd55b14640529346a7ddf9bf8f77a423fa6a10bfdb8442604051610654929190611bdb565b60405180910390a36106646111e7565b50505050565b5f7f7965db0b000000000000000000000000000000000000000000000000000000007bffffffffffffffffffffffffffffffffffffffffffffffffffffffff1916827bffffffffffffffffffffffffffffffffffffffffffffffffffffffff191614806106dc57506106db82611201565b5b9050919050565b7f000000000000000000000000000000000000000000000000000000000000000081565b5f5f5f8381526020019081526020015f20600101549050919050565b61072c82610707565b610735816111b1565b61073f838361126a565b50505050565b61074d611353565b73ffffffffffffffffffffffffffffffffffffffff168173ffffffffffffffffffffffffffffffffffffffff16146107b1576040517f6697b23200000000000000000000000000000000000000000000000000000000815260040160405180910390fd5b6107bb828261135a565b505050565b7f000000000000000000000000000000000000000000000000000000000000000081565b5f7f000000000000000000000000000000000000000000000000000000000000000073ffffffffffffffffffffffffffffffffffffffff16636283aa4e336040518263ffffffff1660e01b815260040161083e9190611b0d565b602060405180830381865afa158015610859573d5f5f3e3d5ffd5b505050506040513d601f19601f8201168201806040525081019061087d9190611bb0565b6108b3576040517f7e1e0e5b00000000000000000000000000000000000000000000000000000000815260040160405180910390fd5b6108bb6111c5565b5f85036108f4576040517f1f2a200500000000000000000000000000000000000000000000000000000000815260040160405180910390fd5b5f73ffffffffffffffffffffffffffffffffffffffff168673ffffffffffffffffffffffffffffffffffffffff1603610959576040517fd92e233d00000000000000000000000000000000000000000000000000000000815260040160405180910390fd5b7f000000000000000000000000000000000000000000000000000000000000000073ffffffffffffffffffffffffffffffffffffffff166323b872dd3330886040518463ffffffff1660e01b81526004016109b693929190611c02565b6020604051808303815f875af11580156109d2573d5f5f3e3d5ffd5b505050506040513d601f19601f820116820180604052508101906109f69190611bb0565b610a2c576040517f90b8ec1800000000000000000000000000000000000000000000000000000000815260040160405180910390fd5b5f612710600a87610a3d9190611c64565b610a479190611cd2565b90505f8187610a569190611d02565b90507f000000000000000000000000000000000000000000000000000000000000000073ffffffffffffffffffffffffffffffffffffffff1663a9059cbb7f0000000000000000000000000000000000000000000000000000000000000000846040518363ffffffff1660e01b8152600401610ad3929190611b5f565b6020604051808303815f875af1158015610aef573d5f5f3e3d5ffd5b505050506040513d601f19601f82011682018060405250810190610b139190611bb0565b610b49576040517f90b8ec1800000000000000000000000000000000000000000000000000000000815260040160405180910390fd5b7f000000000000000000000000000000000000000000000000000000000000000073ffffffffffffffffffffffffffffffffffffffff1663095ea7b37f0000000000000000000000000000000000000000000000000000000000000000836040518363ffffffff1660e01b8152600401610bc4929190611b5f565b6020604051808303815f875af1158015610be0573d5f5f3e3d5ffd5b505050506040513d601f19601f82011682018060405250810190610c049190611bb0565b507f000000000000000000000000000000000000000000000000000000000000000073ffffffffffffffffffffffffffffffffffffffff1663414bf3896040518061010001604052807f000000000000000000000000000000000000000000000000000000000000000073ffffffffffffffffffffffffffffffffffffffff1681526020018b73ffffffffffffffffffffffffffffffffffffffff1681526020018862ffffff1681526020013373ffffffffffffffffffffffffffffffffffffffff1681526020018781526020018481526020018981526020015f73ffffffffffffffffffffffffffffffffffffffff168152506040518263ffffffff1660e01b8152600401610d149190611e11565b6020604051808303815f875af1158015610d30573d5f5f3e3d5ffd5b505050506040513d601f19601f82011682018060405250810190610d549190611e3f565b92508773ffffffffffffffffffffffffffffffffffffffff163373ffffffffffffffffffffffffffffffffffffffff167f2922638cab0d1b5985f7105ff5c07253fb92cb6ce049948e3f7937f5a29db0ac89858742604051610db99493929190611e6a565b60405180910390a35050610dcb6111e7565b95945050505050565b600a81565b5f7f000000000000000000000000000000000000000000000000000000000000000073ffffffffffffffffffffffffffffffffffffffff16636283aa4e336040518263ffffffff1660e01b8152600401610e339190611b0d565b602060405180830381865afa158015610e4e573d5f5f3e3d5ffd5b505050506040513d601f19601f82011682018060405250810190610e729190611bb0565b610ea8576040517f7e1e0e5b00000000000000000000000000000000000000000000000000000000815260040160405180910390fd5b610eb06111c5565b7f000000000000000000000000000000000000000000000000000000000000000073ffffffffffffffffffffffffffffffffffffffff1663d0def5213387876040518463ffffffff1660e01b8152600401610f0d93929190611ef7565b6020604051808303815f875af1158015610f29573d5f5f3e3d5ffd5b505050506040513d601f19601f82011682018060405250810190610f4d9190611e3f565b90507f000000000000000000000000000000000000000000000000000000000000000073ffffffffffffffffffffffffffffffffffffffff16630e6dee408888847f000000000000000000000000000000000000000000000000000000000000000088886040518763ffffffff1660e01b8152600401610fd296959493929190611f27565b5f604051808303815f87803b158015610fe9575f5ffd5b505af1158015610ffb573d5f5f3e3d5ffd5b50505050803373ffffffffffffffffffffffffffffffffffffffff167fd431d9c0e0c65696ecca45e3b80dacaaf8fda26e6eed77563e12b80b95ed5eeb898989898989426040516110529796959493929190611f7c565b60405180910390a36110626111e7565b9695505050505050565b7f000000000000000000000000000000000000000000000000000000000000000081565b5f5f5f8481526020019081526020015f205f015f8373ffffffffffffffffffffffffffffffffffffffff1673ffffffffffffffffffffffffffffffffffffffff1681526020019081526020015f205f9054906101000a900460ff16905092915050565b7f000000000000000000000000000000000000000000000000000000000000000081565b5f5f1b81565b7f000000000000000000000000000000000000000000000000000000000000000081565b7f000000000000000000000000000000000000000000000000000000000000000081565b61116e82610707565b611177816111b1565b611181838361135a565b50505050565b61271081565b7f97667070c54ef182b0f5858b034beac1b6f3089aa2d3188bb1e8929f4fa9b92981565b6111c2816111bd611353565b611443565b50565b6111cd611494565b60026111df6111da6114d5565b6114fe565b5f0181905550565b60016111f96111f46114d5565b6114fe565b5f0181905550565b5f7f01ffc9a7000000000000000000000000000000000000000000000000000000007bffffffffffffffffffffffffffffffffffffffffffffffffffffffff1916827bffffffffffffffffffffffffffffffffffffffffffffffffffffffff1916149050919050565b5f6112758383611090565b6113495760015f5f8581526020019081526020015f205f015f8473ffffffffffffffffffffffffffffffffffffffff1673ffffffffffffffffffffffffffffffffffffffff1681526020019081526020015f205f6101000a81548160ff0219169083151502179055506112e6611353565b73ffffffffffffffffffffffffffffffffffffffff168273ffffffffffffffffffffffffffffffffffffffff16847f2f8788117e7eff1d82e926ec794901d17c78024a50270940304540a733656f0d60405160405180910390a46001905061134d565b5f90505b92915050565b5f33905090565b5f6113658383611090565b15611439575f5f5f8581526020019081526020015f205f015f8473ffffffffffffffffffffffffffffffffffffffff1673ffffffffffffffffffffffffffffffffffffffff1681526020019081526020015f205f6101000a81548160ff0219169083151502179055506113d6611353565b73ffffffffffffffffffffffffffffffffffffffff168273ffffffffffffffffffffffffffffffffffffffff16847ff6391f5c32d9c69d2a47ea670b442974b53935d1edc7fd64eb21e047a839171b60405160405180910390a46001905061143d565b5f90505b92915050565b61144d8282611090565b6114905780826040517fe2517d3f000000000000000000000000000000000000000000000000000000008152600401611487929190611fda565b60405180910390fd5b5050565b61149c611507565b156114d3576040517f3ee5aeb500000000000000000000000000000000000000000000000000000000815260040160405180910390fd5b565b5f7f9b779b17422d0df92223018b32b4d1fa46e071723d6817e2486d003becc55f005f1b905090565b5f819050919050565b5f600261151a6115156114d5565b6114fe565b5f015414905090565b5f82825260208201905092915050565b7f4e6f2045544820616363657074656400000000000000000000000000000000005f82015250565b5f611567600f83611523565b915061157282611533565b602082019050919050565b5f6020820190508181035f8301526115948161155b565b9050919050565b5f5ffd5b5f5ffd5b5f73ffffffffffffffffffffffffffffffffffffffff82169050919050565b5f6115cc826115a3565b9050919050565b6115dc816115c2565b81146115e6575f5ffd5b50565b5f813590506115f7816115d3565b92915050565b5f819050919050565b61160f816115fd565b8114611619575f5ffd5b50565b5f8135905061162a81611606565b92915050565b5f5f5f606084860312156116475761164661159b565b5b5f611654868287016115e9565b9350506020611665868287016115e9565b92505060406116768682870161161c565b9150509250925092565b5f7fffffffff0000000000000000000000000000000000000000000000000000000082169050919050565b6116b481611680565b81146116be575f5ffd5b50565b5f813590506116cf816116ab565b92915050565b5f602082840312156116ea576116e961159b565b5b5f6116f7848285016116c1565b91505092915050565b5f8115159050919050565b61171481611700565b82525050565b5f60208201905061172d5f83018461170b565b92915050565b5f819050919050565b5f61175661175161174c846115a3565b611733565b6115a3565b9050919050565b5f6117678261173c565b9050919050565b5f6117788261175d565b9050919050565b6117888161176e565b82525050565b5f6020820190506117a15f83018461177f565b92915050565b5f819050919050565b6117b9816117a7565b81146117c3575f5ffd5b50565b5f813590506117d4816117b0565b92915050565b5f602082840312156117ef576117ee61159b565b5b5f6117fc848285016117c6565b91505092915050565b61180e816117a7565b82525050565b5f6020820190506118275f830184611805565b92915050565b5f5f604083850312156118435761184261159b565b5b5f611850858286016117c6565b9250506020611861858286016115e9565b9150509250929050565b5f6118758261175d565b9050919050565b6118858161186b565b82525050565b5f60208201905061189e5f83018461187c565b92915050565b5f62ffffff82169050919050565b6118bb816118a4565b81146118c5575f5ffd5b50565b5f813590506118d6816118b2565b92915050565b5f5f5f5f5f60a086880312156118f5576118f461159b565b5b5f611902888289016115e9565b95505060206119138882890161161c565b94505060406119248882890161161c565b9350506060611935888289016118c8565b92505060806119468882890161161c565b9150509295509295909350565b61195c816115fd565b82525050565b5f6020820190506119755f830184611953565b92915050565b5f5ffd5b5f5ffd5b5f5ffd5b5f5f83601f84011261199c5761199b61197b565b5b8235905067ffffffffffffffff8111156119b9576119b861197f565b5b6020830191508360018202830111156119d5576119d4611983565b5b9250929050565b5f5f5f5f5f5f606087890312156119f6576119f561159b565b5b5f87013567ffffffffffffffff811115611a1357611a1261159f565b5b611a1f89828a01611987565b9650965050602087013567ffffffffffffffff811115611a4257611a4161159f565b5b611a4e89828a01611987565b9450945050604087013567ffffffffffffffff811115611a7157611a7061159f565b5b611a7d89828a01611987565b92509250509295509295509295565b5f611a968261175d565b9050919050565b611aa681611a8c565b82525050565b5f602082019050611abf5f830184611a9d565b92915050565b5f611acf8261175d565b9050919050565b611adf81611ac5565b82525050565b5f602082019050611af85f830184611ad6565b92915050565b611b07816115c2565b82525050565b5f602082019050611b205f830184611afe565b92915050565b5f611b308261175d565b9050919050565b611b4081611b26565b82525050565b5f602082019050611b595f830184611b37565b92915050565b5f604082019050611b725f830185611afe565b611b7f6020830184611953565b9392505050565b611b8f81611700565b8114611b99575f5ffd5b50565b5f81519050611baa81611b86565b92915050565b5f60208284031215611bc557611bc461159b565b5b5f611bd284828501611b9c565b91505092915050565b5f604082019050611bee5f830185611953565b611bfb6020830184611953565b9392505050565b5f606082019050611c155f830186611afe565b611c226020830185611afe565b611c2f6040830184611953565b949350505050565b7f4e487b71000000000000000000000000000000000000000000000000000000005f52601160045260245ffd5b5f611c6e826115fd565b9150611c79836115fd565b9250828202611c87816115fd565b91508282048414831517611c9e57611c9d611c37565b5b5092915050565b7f4e487b71000000000000000000000000000000000000000000000000000000005f52601260045260245ffd5b5f611cdc826115fd565b9150611ce7836115fd565b925082611cf757611cf6611ca5565b5b828204905092915050565b5f611d0c826115fd565b9150611d17836115fd565b9250828203905081811115611d2f57611d2e611c37565b5b92915050565b611d3e816115c2565b82525050565b611d4d816118a4565b82525050565b611d5c816115fd565b82525050565b611d6b816115a3565b82525050565b61010082015f820151611d865f850182611d35565b506020820151611d996020850182611d35565b506040820151611dac6040850182611d44565b506060820151611dbf6060850182611d35565b506080820151611dd26080850182611d53565b5060a0820151611de560a0850182611d53565b5060c0820151611df860c0850182611d53565b5060e0820151611e0b60e0850182611d62565b50505050565b5f61010082019050611e255f830184611d71565b92915050565b5f81519050611e3981611606565b92915050565b5f60208284031215611e5457611e5361159b565b5b5f611e6184828501611e2b565b91505092915050565b5f608082019050611e7d5f830187611953565b611e8a6020830186611953565b611e976040830185611953565b611ea46060830184611953565b95945050505050565b828183375f83830152505050565b5f601f19601f8301169050919050565b5f611ed68385611523565b9350611ee3838584611ead565b611eec83611ebb565b840190509392505050565b5f604082019050611f0a5f830186611afe565b8181036020830152611f1d818486611ecb565b9050949350505050565b5f6080820190508181035f830152611f4081888a611ecb565b9050611f4f6020830187611953565b611f5c6040830186611afe565b8181036060830152611f6f818486611ecb565b9050979650505050505050565b5f6080820190508181035f830152611f9581898b611ecb565b90508181036020830152611faa818789611ecb565b90508181036040830152611fbf818587611ecb565b9050611fce6060830184611953565b98975050505050505050565b5f604082019050611fed5f830185611afe565b611ffa6020830184611805565b939250505056fea26469706673582212207b075c367e2960015092b633385b08982d1e27b01bdcd2fdf8ebd1af2811f5bf64736f6c63430008210033","linkReferences":{}},"methodIdentifiers":{"ADMIN_WALLET()":"c2cd4a07","BPS_DENOMINATOR()":"e1a45218","DEFAULT_ADMIN_ROLE()":"a217fddf","NFT()":"7c0b8de2","OPERATOR_ROLE()":"f5b541a6","PREMIUM_ACCESS()":"9b3319de","REGISTRY()":"06433b1b","SWAP_FEE_BPS()":"67a6c440","SWAP_ROUTER()":"c6005893","XER()":"449d55fe","getRoleAdmin(bytes32)":"248a9ca3","grantRole(bytes32,address)":"2f2ff15d","hasRole(bytes32,address)":"91d14854","mintVault(string,string,string)":"6e30a7fd","renounceRole(bytes32,address)":"36568abe","revokeRole(bytes32,address)":"d547741f","supportsInterface(bytes4)":"01ffc9a7","swap(address,uint256,uint256,uint24,uint256)":"57197c86","withdrawToken(address,address,uint256)":"01e33667"},"id":44}