{
  "_format": "hh-sol-artifact-1",
  "contractName": "FractionalVault",
  "sourceName": "contracts/FractionalVault.sol",
  "abi": [
    {
      "inputs": [
        {
          "internalType": "string",
          "name": "_vaultId",
          "type": "string"
        },
        {
          "internalType": "string",
          "name": "_uri",
          "type": "string"
        },
        {
          "internalType": "string",
          "name": "_legalURI",
          "type": "string"
        },
        {
          "internalType": "address",
          "name": "royaltyReceiver_",
          "type": "address"
        },
        {
          "internalType": "uint96",
          "name": "royaltyFee_",
          "type": "uint96"
        }
      ],
      "stateMutability": "nonpayable",
      "type": "constructor"
    },
    {
      "inputs": [
        {
          "internalType": "address",
          "name": "sender",
          "type": "address"
        },
        {
          "internalType": "uint256",
          "name": "balance",
          "type": "uint256"
        },
        {
          "internalType": "uint256",
          "name": "needed",
          "type": "uint256"
        },
        {
          "internalType": "uint256",
          "name": "tokenId",
          "type": "uint256"
        }
      ],
      "name": "ERC1155InsufficientBalance",
      "type": "error"
    },
    {
      "inputs": [
        {
          "internalType": "address",
          "name": "approver",
          "type": "address"
        }
      ],
      "name": "ERC1155InvalidApprover",
      "type": "error"
    },
    {
      "inputs": [
        {
          "internalType": "uint256",
          "name": "idsLength",
          "type": "uint256"
        },
        {
          "internalType": "uint256",
          "name": "valuesLength",
          "type": "uint256"
        }
      ],
      "name": "ERC1155InvalidArrayLength",
      "type": "error"
    },
    {
      "inputs": [
        {
          "internalType": "address",
          "name": "operator",
          "type": "address"
        }
      ],
      "name": "ERC1155InvalidOperator",
      "type": "error"
    },
    {
      "inputs": [
        {
          "internalType": "address",
          "name": "receiver",
          "type": "address"
        }
      ],
      "name": "ERC1155InvalidReceiver",
      "type": "error"
    },
    {
      "inputs": [
        {
          "internalType": "address",
          "name": "sender",
          "type": "address"
        }
      ],
      "name": "ERC1155InvalidSender",
      "type": "error"
    },
    {
      "inputs": [
        {
          "internalType": "address",
          "name": "operator",
          "type": "address"
        },
        {
          "internalType": "address",
          "name": "owner",
          "type": "address"
        }
      ],
      "name": "ERC1155MissingApprovalForAll",
      "type": "error"
    },
    {
      "inputs": [
        {
          "internalType": "address",
          "name": "owner",
          "type": "address"
        }
      ],
      "name": "OwnableInvalidOwner",
      "type": "error"
    },
    {
      "inputs": [
        {
          "internalType": "address",
          "name": "account",
          "type": "address"
        }
      ],
      "name": "OwnableUnauthorizedAccount",
      "type": "error"
    },
    {
      "anonymous": false,
      "inputs": [
        {
          "indexed": true,
          "internalType": "address",
          "name": "account",
          "type": "address"
        },
        {
          "indexed": true,
          "internalType": "address",
          "name": "operator",
          "type": "address"
        },
        {
          "indexed": false,
          "internalType": "bool",
          "name": "approved",
          "type": "bool"
        }
      ],
      "name": "ApprovalForAll",
      "type": "event"
    },
    {
      "anonymous": false,
      "inputs": [
        {
          "indexed": true,
          "internalType": "address",
          "name": "previousOwner",
          "type": "address"
        },
        {
          "indexed": true,
          "internalType": "address",
          "name": "newOwner",
          "type": "address"
        }
      ],
      "name": "OwnershipTransferred",
      "type": "event"
    },
    {
      "anonymous": false,
      "inputs": [
        {
          "indexed": true,
          "internalType": "address",
          "name": "operator",
          "type": "address"
        },
        {
          "indexed": true,
          "internalType": "address",
          "name": "from",
          "type": "address"
        },
        {
          "indexed": true,
          "internalType": "address",
          "name": "to",
          "type": "address"
        },
        {
          "indexed": false,
          "internalType": "uint256[]",
          "name": "ids",
          "type": "uint256[]"
        },
        {
          "indexed": false,
          "internalType": "uint256[]",
          "name": "values",
          "type": "uint256[]"
        }
      ],
      "name": "TransferBatch",
      "type": "event"
    },
    {
      "anonymous": false,
      "inputs": [
        {
          "indexed": true,
          "internalType": "address",
          "name": "operator",
          "type": "address"
        },
        {
          "indexed": true,
          "internalType": "address",
          "name": "from",
          "type": "address"
        },
        {
          "indexed": true,
          "internalType": "address",
          "name": "to",
          "type": "address"
        },
        {
          "indexed": false,
          "internalType": "uint256",
          "name": "id",
          "type": "uint256"
        },
        {
          "indexed": false,
          "internalType": "uint256",
          "name": "value",
          "type": "uint256"
        }
      ],
      "name": "TransferSingle",
      "type": "event"
    },
    {
      "anonymous": false,
      "inputs": [
        {
          "indexed": false,
          "internalType": "string",
          "name": "value",
          "type": "string"
        },
        {
          "indexed": true,
          "internalType": "uint256",
          "name": "id",
          "type": "uint256"
        }
      ],
      "name": "URI",
      "type": "event"
    },
    {
      "inputs": [
        {
          "internalType": "address",
          "name": "account",
          "type": "address"
        },
        {
          "internalType": "uint256",
          "name": "id",
          "type": "uint256"
        }
      ],
      "name": "balanceOf",
      "outputs": [
        {
          "internalType": "uint256",
          "name": "",
          "type": "uint256"
        }
      ],
      "stateMutability": "view",
      "type": "function"
    },
    {
      "inputs": [
        {
          "internalType": "address[]",
          "name": "accounts",
          "type": "address[]"
        },
        {
          "internalType": "uint256[]",
          "name": "ids",
          "type": "uint256[]"
        }
      ],
      "name": "balanceOfBatch",
      "outputs": [
        {
          "internalType": "uint256[]",
          "name": "",
          "type": "uint256[]"
        }
      ],
      "stateMutability": "view",
      "type": "function"
    },
    {
      "inputs": [
        {
          "internalType": "address",
          "name": "account",
          "type": "address"
        },
        {
          "internalType": "address",
          "name": "operator",
          "type": "address"
        }
      ],
      "name": "isApprovedForAll",
      "outputs": [
        {
          "internalType": "bool",
          "name": "",
          "type": "bool"
        }
      ],
      "stateMutability": "view",
      "type": "function"
    },
    {
      "inputs": [],
      "name": "legalURI",
      "outputs": [
        {
          "internalType": "string",
          "name": "",
          "type": "string"
        }
      ],
      "stateMutability": "view",
      "type": "function"
    },
    {
      "inputs": [
        {
          "internalType": "address",
          "name": "to",
          "type": "address"
        },
        {
          "internalType": "uint256",
          "name": "tokenId",
          "type": "uint256"
        },
        {
          "internalType": "uint256",
          "name": "amount",
          "type": "uint256"
        }
      ],
      "name": "mintFraction",
      "outputs": [],
      "stateMutability": "nonpayable",
      "type": "function"
    },
    {
      "inputs": [],
      "name": "owner",
      "outputs": [
        {
          "internalType": "address",
          "name": "",
          "type": "address"
        }
      ],
      "stateMutability": "view",
      "type": "function"
    },
    {
      "inputs": [],
      "name": "renounceOwnership",
      "outputs": [],
      "stateMutability": "nonpayable",
      "type": "function"
    },
    {
      "inputs": [
        {
          "internalType": "uint256",
          "name": "",
          "type": "uint256"
        },
        {
          "internalType": "uint256",
          "name": "salePrice",
          "type": "uint256"
        }
      ],
      "name": "royaltyInfo",
      "outputs": [
        {
          "internalType": "address",
          "name": "receiver",
          "type": "address"
        },
        {
          "internalType": "uint256",
          "name": "royaltyAmount",
          "type": "uint256"
        }
      ],
      "stateMutability": "view",
      "type": "function"
    },
    {
      "inputs": [
        {
          "internalType": "address",
          "name": "from",
          "type": "address"
        },
        {
          "internalType": "address",
          "name": "to",
          "type": "address"
        },
        {
          "internalType": "uint256[]",
          "name": "ids",
          "type": "uint256[]"
        },
        {
          "internalType": "uint256[]",
          "name": "values",
          "type": "uint256[]"
        },
        {
          "internalType": "bytes",
          "name": "data",
          "type": "bytes"
        }
      ],
      "name": "safeBatchTransferFrom",
      "outputs": [],
      "stateMutability": "nonpayable",
      "type": "function"
    },
    {
      "inputs": [
        {
          "internalType": "address",
          "name": "from",
          "type": "address"
        },
        {
          "internalType": "address",
          "name": "to",
          "type": "address"
        },
        {
          "internalType": "uint256",
          "name": "id",
          "type": "uint256"
        },
        {
          "internalType": "uint256",
          "name": "value",
          "type": "uint256"
        },
        {
          "internalType": "bytes",
          "name": "data",
          "type": "bytes"
        }
      ],
      "name": "safeTransferFrom",
      "outputs": [],
      "stateMutability": "nonpayable",
      "type": "function"
    },
    {
      "inputs": [
        {
          "internalType": "address",
          "name": "operator",
          "type": "address"
        },
        {
          "internalType": "bool",
          "name": "approved",
          "type": "bool"
        }
      ],
      "name": "setApprovalForAll",
      "outputs": [],
      "stateMutability": "nonpayable",
      "type": "function"
    },
    {
      "inputs": [
        {
          "internalType": "bytes4",
          "name": "interfaceId",
          "type": "bytes4"
        }
      ],
      "name": "supportsInterface",
      "outputs": [
        {
          "internalType": "bool",
          "name": "",
          "type": "bool"
        }
      ],
      "stateMutability": "view",
      "type": "function"
    },
    {
      "inputs": [
        {
          "internalType": "address",
          "name": "newOwner",
          "type": "address"
        }
      ],
      "name": "transferOwnership",
      "outputs": [],
      "stateMutability": "nonpayable",
      "type": "function"
    },
    {
      "inputs": [
        {
          "internalType": "address",
          "name": "receiver",
          "type": "address"
        },
        {
          "internalType": "uint96",
          "name": "fee",
          "type": "uint96"
        }
      ],
      "name": "updateRoyalty",
      "outputs": [],
      "stateMutability": "nonpayable",
      "type": "function"
    },
    {
      "inputs": [
        {
          "internalType": "uint256",
          "name": "",
          "type": "uint256"
        }
      ],
      "name": "uri",
      "outputs": [
        {
          "internalType": "string",
          "name": "",
          "type": "string"
        }
      ],
      "stateMutability": "view",
      "type": "function"
    },
    {
      "inputs": [],
      "name": "vaultId",
      "outputs": [
        {
          "internalType": "string",
          "name": "",
          "type": "string"
        }
      ],
      "stateMutability": "view",
      "type": "function"
    }
  ],
  "bytecode": "0x60806040523480156200001157600080fd5b50604051620030f7380380620030f783398181016040528101906200003791906200048f565b33846200004a816200017360201b60201c565b50600073ffffffffffffffffffffffffffffffffffffffff168173ffffffffffffffffffffffffffffffffffffffff1603620000c05760006040517f1e4fbdf7000000000000000000000000000000000000000000000000000000008152600401620000b7919062000585565b60405180910390fd5b620000d1816200018860201b60201c565b508460049081620000e39190620007ed565b508260059081620000f59190620007ed565b5081600660006101000a81548173ffffffffffffffffffffffffffffffffffffffff021916908373ffffffffffffffffffffffffffffffffffffffff16021790555080600660146101000a8154816bffffffffffffffffffffffff02191690836bffffffffffffffffffffffff1602179055505050505050620008d4565b8060029081620001849190620007ed565b5050565b6000600360009054906101000a900473ffffffffffffffffffffffffffffffffffffffff16905081600360006101000a81548173ffffffffffffffffffffffffffffffffffffffff021916908373ffffffffffffffffffffffffffffffffffffffff1602179055508173ffffffffffffffffffffffffffffffffffffffff168173ffffffffffffffffffffffffffffffffffffffff167f8be0079c531659141344cd1fd0a4f28419497f9722a3daafe3b4186f6b6457e060405160405180910390a35050565b6000604051905090565b600080fd5b600080fd5b600080fd5b600080fd5b6000601f19601f8301169050919050565b7f4e487b7100000000000000000000000000000000000000000000000000000000600052604160045260246000fd5b620002b7826200026c565b810181811067ffffffffffffffff82111715620002d957620002d86200027d565b5b80604052505050565b6000620002ee6200024e565b9050620002fc8282620002ac565b919050565b600067ffffffffffffffff8211156200031f576200031e6200027d565b5b6200032a826200026c565b9050602081019050919050565b60005b83811015620003575780820151818401526020810190506200033a565b60008484015250505050565b60006200037a620003748462000301565b620002e2565b90508281526020810184848401111562000399576200039862000267565b5b620003a684828562000337565b509392505050565b600082601f830112620003c657620003c562000262565b5b8151620003d884826020860162000363565b91505092915050565b600073ffffffffffffffffffffffffffffffffffffffff82169050919050565b60006200040e82620003e1565b9050919050565b620004208162000401565b81146200042c57600080fd5b50565b600081519050620004408162000415565b92915050565b60006bffffffffffffffffffffffff82169050919050565b620004698162000446565b81146200047557600080fd5b50565b60008151905062000489816200045e565b92915050565b600080600080600060a08688031215620004ae57620004ad62000258565b5b600086015167ffffffffffffffff811115620004cf57620004ce6200025d565b5b620004dd88828901620003ae565b955050602086015167ffffffffffffffff8111156200050157620005006200025d565b5b6200050f88828901620003ae565b945050604086015167ffffffffffffffff8111156200053357620005326200025d565b5b6200054188828901620003ae565b935050606062000554888289016200042f565b9250506080620005678882890162000478565b9150509295509295909350565b6200057f8162000401565b82525050565b60006020820190506200059c600083018462000574565b92915050565b600081519050919050565b7f4e487b7100000000000000000000000000000000000000000000000000000000600052602260045260246000fd5b60006002820490506001821680620005f557607f821691505b6020821081036200060b576200060a620005ad565b5b50919050565b60008190508160005260206000209050919050565b60006020601f8301049050919050565b600082821b905092915050565b600060088302620006757fffffffffffffffffffffffffffffffffffffffffffffffffffffffffffffffff8262000636565b62000681868362000636565b95508019841693508086168417925050509392505050565b6000819050919050565b6000819050919050565b6000620006ce620006c8620006c28462000699565b620006a3565b62000699565b9050919050565b6000819050919050565b620006ea83620006ad565b62000702620006f982620006d5565b84845462000643565b825550505050565b600090565b620007196200070a565b62000726818484620006df565b505050565b5b818110156200074e57620007426000826200070f565b6001810190506200072c565b5050565b601f8211156200079d57620007678162000611565b620007728462000626565b8101602085101562000782578190505b6200079a620007918562000626565b8301826200072b565b50505b505050565b600082821c905092915050565b6000620007c260001984600802620007a2565b1980831691505092915050565b6000620007dd8383620007af565b9150826002028217905092915050565b620007f882620005a2565b67ffffffffffffffff8111156200081457620008136200027d565b5b620008208254620005dc565b6200082d82828562000752565b600060209050601f83116001811462000865576000841562000850578287015190505b6200085c8582620007cf565b865550620008cc565b601f198416620008758662000611565b60005b828110156200089f5784890151825560018201915060208501945060208101905062000878565b86831015620008bf5784890151620008bb601f891682620007af565b8355505b6001600288020188555050505b505050505050565b61281380620008e46000396000f3fe608060405234801561001057600080fd5b50600436106100ff5760003560e01c8063755a7d2a11610097578063daa83c6d11610066578063daa83c6d146102ad578063e985e9c5146102c9578063f242432a146102f9578063f2fde38b14610315576100ff565b8063755a7d2a146102395780638c55c4e1146102575780638da5cb5b14610273578063a22cb46514610291576100ff565b80632eb2c2d6116100d35780632eb2c2d6146101c557806333194c0a146101e15780634e1273f4146101ff578063715018a61461022f576100ff565b8062fdd58e1461010457806301ffc9a7146101345780630e89341c146101645780632a55205a14610194575b600080fd5b61011e60048036038101906101199190611a15565b610331565b60405161012b9190611a64565b60405180910390f35b61014e60048036038101906101499190611ad7565b61038b565b60405161015b9190611b1f565b60405180910390f35b61017e60048036038101906101799190611b3a565b610405565b60405161018b9190611bf7565b60405180910390f35b6101ae60048036038101906101a99190611c19565b610499565b6040516101bc929190611c68565b60405180910390f35b6101df60048036038101906101da9190611e8e565b610511565b005b6101e96105b9565b6040516101f69190611bf7565b60405180910390f35b61021960048036038101906102149190612020565b610647565b6040516102269190612156565b60405180910390f35b610237610756565b005b61024161076a565b60405161024e9190611bf7565b60405180910390f35b610271600480360381019061026c9190612178565b6107f8565b005b61027b610820565b60405161028891906121cb565b60405180910390f35b6102ab60048036038101906102a69190612212565b61084a565b005b6102c760048036038101906102c29190612296565b610860565b005b6102e360048036038101906102de91906122d6565b6108de565b6040516102f09190611b1f565b60405180910390f35b610313600480360381019061030e9190612316565b610972565b005b61032f600480360381019061032a91906123ad565b610a1a565b005b600080600083815260200190815260200160002060008473ffffffffffffffffffffffffffffffffffffffff1673ffffffffffffffffffffffffffffffffffffffff16815260200190815260200160002054905092915050565b60007f2a55205a000000000000000000000000000000000000000000000000000000007bffffffffffffffffffffffffffffffffffffffffffffffffffffffff1916827bffffffffffffffffffffffffffffffffffffffffffffffffffffffff191614806103fe57506103fd82610aa0565b5b9050919050565b60606002805461041490612409565b80601f016020809104026020016040519081016040528092919081815260200182805461044090612409565b801561048d5780601f106104625761010080835404028352916020019161048d565b820191906000526020600020905b81548152906001019060200180831161047057829003601f168201915b50505050509050919050565b6000806000612710600660149054906101000a90046bffffffffffffffffffffffff166bffffffffffffffffffffffff16856104d59190612469565b6104df91906124da565b9050600660009054906101000a900473ffffffffffffffffffffffffffffffffffffffff168192509250509250929050565b600061051b610b82565b90508073ffffffffffffffffffffffffffffffffffffffff168673ffffffffffffffffffffffffffffffffffffffff1614158015610560575061055e86826108de565b155b156105a45780866040517fe237d92200000000000000000000000000000000000000000000000000000000815260040161059b92919061250b565b60405180910390fd5b6105b18686868686610b8a565b505050505050565b600480546105c690612409565b80601f01602080910402602001604051908101604052809291908181526020018280546105f290612409565b801561063f5780601f106106145761010080835404028352916020019161063f565b820191906000526020600020905b81548152906001019060200180831161062257829003601f168201915b505050505081565b6060815183511461069357815183516040517f5b05999100000000000000000000000000000000000000000000000000000000815260040161068a929190612534565b60405180910390fd5b6000835167ffffffffffffffff8111156106b0576106af611c96565b5b6040519080825280602002602001820160405280156106de5781602001602082028036833780820191505090505b50905060005b845181101561074b5761071b6107038287610c8290919063ffffffff16565b6107168387610c9690919063ffffffff16565b610331565b82828151811061072e5761072d61255d565b5b602002602001018181525050806107449061258c565b90506106e4565b508091505092915050565b61075e610caa565b6107686000610d31565b565b6005805461077790612409565b80601f01602080910402602001604051908101604052809291908181526020018280546107a390612409565b80156107f05780601f106107c5576101008083540402835291602001916107f0565b820191906000526020600020905b8154815290600101906020018083116107d357829003601f168201915b505050505081565b610800610caa565b61081b83838360405180602001604052806000815250610df7565b505050565b6000600360009054906101000a900473ffffffffffffffffffffffffffffffffffffffff16905090565b61085c610855610b82565b8383610e90565b5050565b610868610caa565b81600660006101000a81548173ffffffffffffffffffffffffffffffffffffffff021916908373ffffffffffffffffffffffffffffffffffffffff16021790555080600660146101000a8154816bffffffffffffffffffffffff02191690836bffffffffffffffffffffffff1602179055505050565b6000600160008473ffffffffffffffffffffffffffffffffffffffff1673ffffffffffffffffffffffffffffffffffffffff16815260200190815260200160002060008373ffffffffffffffffffffffffffffffffffffffff1673ffffffffffffffffffffffffffffffffffffffff16815260200190815260200160002060009054906101000a900460ff16905092915050565b600061097c610b82565b90508073ffffffffffffffffffffffffffffffffffffffff168673ffffffffffffffffffffffffffffffffffffffff16141580156109c157506109bf86826108de565b155b15610a055780866040517fe237d9220000000000000000000000000000000000000000000000000000000081526004016109fc92919061250b565b60405180910390fd5b610a128686868686611000565b505050505050565b610a22610caa565b600073ffffffffffffffffffffffffffffffffffffffff168173ffffffffffffffffffffffffffffffffffffffff1603610a945760006040517f1e4fbdf7000000000000000000000000000000000000000000000000000000008152600401610a8b91906121cb565b60405180910390fd5b610a9d81610d31565b50565b60007fd9b67a26000000000000000000000000000000000000000000000000000000007bffffffffffffffffffffffffffffffffffffffffffffffffffffffff1916827bffffffffffffffffffffffffffffffffffffffffffffffffffffffff19161480610b6b57507f0e89341c000000000000000000000000000000000000000000000000000000007bffffffffffffffffffffffffffffffffffffffffffffffffffffffff1916827bffffffffffffffffffffffffffffffffffffffffffffffffffffffff1916145b80610b7b5750610b7a8261110b565b5b9050919050565b600033905090565b600073ffffffffffffffffffffffffffffffffffffffff168473ffffffffffffffffffffffffffffffffffffffff1603610bfc5760006040517f57f447ce000000000000000000000000000000000000000000000000000000008152600401610bf391906121cb565b60405180910390fd5b600073ffffffffffffffffffffffffffffffffffffffff168573ffffffffffffffffffffffffffffffffffffffff1603610c6e5760006040517f01a83514000000000000000000000000000000000000000000000000000000008152600401610c6591906121cb565b60405180910390fd5b610c7b8585858585611175565b5050505050565b600060208202602084010151905092915050565b600060208202602084010151905092915050565b610cb2610b82565b73ffffffffffffffffffffffffffffffffffffffff16610cd0610820565b73ffffffffffffffffffffffffffffffffffffffff1614610d2f57610cf3610b82565b6040517f118cdaa7000000000000000000000000000000000000000000000000000000008152600401610d2691906121cb565b60405180910390fd5b565b6000600360009054906101000a900473ffffffffffffffffffffffffffffffffffffffff16905081600360006101000a81548173ffffffffffffffffffffffffffffffffffffffff021916908373ffffffffffffffffffffffffffffffffffffffff1602179055508173ffffffffffffffffffffffffffffffffffffffff168173ffffffffffffffffffffffffffffffffffffffff167f8be0079c531659141344cd1fd0a4f28419497f9722a3daafe3b4186f6b6457e060405160405180910390a35050565b600073ffffffffffffffffffffffffffffffffffffffff168473ffffffffffffffffffffffffffffffffffffffff1603610e695760006040517f57f447ce000000000000000000000000000000000000000000000000000000008152600401610e6091906121cb565b60405180910390fd5b600080610e768585611227565b91509150610e88600087848487611175565b505050505050565b600073ffffffffffffffffffffffffffffffffffffffff168273ffffffffffffffffffffffffffffffffffffffff1603610f025760006040517fced3e100000000000000000000000000000000000000000000000000000000008152600401610ef991906121cb565b60405180910390fd5b80600160008573ffffffffffffffffffffffffffffffffffffffff1673ffffffffffffffffffffffffffffffffffffffff16815260200190815260200160002060008473ffffffffffffffffffffffffffffffffffffffff1673ffffffffffffffffffffffffffffffffffffffff16815260200190815260200160002060006101000a81548160ff0219169083151502179055508173ffffffffffffffffffffffffffffffffffffffff168373ffffffffffffffffffffffffffffffffffffffff167f17307eab39ab6107e8899845ad3d59bd9653f200f220920489ca2b5937696c3183604051610ff39190611b1f565b60405180910390a3505050565b600073ffffffffffffffffffffffffffffffffffffffff168473ffffffffffffffffffffffffffffffffffffffff16036110725760006040517f57f447ce00000000000000000000000000000000000000000000000000000000815260040161106991906121cb565b60405180910390fd5b600073ffffffffffffffffffffffffffffffffffffffff168573ffffffffffffffffffffffffffffffffffffffff16036110e45760006040517f01a835140000000000000000000000000000000000000000000000000000000081526004016110db91906121cb565b60405180910390fd5b6000806110f18585611227565b915091506111028787848487611175565b50505050505050565b60007f01ffc9a7000000000000000000000000000000000000000000000000000000007bffffffffffffffffffffffffffffffffffffffffffffffffffffffff1916827bffffffffffffffffffffffffffffffffffffffffffffffffffffffff1916149050919050565b61118185858585611257565b600073ffffffffffffffffffffffffffffffffffffffff168473ffffffffffffffffffffffffffffffffffffffff16146112205760006111bf610b82565b9050600184510361120f5760006111e0600086610c9690919063ffffffff16565b905060006111f8600086610c9690919063ffffffff16565b9050611208838989858589611605565b505061121e565b61121d8187878787876117b9565b5b505b5050505050565b60608060405191506001825283602083015260408201905060018152826020820152604081016040529250929050565b80518251146112a157815181516040517f5b059991000000000000000000000000000000000000000000000000000000008152600401611298929190612534565b60405180910390fd5b60006112ab610b82565b905060005b83518110156114c05760006112ce8286610c9690919063ffffffff16565b905060006112e58386610c9690919063ffffffff16565b9050600073ffffffffffffffffffffffffffffffffffffffff168873ffffffffffffffffffffffffffffffffffffffff161461141257600080600084815260200190815260200160002060008a73ffffffffffffffffffffffffffffffffffffffff1673ffffffffffffffffffffffffffffffffffffffff168152602001908152602001600020549050818110156113ba57888183856040517f03dee4c50000000000000000000000000000000000000000000000000000000081526004016113b194939291906125d4565b60405180910390fd5b81810360008085815260200190815260200160002060008b73ffffffffffffffffffffffffffffffffffffffff1673ffffffffffffffffffffffffffffffffffffffff16815260200190815260200160002081905550505b600073ffffffffffffffffffffffffffffffffffffffff168773ffffffffffffffffffffffffffffffffffffffff16146114ad578060008084815260200190815260200160002060008973ffffffffffffffffffffffffffffffffffffffff1673ffffffffffffffffffffffffffffffffffffffff16815260200190815260200160002060008282546114a59190612619565b925050819055505b5050806114b99061258c565b90506112b0565b50600183510361157f5760006114e0600085610c9690919063ffffffff16565b905060006114f8600085610c9690919063ffffffff16565b90508573ffffffffffffffffffffffffffffffffffffffff168773ffffffffffffffffffffffffffffffffffffffff168473ffffffffffffffffffffffffffffffffffffffff167fc3d58168c5ae7397731d063d5bbf3d657854427343f4c083240f7aacaa2d0f628585604051611570929190612534565b60405180910390a450506115fe565b8373ffffffffffffffffffffffffffffffffffffffff168573ffffffffffffffffffffffffffffffffffffffff168273ffffffffffffffffffffffffffffffffffffffff167f4a39dc06d4c0dbc64b70af90fd698a233a518aa5d07e595d983b8c0526c8f7fb86866040516115f592919061264d565b60405180910390a45b5050505050565b60008473ffffffffffffffffffffffffffffffffffffffff163b11156117b1578373ffffffffffffffffffffffffffffffffffffffff1663f23a6e6187878686866040518663ffffffff1660e01b81526004016116669594939291906126d9565b6020604051808303816000875af19250505080156116a257506040513d601f19601f8201168201806040525081019061169f9190612748565b60015b611726573d80600081146116d2576040519150601f19603f3d011682016040523d82523d6000602084013e6116d7565b606091505b50600081510361171e57846040517f57f447ce00000000000000000000000000000000000000000000000000000000815260040161171591906121cb565b60405180910390fd5b805160208201fd5b63f23a6e6160e01b7bffffffffffffffffffffffffffffffffffffffffffffffffffffffff1916817bffffffffffffffffffffffffffffffffffffffffffffffffffffffff1916146117af57846040517f57f447ce0000000000000000000000000000000000000000000000000000000081526004016117a691906121cb565b60405180910390fd5b505b505050505050565b60008473ffffffffffffffffffffffffffffffffffffffff163b1115611965578373ffffffffffffffffffffffffffffffffffffffff1663bc197c8187878686866040518663ffffffff1660e01b815260040161181a959493929190612775565b6020604051808303816000875af192505050801561185657506040513d601f19601f820116820180604052508101906118539190612748565b60015b6118da573d8060008114611886576040519150601f19603f3d011682016040523d82523d6000602084013e61188b565b606091505b5060008151036118d257846040517f57f447ce0000000000000000000000000000000000000000000000000000000081526004016118c991906121cb565b60405180910390fd5b805160208201fd5b63bc197c8160e01b7bffffffffffffffffffffffffffffffffffffffffffffffffffffffff1916817bffffffffffffffffffffffffffffffffffffffffffffffffffffffff19161461196357846040517f57f447ce00000000000000000000000000000000000000000000000000000000815260040161195a91906121cb565b60405180910390fd5b505b505050505050565b6000604051905090565b600080fd5b600080fd5b600073ffffffffffffffffffffffffffffffffffffffff82169050919050565b60006119ac82611981565b9050919050565b6119bc816119a1565b81146119c757600080fd5b50565b6000813590506119d9816119b3565b92915050565b6000819050919050565b6119f2816119df565b81146119fd57600080fd5b50565b600081359050611a0f816119e9565b92915050565b60008060408385031215611a2c57611a2b611977565b5b6000611a3a858286016119ca565b9250506020611a4b85828601611a00565b9150509250929050565b611a5e816119df565b82525050565b6000602082019050611a796000830184611a55565b92915050565b60007fffffffff0000000000000000000000000000000000000000000000000000000082169050919050565b611ab481611a7f565b8114611abf57600080fd5b50565b600081359050611ad181611aab565b92915050565b600060208284031215611aed57611aec611977565b5b6000611afb84828501611ac2565b91505092915050565b60008115159050919050565b611b1981611b04565b82525050565b6000602082019050611b346000830184611b10565b92915050565b600060208284031215611b5057611b4f611977565b5b6000611b5e84828501611a00565b91505092915050565b600081519050919050565b600082825260208201905092915050565b60005b83811015611ba1578082015181840152602081019050611b86565b60008484015250505050565b6000601f19601f8301169050919050565b6000611bc982611b67565b611bd38185611b72565b9350611be3818560208601611b83565b611bec81611bad565b840191505092915050565b60006020820190508181036000830152611c118184611bbe565b905092915050565b60008060408385031215611c3057611c2f611977565b5b6000611c3e85828601611a00565b9250506020611c4f85828601611a00565b9150509250929050565b611c62816119a1565b82525050565b6000604082019050611c7d6000830185611c59565b611c8a6020830184611a55565b9392505050565b600080fd5b7f4e487b7100000000000000000000000000000000000000000000000000000000600052604160045260246000fd5b611cce82611bad565b810181811067ffffffffffffffff82111715611ced57611cec611c96565b5b80604052505050565b6000611d0061196d565b9050611d0c8282611cc5565b919050565b600067ffffffffffffffff821115611d2c57611d2b611c96565b5b602082029050602081019050919050565b600080fd5b6000611d55611d5084611d11565b611cf6565b90508083825260208201905060208402830185811115611d7857611d77611d3d565b5b835b81811015611da15780611d8d8882611a00565b845260208401935050602081019050611d7a565b5050509392505050565b600082601f830112611dc057611dbf611c91565b5b8135611dd0848260208601611d42565b91505092915050565b600080fd5b600067ffffffffffffffff821115611df957611df8611c96565b5b611e0282611bad565b9050602081019050919050565b82818337600083830152505050565b6000611e31611e2c84611dde565b611cf6565b905082815260208101848484011115611e4d57611e4c611dd9565b5b611e58848285611e0f565b509392505050565b600082601f830112611e7557611e74611c91565b5b8135611e85848260208601611e1e565b91505092915050565b600080600080600060a08688031215611eaa57611ea9611977565b5b6000611eb8888289016119ca565b9550506020611ec9888289016119ca565b945050604086013567ffffffffffffffff811115611eea57611ee961197c565b5b611ef688828901611dab565b935050606086013567ffffffffffffffff811115611f1757611f1661197c565b5b611f2388828901611dab565b925050608086013567ffffffffffffffff811115611f4457611f4361197c565b5b611f5088828901611e60565b9150509295509295909350565b600067ffffffffffffffff821115611f7857611f77611c96565b5b602082029050602081019050919050565b6000611f9c611f9784611f5d565b611cf6565b90508083825260208201905060208402830185811115611fbf57611fbe611d3d565b5b835b81811015611fe85780611fd488826119ca565b845260208401935050602081019050611fc1565b5050509392505050565b600082601f83011261200757612006611c91565b5b8135612017848260208601611f89565b91505092915050565b6000806040838503121561203757612036611977565b5b600083013567ffffffffffffffff8111156120555761205461197c565b5b61206185828601611ff2565b925050602083013567ffffffffffffffff8111156120825761208161197c565b5b61208e85828601611dab565b9150509250929050565b600081519050919050565b600082825260208201905092915050565b6000819050602082019050919050565b6120cd816119df565b82525050565b60006120df83836120c4565b60208301905092915050565b6000602082019050919050565b600061210382612098565b61210d81856120a3565b9350612118836120b4565b8060005b8381101561214957815161213088826120d3565b975061213b836120eb565b92505060018101905061211c565b5085935050505092915050565b6000602082019050818103600083015261217081846120f8565b905092915050565b60008060006060848603121561219157612190611977565b5b600061219f868287016119ca565b93505060206121b086828701611a00565b92505060406121c186828701611a00565b9150509250925092565b60006020820190506121e06000830184611c59565b92915050565b6121ef81611b04565b81146121fa57600080fd5b50565b60008135905061220c816121e6565b92915050565b6000806040838503121561222957612228611977565b5b6000612237858286016119ca565b9250506020612248858286016121fd565b9150509250929050565b60006bffffffffffffffffffffffff82169050919050565b61227381612252565b811461227e57600080fd5b50565b6000813590506122908161226a565b92915050565b600080604083850312156122ad576122ac611977565b5b60006122bb858286016119ca565b92505060206122cc85828601612281565b9150509250929050565b600080604083850312156122ed576122ec611977565b5b60006122fb858286016119ca565b925050602061230c858286016119ca565b9150509250929050565b600080600080600060a0868803121561233257612331611977565b5b6000612340888289016119ca565b9550506020612351888289016119ca565b945050604061236288828901611a00565b935050606061237388828901611a00565b925050608086013567ffffffffffffffff8111156123945761239361197c565b5b6123a088828901611e60565b9150509295509295909350565b6000602082840312156123c3576123c2611977565b5b60006123d1848285016119ca565b91505092915050565b7f4e487b7100000000000000000000000000000000000000000000000000000000600052602260045260246000fd5b6000600282049050600182168061242157607f821691505b602082108103612434576124336123da565b5b50919050565b7f4e487b7100000000000000000000000000000000000000000000000000000000600052601160045260246000fd5b6000612474826119df565b915061247f836119df565b925082820261248d816119df565b915082820484148315176124a4576124a361243a565b5b5092915050565b7f4e487b7100000000000000000000000000000000000000000000000000000000600052601260045260246000fd5b60006124e5826119df565b91506124f0836119df565b925082612500576124ff6124ab565b5b828204905092915050565b60006040820190506125206000830185611c59565b61252d6020830184611c59565b9392505050565b60006040820190506125496000830185611a55565b6125566020830184611a55565b9392505050565b7f4e487b7100000000000000000000000000000000000000000000000000000000600052603260045260246000fd5b6000612597826119df565b91507fffffffffffffffffffffffffffffffffffffffffffffffffffffffffffffffff82036125c9576125c861243a565b5b600182019050919050565b60006080820190506125e96000830187611c59565b6125f66020830186611a55565b6126036040830185611a55565b6126106060830184611a55565b95945050505050565b6000612624826119df565b915061262f836119df565b92508282019050808211156126475761264661243a565b5b92915050565b6000604082019050818103600083015261266781856120f8565b9050818103602083015261267b81846120f8565b90509392505050565b600081519050919050565b600082825260208201905092915050565b60006126ab82612684565b6126b5818561268f565b93506126c5818560208601611b83565b6126ce81611bad565b840191505092915050565b600060a0820190506126ee6000830188611c59565b6126fb6020830187611c59565b6127086040830186611a55565b6127156060830185611a55565b818103608083015261272781846126a0565b90509695505050505050565b60008151905061274281611aab565b92915050565b60006020828403121561275e5761275d611977565b5b600061276c84828501612733565b91505092915050565b600060a08201905061278a6000830188611c59565b6127976020830187611c59565b81810360408301526127a981866120f8565b905081810360608301526127bd81856120f8565b905081810360808301526127d181846126a0565b9050969550505050505056fea2646970667358221220c867b22ce92e5d7e15800b2b126386a5451ecba7a43dba2ef7a01cd2c4d6389864736f6c63430008140033",
  "linkReferences": {},
  "deployedLinkReferences": {}
}