{"abi":[{"type":"constructor","inputs":[{"name":"admin","type":"address","internalType":"address"},{"name":"royaltyReceiver","type":"address","internalType":"address"},{"name":"royaltyFeeBasisPoints","type":"uint96","internalType":"uint96"}],"stateMutability":"nonpayable"},{"type":"function","name":"DEFAULT_ADMIN_ROLE","inputs":[],"outputs":[{"name":"","type":"bytes32","internalType":"bytes32"}],"stateMutability":"view"},{"type":"function","name":"MINTER_ROLE","inputs":[],"outputs":[{"name":"","type":"bytes32","internalType":"bytes32"}],"stateMutability":"view"},{"type":"function","name":"approve","inputs":[{"name":"to","type":"address","internalType":"address"},{"name":"tokenId","type":"uint256","internalType":"uint256"}],"outputs":[],"stateMutability":"nonpayable"},{"type":"function","name":"balanceOf","inputs":[{"name":"owner","type":"address","internalType":"address"}],"outputs":[{"name":"","type":"uint256","internalType":"uint256"}],"stateMutability":"view"},{"type":"function","name":"getApproved","inputs":[{"name":"tokenId","type":"uint256","internalType":"uint256"}],"outputs":[{"name":"","type":"address","internalType":"address"}],"stateMutability":"view"},{"type":"function","name":"getRoleAdmin","inputs":[{"name":"role","type":"bytes32","internalType":"bytes32"}],"outputs":[{"name":"","type":"bytes32","internalType":"bytes32"}],"stateMutability":"view"},{"type":"function","name":"grantMinter","inputs":[{"name":"account","type":"address","internalType":"address"}],"outputs":[],"stateMutability":"nonpayable"},{"type":"function","name":"grantRole","inputs":[{"name":"role","type":"bytes32","internalType":"bytes32"},{"name":"account","type":"address","internalType":"address"}],"outputs":[],"stateMutability":"nonpayable"},{"type":"function","name":"hasRole","inputs":[{"name":"role","type":"bytes32","internalType":"bytes32"},{"name":"account","type":"address","internalType":"address"}],"outputs":[{"name":"","type":"bool","internalType":"bool"}],"stateMutability":"view"},{"type":"function","name":"isApprovedForAll","inputs":[{"name":"owner","type":"address","internalType":"address"},{"name":"operator","type":"address","internalType":"address"}],"outputs":[{"name":"","type":"bool","internalType":"bool"}],"stateMutability":"view"},{"type":"function","name":"mint","inputs":[{"name":"to","type":"address","internalType":"address"},{"name":"tokenURI","type":"string","internalType":"string"}],"outputs":[{"name":"","type":"uint256","internalType":"uint256"}],"stateMutability":"nonpayable"},{"type":"function","name":"name","inputs":[],"outputs":[{"name":"","type":"string","internalType":"string"}],"stateMutability":"view"},{"type":"function","name":"ownerOf","inputs":[{"name":"tokenId","type":"uint256","internalType":"uint256"}],"outputs":[{"name":"","type":"address","internalType":"address"}],"stateMutability":"view"},{"type":"function","name":"renounceRole","inputs":[{"name":"role","type":"bytes32","internalType":"bytes32"},{"name":"callerConfirmation","type":"address","internalType":"address"}],"outputs":[],"stateMutability":"nonpayable"},{"type":"function","name":"revokeMinter","inputs":[{"name":"account","type":"address","internalType":"address"}],"outputs":[],"stateMutability":"nonpayable"},{"type":"function","name":"revokeRole","inputs":[{"name":"role","type":"bytes32","internalType":"bytes32"},{"name":"account","type":"address","internalType":"address"}],"outputs":[],"stateMutability":"nonpayable"},{"type":"function","name":"royaltyInfo","inputs":[{"name":"tokenId","type":"uint256","internalType":"uint256"},{"name":"salePrice","type":"uint256","internalType":"uint256"}],"outputs":[{"name":"receiver","type":"address","internalType":"address"},{"name":"amount","type":"uint256","internalType":"uint256"}],"stateMutability":"view"},{"type":"function","name":"safeTransferFrom","inputs":[{"name":"from","type":"address","internalType":"address"},{"name":"to","type":"address","internalType":"address"},{"name":"tokenId","type":"uint256","internalType":"uint256"}],"outputs":[],"stateMutability":"nonpayable"},{"type":"function","name":"safeTransferFrom","inputs":[{"name":"from","type":"address","internalType":"address"},{"name":"to","type":"address","internalType":"address"},{"name":"tokenId","type":"uint256","internalType":"uint256"},{"name":"data","type":"bytes","internalType":"bytes"}],"outputs":[],"stateMutability":"nonpayable"},{"type":"function","name":"setApprovalForAll","inputs":[{"name":"operator","type":"address","internalType":"address"},{"name":"approved","type":"bool","internalType":"bool"}],"outputs":[],"stateMutability":"nonpayable"},{"type":"function","name":"setDefaultRoyalty","inputs":[{"name":"receiver","type":"address","internalType":"address"},{"name":"feeBasisPoints","type":"uint96","internalType":"uint96"}],"outputs":[],"stateMutability":"nonpayable"},{"type":"function","name":"setTokenRoyalty","inputs":[{"name":"tokenId","type":"uint256","internalType":"uint256"},{"name":"receiver","type":"address","internalType":"address"},{"name":"feeBasisPoints","type":"uint96","internalType":"uint96"}],"outputs":[],"stateMutability":"nonpayable"},{"type":"function","name":"supportsInterface","inputs":[{"name":"interfaceId","type":"bytes4","internalType":"bytes4"}],"outputs":[{"name":"","type":"bool","internalType":"bool"}],"stateMutability":"view"},{"type":"function","name":"symbol","inputs":[],"outputs":[{"name":"","type":"string","internalType":"string"}],"stateMutability":"view"},{"type":"function","name":"tokenCounter","inputs":[],"outputs":[{"name":"","type":"uint256","internalType":"uint256"}],"stateMutability":"view"},{"type":"function","name":"tokenURI","inputs":[{"name":"tokenId","type":"uint256","internalType":"uint256"}],"outputs":[{"name":"","type":"string","internalType":"string"}],"stateMutability":"view"},{"type":"function","name":"transferFrom","inputs":[{"name":"from","type":"address","internalType":"address"},{"name":"to","type":"address","internalType":"address"},{"name":"tokenId","type":"uint256","internalType":"uint256"}],"outputs":[],"stateMutability":"nonpayable"},{"type":"event","name":"Approval","inputs":[{"name":"owner","type":"address","indexed":true,"internalType":"address"},{"name":"approved","type":"address","indexed":true,"internalType":"address"},{"name":"tokenId","type":"uint256","indexed":true,"internalType":"uint256"}],"anonymous":false},{"type":"event","name":"ApprovalForAll","inputs":[{"name":"owner","type":"address","indexed":true,"internalType":"address"},{"name":"operator","type":"address","indexed":true,"internalType":"address"},{"name":"approved","type":"bool","indexed":false,"internalType":"bool"}],"anonymous":false},{"type":"event","name":"ArtworkMinted","inputs":[{"name":"tokenId","type":"uint256","indexed":true,"internalType":"uint256"},{"name":"to","type":"address","indexed":true,"internalType":"address"},{"name":"tokenURI","type":"string","indexed":false,"internalType":"string"},{"name":"minter","type":"address","indexed":true,"internalType":"address"}],"anonymous":false},{"type":"event","name":"BatchMetadataUpdate","inputs":[{"name":"_fromTokenId","type":"uint256","indexed":false,"internalType":"uint256"},{"name":"_toTokenId","type":"uint256","indexed":false,"internalType":"uint256"}],"anonymous":false},{"type":"event","name":"MetadataUpdate","inputs":[{"name":"_tokenId","type":"uint256","indexed":false,"internalType":"uint256"}],"anonymous":false},{"type":"event","name":"RoleAdminChanged","inputs":[{"name":"role","type":"bytes32","indexed":true,"internalType":"bytes32"},{"name":"previousAdminRole","type":"bytes32","indexed":true,"internalType":"bytes32"},{"name":"newAdminRole","type":"bytes32","indexed":true,"internalType":"bytes32"}],"anonymous":false},{"type":"event","name":"RoleGranted","inputs":[{"name":"role","type":"bytes32","indexed":true,"internalType":"bytes32"},{"name":"account","type":"address","indexed":true,"internalType":"address"},{"name":"sender","type":"address","indexed":true,"internalType":"address"}],"anonymous":false},{"type":"event","name":"RoleRevoked","inputs":[{"name":"role","type":"bytes32","indexed":true,"internalType":"bytes32"},{"name":"account","type":"address","indexed":true,"internalType":"address"},{"name":"sender","type":"address","indexed":true,"internalType":"address"}],"anonymous":false},{"type":"event","name":"Transfer","inputs":[{"name":"from","type":"address","indexed":true,"internalType":"address"},{"name":"to","type":"address","indexed":true,"internalType":"address"},{"name":"tokenId","type":"uint256","indexed":true,"internalType":"uint256"}],"anonymous":false},{"type":"error","name":"AccessControlBadConfirmation","inputs":[]},{"type":"error","name":"AccessControlUnauthorizedAccount","inputs":[{"name":"account","type":"address","internalType":"address"},{"name":"neededRole","type":"bytes32","internalType":"bytes32"}]},{"type":"error","name":"ERC2981InvalidDefaultRoyalty","inputs":[{"name":"numerator","type":"uint256","internalType":"uint256"},{"name":"denominator","type":"uint256","internalType":"uint256"}]},{"type":"error","name":"ERC2981InvalidDefaultRoyaltyReceiver","inputs":[{"name":"receiver","type":"address","internalType":"address"}]},{"type":"error","name":"ERC2981InvalidTokenRoyalty","inputs":[{"name":"tokenId","type":"uint256","internalType":"uint256"},{"name":"numerator","type":"uint256","internalType":"uint256"},{"name":"denominator","type":"uint256","internalType":"uint256"}]},{"type":"error","name":"ERC2981InvalidTokenRoyaltyReceiver","inputs":[{"name":"tokenId","type":"uint256","internalType":"uint256"},{"name":"receiver","type":"address","internalType":"address"}]},{"type":"error","name":"ERC721IncorrectOwner","inputs":[{"name":"sender","type":"address","internalType":"address"},{"name":"tokenId","type":"uint256","internalType":"uint256"},{"name":"owner","type":"address","internalType":"address"}]},{"type":"error","name":"ERC721InsufficientApproval","inputs":[{"name":"operator","type":"address","internalType":"address"},{"name":"tokenId","type":"uint256","internalType":"uint256"}]},{"type":"error","name":"ERC721InvalidApprover","inputs":[{"name":"approver","type":"address","internalType":"address"}]},{"type":"error","name":"ERC721InvalidOperator","inputs":[{"name":"operator","type":"address","internalType":"address"}]},{"type":"error","name":"ERC721InvalidOwner","inputs":[{"name":"owner","type":"address","internalType":"address"}]},{"type":"error","name":"ERC721InvalidReceiver","inputs":[{"name":"receiver","type":"address","internalType":"address"}]},{"type":"error","name":"ERC721InvalidSender","inputs":[{"name":"sender","type":"address","internalType":"address"}]},{"type":"error","name":"ERC721NonexistentToken","inputs":[{"name":"tokenId","type":"uint256","internalType":"uint256"}]}],"bytecode":{"object":"0x608060405234801561000f575f5ffd5b50604051613e52380380613e52833981810160405281019061003191906105a7565b6040518060400160405280600b81526020017f466163696e6174696f6e730000000000000000000000000000000000000000008152506040518060400160405280600381526020017f4641430000000000000000000000000000000000000000000000000000000000815250815f90816100ab9190610845565b5080600190816100bb9190610845565b5050505f73ffffffffffffffffffffffffffffffffffffffff168373ffffffffffffffffffffffffffffffffffffffff160361012c576040517f08c379a00000000000000000000000000000000000000000000000000000000081526004016101239061096e565b60405180910390fd5b5f73ffffffffffffffffffffffffffffffffffffffff168273ffffffffffffffffffffffffffffffffffffffff160361019a576040517f08c379a0000000000000000000000000000000000000000000000000000000008152600401610191906109fc565b60405180910390fd5b6101ac5f5f1b846101fd60201b60201c565b506101dd7f9f2df0fed2c77648de5860a4cc508cd0818c85b8b8a1ab4ceeef8d981c8956a6846101fd60201b60201c565b506101ee82826102f360201b60201c565b5f600a81905550505050610aa8565b5f61020e838361049460201b60201c565b6102e957600160095f8581526020019081526020015f205f015f8473ffffffffffffffffffffffffffffffffffffffff1673ffffffffffffffffffffffffffffffffffffffff1681526020019081526020015f205f6101000a81548160ff0219169083151502179055506102866104f860201b60201c565b73ffffffffffffffffffffffffffffffffffffffff168273ffffffffffffffffffffffffffffffffffffffff16847f2f8788117e7eff1d82e926ec794901d17c78024a50270940304540a733656f0d60405160405180910390a4600190506102ed565b5f90505b92915050565b5f6103026104ff60201b60201c565b6bffffffffffffffffffffffff16905080826bffffffffffffffffffffffff1611156103675781816040517f6f483d0900000000000000000000000000000000000000000000000000000000815260040161035e929190610a59565b60405180910390fd5b5f73ffffffffffffffffffffffffffffffffffffffff168373ffffffffffffffffffffffffffffffffffffffff16036103d7575f6040517fb6d9900a0000000000000000000000000000000000000000000000000000000081526004016103ce9190610a8f565b60405180910390fd5b60405180604001604052808473ffffffffffffffffffffffffffffffffffffffff168152602001836bffffffffffffffffffffffff1681525060075f820151815f015f6101000a81548173ffffffffffffffffffffffffffffffffffffffff021916908373ffffffffffffffffffffffffffffffffffffffff1602179055506020820151815f0160146101000a8154816bffffffffffffffffffffffff02191690836bffffffffffffffffffffffff160217905550905050505050565b5f60095f8481526020019081526020015f205f015f8373ffffffffffffffffffffffffffffffffffffffff1673ffffffffffffffffffffffffffffffffffffffff1681526020019081526020015f205f9054906101000a900460ff16905092915050565b5f33905090565b5f612710905090565b5f5ffd5b5f73ffffffffffffffffffffffffffffffffffffffff82169050919050565b5f6105358261050c565b9050919050565b6105458161052b565b811461054f575f5ffd5b50565b5f815190506105608161053c565b92915050565b5f6bffffffffffffffffffffffff82169050919050565b61058681610566565b8114610590575f5ffd5b50565b5f815190506105a18161057d565b92915050565b5f5f5f606084860312156105be576105bd610508565b5b5f6105cb86828701610552565b93505060206105dc86828701610552565b92505060406105ed86828701610593565b9150509250925092565b5f81519050919050565b7f4e487b71000000000000000000000000000000000000000000000000000000005f52604160045260245ffd5b7f4e487b71000000000000000000000000000000000000000000000000000000005f52602260045260245ffd5b5f600282049050600182168061067257607f821691505b6020821081036106855761068461062e565b5b50919050565b5f819050815f5260205f209050919050565b5f6020601f8301049050919050565b5f82821b905092915050565b5f600883026106e77fffffffffffffffffffffffffffffffffffffffffffffffffffffffffffffffff826106ac565b6106f186836106ac565b95508019841693508086168417925050509392505050565b5f819050919050565b5f819050919050565b5f61073561073061072b84610709565b610712565b610709565b9050919050565b5f819050919050565b61074e8361071b565b61076261075a8261073c565b8484546106b8565b825550505050565b5f5f905090565b61077961076a565b610784818484610745565b505050565b5f5b828110156107aa5761079f5f828401610771565b60018101905061078b565b505050565b601f8211156107fd57828211156107fc576107c98161068b565b6107d28361069d565b6107db8561069d565b60208610156107e8575f90505b8083016107f782840382610789565b505050505b5b505050565b5f82821c905092915050565b5f61081d5f1984600802610802565b1980831691505092915050565b5f610835838361080e565b9150826002028217905092915050565b61084e826105f7565b67ffffffffffffffff81111561086757610866610601565b5b610871825461065b565b61087c8282856107af565b5f60209050601f8311600181146108ad575f841561089b578287015190505b6108a5858261082a565b86555061090c565b601f1984166108bb8661068b565b5f5b828110156108e2578489015182556001820191506020850194506020810190506108bd565b868310156108ff57848901516108fb601f89168261080e565b8355505b6001600288020188555050505b505050505050565b5f82825260208201905092915050565b7f41646d696e2063616e6e6f74206265207a65726f2061646472657373000000005f82015250565b5f610958601c83610914565b915061096382610924565b602082019050919050565b5f6020820190508181035f8301526109858161094c565b9050919050565b7f526f79616c74792072656365697665722063616e6e6f74206265207a65726f205f8201527f6164647265737300000000000000000000000000000000000000000000000000602082015250565b5f6109e6602783610914565b91506109f18261098c565b604082019050919050565b5f6020820190508181035f830152610a13816109da565b9050919050565b5f610a34610a2f610a2a84610566565b610712565b610709565b9050919050565b610a4481610a1a565b82525050565b610a5381610709565b82525050565b5f604082019050610a6c5f830185610a3b565b610a796020830184610a4a565b9392505050565b610a898161052b565b82525050565b5f602082019050610aa25f830184610a80565b92915050565b61339d80610ab55f395ff3fe608060405234801561000f575f5ffd5b50600436106101a7575f3560e01c80636352211e116100f7578063c87b56dd11610095578063d0def5211161006f578063d0def521146104d8578063d539139314610508578063d547741f14610526578063e985e9c514610542576101a7565b8063c87b56dd1461046e578063cfbd48851461049e578063d082e381146104ba576101a7565b806395d89b41116100d157806395d89b41146103fa578063a217fddf14610418578063a22cb46514610436578063b88d4fde14610452576101a7565b80636352211e1461036a57806370a082311461039a57806391d14854146103ca576101a7565b8063248a9ca3116101645780632f2ff15d1161013e5780632f2ff15d146102fa57806336568abe1461031657806342842e0e146103325780635944c7531461034e576101a7565b8063248a9ca31461027d578063261707fa146102ad5780632a55205a146102c9576101a7565b806301ffc9a7146101ab57806304634d8d146101db57806306fdde03146101f7578063081812fc14610215578063095ea7b31461024557806323b872dd14610261575b5f5ffd5b6101c560048036038101906101c09190612540565b610572565b6040516101d29190612585565b60405180910390f35b6101f560048036038101906101f09190612639565b610583565b005b6101ff61059e565b60405161020c91906126e7565b60405180910390f35b61022f600480360381019061022a919061273a565b61062d565b60405161023c9190612774565b60405180910390f35b61025f600480360381019061025a919061278d565b610648565b005b61027b600480360381019061027691906127cb565b61065e565b005b6102976004803603810190610292919061284e565b61075d565b6040516102a49190612888565b60405180910390f35b6102c760048036038101906102c291906128a1565b61077a565b005b6102e360048036038101906102de91906128cc565b6107b5565b6040516102f1929190612919565b60405180910390f35b610314600480360381019061030f9190612940565b6108d7565b005b610330600480360381019061032b9190612940565b6108f9565b005b61034c600480360381019061034791906127cb565b610974565b005b6103686004803603810190610363919061297e565b610993565b005b610384600480360381019061037f919061273a565b6109b0565b6040516103919190612774565b60405180910390f35b6103b460048036038101906103af91906128a1565b6109c1565b6040516103c191906129ce565b60405180910390f35b6103e460048036038101906103df9190612940565b610a77565b6040516103f19190612585565b60405180910390f35b610402610adb565b60405161040f91906126e7565b60405180910390f35b610420610b6b565b60405161042d9190612888565b60405180910390f35b610450600480360381019061044b9190612a11565b610b71565b005b61046c60048036038101906104679190612b7b565b610b87565b005b6104886004803603810190610483919061273a565b610bac565b60405161049591906126e7565b60405180910390f35b6104b860048036038101906104b391906128a1565b610c28565b005b6104c2610c63565b6040516104cf91906129ce565b60405180910390f35b6104f260048036038101906104ed9190612c99565b610c69565b6040516104ff91906129ce565b60405180910390f35b610510610d36565b60405161051d9190612888565b60405180910390f35b610540600480360381019061053b9190612940565b610d5a565b005b61055c60048036038101906105579190612cf3565b610d7c565b6040516105699190612585565b60405180910390f35b5f61057c82610e0a565b9050919050565b5f5f1b61058f81610e83565b6105998383610e97565b505050565b60605f80546105ac90612d5e565b80601f01602080910402602001604051908101604052809291908181526020018280546105d890612d5e565b80156106235780601f106105fa57610100808354040283529160200191610623565b820191905f5260205f20905b81548152906001019060200180831161060657829003601f168201915b5050505050905090565b5f61063782611032565b50610641826110b8565b9050919050565b61065a82826106556110f1565b6110f8565b5050565b5f73ffffffffffffffffffffffffffffffffffffffff168273ffffffffffffffffffffffffffffffffffffffff16036106ce575f6040517f64a0ae920000000000000000000000000000000000000000000000000000000081526004016106c59190612774565b60405180910390fd5b5f6106e183836106dc6110f1565b61110a565b90508373ffffffffffffffffffffffffffffffffffffffff168173ffffffffffffffffffffffffffffffffffffffff1614610757578382826040517f64283d7b00000000000000000000000000000000000000000000000000000000815260040161074e93929190612d8e565b60405180910390fd5b50505050565b5f60095f8381526020019081526020015f20600101549050919050565b5f5f1b61078681610e83565b6107b07f9f2df0fed2c77648de5860a4cc508cd0818c85b8b8a1ab4ceeef8d981c8956a683611315565b505050565b5f5f5f60085f8681526020019081526020015f2090505f815f015f9054906101000a900473ffffffffffffffffffffffffffffffffffffffff1690505f825f0160149054906101000a90046bffffffffffffffffffffffff1690505f73ffffffffffffffffffffffffffffffffffffffff168273ffffffffffffffffffffffffffffffffffffffff16036108895760075f015f9054906101000a900473ffffffffffffffffffffffffffffffffffffffff16915060075f0160149054906101000a90046bffffffffffffffffffffffff1690505b5f6108926113ff565b6bffffffffffffffffffffffff16826bffffffffffffffffffffffff16886108ba9190612df0565b6108c49190612e5e565b9050828195509550505050509250929050565b6108e08261075d565b6108e981610e83565b6108f38383611315565b50505050565b6109016110f1565b73ffffffffffffffffffffffffffffffffffffffff168173ffffffffffffffffffffffffffffffffffffffff1614610965576040517f6697b23200000000000000000000000000000000000000000000000000000000815260040160405180910390fd5b61096f8282611408565b505050565b61098e83838360405180602001604052805f815250610b87565b505050565b5f5f1b61099f81610e83565b6109aa8484846114f2565b50505050565b5f6109ba82611032565b9050919050565b5f5f73ffffffffffffffffffffffffffffffffffffffff168273ffffffffffffffffffffffffffffffffffffffff1603610a32575f6040517f89c62b64000000000000000000000000000000000000000000000000000000008152600401610a299190612774565b60405180910390fd5b60035f8373ffffffffffffffffffffffffffffffffffffffff1673ffffffffffffffffffffffffffffffffffffffff1681526020019081526020015f20549050919050565b5f60095f8481526020019081526020015f205f015f8373ffffffffffffffffffffffffffffffffffffffff1673ffffffffffffffffffffffffffffffffffffffff1681526020019081526020015f205f9054906101000a900460ff16905092915050565b606060018054610aea90612d5e565b80601f0160208091040260200160405190810160405280929190818152602001828054610b1690612d5e565b8015610b615780601f10610b3857610100808354040283529160200191610b61565b820191905f5260205f20905b815481529060010190602001808311610b4457829003601f168201915b5050505050905090565b5f5f1b81565b610b83610b7c6110f1565b83836116a1565b5050565b610b9284848461065e565b610ba6610b9d6110f1565b8585858561187a565b50505050565b6060610bb782611032565b505f610bc1611a26565b90505f610bcd84611a3c565b90505f825103610be1578092505050610c23565b5f81511115610c15578181604051602001610bfd929190612ec8565b60405160208183030381529060405292505050610c23565b610c1e84611add565b925050505b919050565b5f5f1b610c3481610e83565b610c5e7f9f2df0fed2c77648de5860a4cc508cd0818c85b8b8a1ab4ceeef8d981c8956a683611408565b505050565b600a5481565b5f7f9f2df0fed2c77648de5860a4cc508cd0818c85b8b8a1ab4ceeef8d981c8956a6610c9481610e83565b5f600a549050610ca48582611b43565b610cae8185611b60565b600a5f815480929190610cc090612eeb565b91905055503373ffffffffffffffffffffffffffffffffffffffff168573ffffffffffffffffffffffffffffffffffffffff16827ffd952331f2295b12f88a1579ba9cd6624e94d72dfd66611da7eaa60b34313ae987604051610d2391906126e7565b60405180910390a4809250505092915050565b7f9f2df0fed2c77648de5860a4cc508cd0818c85b8b8a1ab4ceeef8d981c8956a681565b610d638261075d565b610d6c81610e83565b610d768383611408565b50505050565b5f60055f8473ffffffffffffffffffffffffffffffffffffffff1673ffffffffffffffffffffffffffffffffffffffff1681526020019081526020015f205f8373ffffffffffffffffffffffffffffffffffffffff1673ffffffffffffffffffffffffffffffffffffffff1681526020019081526020015f205f9054906101000a900460ff16905092915050565b5f7f7965db0b000000000000000000000000000000000000000000000000000000007bffffffffffffffffffffffffffffffffffffffffffffffffffffffff1916827bffffffffffffffffffffffffffffffffffffffffffffffffffffffff19161480610e7c5750610e7b82611bba565b5b9050919050565b610e9481610e8f6110f1565b611c33565b50565b5f610ea06113ff565b6bffffffffffffffffffffffff16905080826bffffffffffffffffffffffff161115610f055781816040517f6f483d09000000000000000000000000000000000000000000000000000000008152600401610efc929190612f6b565b60405180910390fd5b5f73ffffffffffffffffffffffffffffffffffffffff168373ffffffffffffffffffffffffffffffffffffffff1603610f75575f6040517fb6d9900a000000000000000000000000000000000000000000000000000000008152600401610f6c9190612774565b60405180910390fd5b60405180604001604052808473ffffffffffffffffffffffffffffffffffffffff168152602001836bffffffffffffffffffffffff1681525060075f820151815f015f6101000a81548173ffffffffffffffffffffffffffffffffffffffff021916908373ffffffffffffffffffffffffffffffffffffffff1602179055506020820151815f0160146101000a8154816bffffffffffffffffffffffff02191690836bffffffffffffffffffffffff160217905550905050505050565b5f5f61103d83611c84565b90505f73ffffffffffffffffffffffffffffffffffffffff168173ffffffffffffffffffffffffffffffffffffffff16036110af57826040517f7e2732890000000000000000000000000000000000000000000000000000000081526004016110a691906129ce565b60405180910390fd5b80915050919050565b5f60045f8381526020019081526020015f205f9054906101000a900473ffffffffffffffffffffffffffffffffffffffff169050919050565b5f33905090565b6111058383836001611cbd565b505050565b5f5f61111584611c84565b90505f73ffffffffffffffffffffffffffffffffffffffff168373ffffffffffffffffffffffffffffffffffffffff161461115657611155818486611e7c565b5b5f73ffffffffffffffffffffffffffffffffffffffff168173ffffffffffffffffffffffffffffffffffffffff16146111e1576111955f855f5f611cbd565b600160035f8373ffffffffffffffffffffffffffffffffffffffff1673ffffffffffffffffffffffffffffffffffffffff1681526020019081526020015f205f82825403925050819055505b5f73ffffffffffffffffffffffffffffffffffffffff168573ffffffffffffffffffffffffffffffffffffffff161461126057600160035f8773ffffffffffffffffffffffffffffffffffffffff1673ffffffffffffffffffffffffffffffffffffffff1681526020019081526020015f205f82825401925050819055505b8460025f8681526020019081526020015f205f6101000a81548173ffffffffffffffffffffffffffffffffffffffff021916908373ffffffffffffffffffffffffffffffffffffffff160217905550838573ffffffffffffffffffffffffffffffffffffffff168273ffffffffffffffffffffffffffffffffffffffff167fddf252ad1be2c89b69c2b068fc378daa952ba7f163c4a11628f55a4df523b3ef60405160405180910390a4809150509392505050565b5f6113208383610a77565b6113f557600160095f8581526020019081526020015f205f015f8473ffffffffffffffffffffffffffffffffffffffff1673ffffffffffffffffffffffffffffffffffffffff1681526020019081526020015f205f6101000a81548160ff0219169083151502179055506113926110f1565b73ffffffffffffffffffffffffffffffffffffffff168273ffffffffffffffffffffffffffffffffffffffff16847f2f8788117e7eff1d82e926ec794901d17c78024a50270940304540a733656f0d60405160405180910390a4600190506113f9565b5f90505b92915050565b5f612710905090565b5f6114138383610a77565b156114e8575f60095f8581526020019081526020015f205f015f8473ffffffffffffffffffffffffffffffffffffffff1673ffffffffffffffffffffffffffffffffffffffff1681526020019081526020015f205f6101000a81548160ff0219169083151502179055506114856110f1565b73ffffffffffffffffffffffffffffffffffffffff168273ffffffffffffffffffffffffffffffffffffffff16847ff6391f5c32d9c69d2a47ea670b442974b53935d1edc7fd64eb21e047a839171b60405160405180910390a4600190506114ec565b5f90505b92915050565b5f6114fb6113ff565b6bffffffffffffffffffffffff16905080826bffffffffffffffffffffffff161115611562578382826040517fdfd1fc1b00000000000000000000000000000000000000000000000000000000815260040161155993929190612f92565b60405180910390fd5b5f73ffffffffffffffffffffffffffffffffffffffff168373ffffffffffffffffffffffffffffffffffffffff16036115d457835f6040517f969f08520000000000000000000000000000000000000000000000000000000081526004016115cb929190612fc7565b60405180910390fd5b60405180604001604052808473ffffffffffffffffffffffffffffffffffffffff168152602001836bffffffffffffffffffffffff1681525060085f8681526020019081526020015f205f820151815f015f6101000a81548173ffffffffffffffffffffffffffffffffffffffff021916908373ffffffffffffffffffffffffffffffffffffffff1602179055506020820151815f0160146101000a8154816bffffffffffffffffffffffff02191690836bffffffffffffffffffffffff16021790555090505050505050565b5f73ffffffffffffffffffffffffffffffffffffffff168373ffffffffffffffffffffffffffffffffffffffff1603611711575f6040517fa9fbf51f0000000000000000000000000000000000000000000000000000000081526004016117089190612774565b60405180910390fd5b5f73ffffffffffffffffffffffffffffffffffffffff168273ffffffffffffffffffffffffffffffffffffffff160361178157816040517f5b08ba180000000000000000000000000000000000000000000000000000000081526004016117789190612774565b60405180910390fd5b8060055f8573ffffffffffffffffffffffffffffffffffffffff1673ffffffffffffffffffffffffffffffffffffffff1681526020019081526020015f205f8473ffffffffffffffffffffffffffffffffffffffff1673ffffffffffffffffffffffffffffffffffffffff1681526020019081526020015f205f6101000a81548160ff0219169083151502179055508173ffffffffffffffffffffffffffffffffffffffff168373ffffffffffffffffffffffffffffffffffffffff167f17307eab39ab6107e8899845ad3d59bd9653f200f220920489ca2b5937696c318360405161186d9190612585565b60405180910390a3505050565b5f8373ffffffffffffffffffffffffffffffffffffffff163b1115611a1f578273ffffffffffffffffffffffffffffffffffffffff1663150b7a02868685856040518563ffffffff1660e01b81526004016118d89493929190613040565b6020604051808303815f875af192505050801561191357506040513d601f19601f82011682018060405250810190611910919061309e565b60015b611994573d805f8114611941576040519150601f19603f3d011682016040523d82523d5f602084013e611946565b606091505b505f81510361198c57836040517f64a0ae920000000000000000000000000000000000000000000000000000000081526004016119839190612774565b60405180910390fd5b805160208201fd5b63150b7a0260e01b7bffffffffffffffffffffffffffffffffffffffffffffffffffffffff1916817bffffffffffffffffffffffffffffffffffffffffffffffffffffffff191614611a1d57836040517f64a0ae92000000000000000000000000000000000000000000000000000000008152600401611a149190612774565b60405180910390fd5b505b5050505050565b606060405180602001604052805f815250905090565b606060065f8381526020019081526020015f208054611a5a90612d5e565b80601f0160208091040260200160405190810160405280929190818152602001828054611a8690612d5e565b8015611ad15780601f10611aa857610100808354040283529160200191611ad1565b820191905f5260205f20905b815481529060010190602001808311611ab457829003601f168201915b50505050509050919050565b6060611ae882611032565b505f611af2611a26565b90505f815111611b105760405180602001604052805f815250611b3b565b80611b1a84611f3f565b604051602001611b2b929190612ec8565b6040516020818303038152906040525b915050919050565b611b5c828260405180602001604052805f815250612009565b5050565b8060065f8481526020019081526020015f209081611b7e9190613271565b507ff8e1a15aba9398e019f0b49df1a4fde98ee17ae345cb5f6b5e2c27f5033e8ce782604051611bae91906129ce565b60405180910390a15050565b5f7f2a55205a000000000000000000000000000000000000000000000000000000007bffffffffffffffffffffffffffffffffffffffffffffffffffffffff1916827bffffffffffffffffffffffffffffffffffffffffffffffffffffffff19161480611c2c5750611c2b8261202c565b5b9050919050565b611c3d8282610a77565b611c805780826040517fe2517d3f000000000000000000000000000000000000000000000000000000008152600401611c77929190613340565b60405180910390fd5b5050565b5f60025f8381526020019081526020015f205f9054906101000a900473ffffffffffffffffffffffffffffffffffffffff169050919050565b8080611cf557505f73ffffffffffffffffffffffffffffffffffffffff168273ffffffffffffffffffffffffffffffffffffffff1614155b15611e27575f611d0484611032565b90505f73ffffffffffffffffffffffffffffffffffffffff168373ffffffffffffffffffffffffffffffffffffffff1614158015611d6e57508273ffffffffffffffffffffffffffffffffffffffff168173ffffffffffffffffffffffffffffffffffffffff1614155b8015611d815750611d7f8184610d7c565b155b15611dc357826040517fa9fbf51f000000000000000000000000000000000000000000000000000000008152600401611dba9190612774565b60405180910390fd5b8115611e2557838573ffffffffffffffffffffffffffffffffffffffff168273ffffffffffffffffffffffffffffffffffffffff167f8c5be1e5ebec7d5bd14f71427d1e84f3dd0314c0f7b2291e5b200ac8c7c3b92560405160405180910390a45b505b8360045f8581526020019081526020015f205f6101000a81548173ffffffffffffffffffffffffffffffffffffffff021916908373ffffffffffffffffffffffffffffffffffffffff16021790555050505050565b611e8783838361208c565b611f3a575f73ffffffffffffffffffffffffffffffffffffffff168373ffffffffffffffffffffffffffffffffffffffff1603611efb57806040517f7e273289000000000000000000000000000000000000000000000000000000008152600401611ef291906129ce565b60405180910390fd5b81816040517f177e802f000000000000000000000000000000000000000000000000000000008152600401611f31929190612919565b60405180910390fd5b505050565b60605f6001611f4d8461214c565b0190505f8167ffffffffffffffff811115611f6b57611f6a612a57565b5b6040519080825280601f01601f191660200182016040528015611f9d5781602001600182028036833780820191505090505b5090505f82602083010190505b600115611ffe578080600190039150507f3031323334353637383961626364656600000000000000000000000000000000600a86061a8153600a8581611ff357611ff2612e31565b5b0494505f8503611faa575b819350505050919050565b612013838361229d565b61202761201e6110f1565b5f85858561187a565b505050565b5f634906490660e01b7bffffffffffffffffffffffffffffffffffffffffffffffffffffffff1916827bffffffffffffffffffffffffffffffffffffffffffffffffffffffff19161480612085575061208482612390565b5b9050919050565b5f5f73ffffffffffffffffffffffffffffffffffffffff168373ffffffffffffffffffffffffffffffffffffffff161415801561214357508273ffffffffffffffffffffffffffffffffffffffff168473ffffffffffffffffffffffffffffffffffffffff16148061210457506121038484610d7c565b5b8061214257508273ffffffffffffffffffffffffffffffffffffffff1661212a836110b8565b73ffffffffffffffffffffffffffffffffffffffff16145b5b90509392505050565b5f5f5f90507a184f03e93ff9f4daa797ed6e38ed64bf6a1f01000000000000000083106121a8577a184f03e93ff9f4daa797ed6e38ed64bf6a1f010000000000000000838161219e5761219d612e31565b5b0492506040810190505b6d04ee2d6d415b85acef810000000083106121e5576d04ee2d6d415b85acef810000000083816121db576121da612e31565b5b0492506020810190505b662386f26fc10000831061221457662386f26fc10000838161220a57612209612e31565b5b0492506010810190505b6305f5e100831061223d576305f5e100838161223357612232612e31565b5b0492506008810190505b612710831061226257612710838161225857612257612e31565b5b0492506004810190505b60648310612285576064838161227b5761227a612e31565b5b0492506002810190505b600a8310612294576001810190505b80915050919050565b5f73ffffffffffffffffffffffffffffffffffffffff168273ffffffffffffffffffffffffffffffffffffffff160361230d575f6040517f64a0ae920000000000000000000000000000000000000000000000000000000081526004016123049190612774565b60405180910390fd5b5f61231983835f61110a565b90505f73ffffffffffffffffffffffffffffffffffffffff168173ffffffffffffffffffffffffffffffffffffffff161461238b575f6040517f73c6ac6e0000000000000000000000000000000000000000000000000000000081526004016123829190612774565b60405180910390fd5b505050565b5f7f80ac58cd000000000000000000000000000000000000000000000000000000007bffffffffffffffffffffffffffffffffffffffffffffffffffffffff1916827bffffffffffffffffffffffffffffffffffffffffffffffffffffffff1916148061245a57507f5b5e139f000000000000000000000000000000000000000000000000000000007bffffffffffffffffffffffffffffffffffffffffffffffffffffffff1916827bffffffffffffffffffffffffffffffffffffffffffffffffffffffff1916145b8061246a575061246982612471565b5b9050919050565b5f7f01ffc9a7000000000000000000000000000000000000000000000000000000007bffffffffffffffffffffffffffffffffffffffffffffffffffffffff1916827bffffffffffffffffffffffffffffffffffffffffffffffffffffffff1916149050919050565b5f604051905090565b5f5ffd5b5f5ffd5b5f7fffffffff0000000000000000000000000000000000000000000000000000000082169050919050565b61251f816124eb565b8114612529575f5ffd5b50565b5f8135905061253a81612516565b92915050565b5f60208284031215612555576125546124e3565b5b5f6125628482850161252c565b91505092915050565b5f8115159050919050565b61257f8161256b565b82525050565b5f6020820190506125985f830184612576565b92915050565b5f73ffffffffffffffffffffffffffffffffffffffff82169050919050565b5f6125c78261259e565b9050919050565b6125d7816125bd565b81146125e1575f5ffd5b50565b5f813590506125f2816125ce565b92915050565b5f6bffffffffffffffffffffffff82169050919050565b612618816125f8565b8114612622575f5ffd5b50565b5f813590506126338161260f565b92915050565b5f5f6040838503121561264f5761264e6124e3565b5b5f61265c858286016125e4565b925050602061266d85828601612625565b9150509250929050565b5f81519050919050565b5f82825260208201905092915050565b8281835e5f83830152505050565b5f601f19601f8301169050919050565b5f6126b982612677565b6126c38185612681565b93506126d3818560208601612691565b6126dc8161269f565b840191505092915050565b5f6020820190508181035f8301526126ff81846126af565b905092915050565b5f819050919050565b61271981612707565b8114612723575f5ffd5b50565b5f8135905061273481612710565b92915050565b5f6020828403121561274f5761274e6124e3565b5b5f61275c84828501612726565b91505092915050565b61276e816125bd565b82525050565b5f6020820190506127875f830184612765565b92915050565b5f5f604083850312156127a3576127a26124e3565b5b5f6127b0858286016125e4565b92505060206127c185828601612726565b9150509250929050565b5f5f5f606084860312156127e2576127e16124e3565b5b5f6127ef868287016125e4565b9350506020612800868287016125e4565b925050604061281186828701612726565b9150509250925092565b5f819050919050565b61282d8161281b565b8114612837575f5ffd5b50565b5f8135905061284881612824565b92915050565b5f60208284031215612863576128626124e3565b5b5f6128708482850161283a565b91505092915050565b6128828161281b565b82525050565b5f60208201905061289b5f830184612879565b92915050565b5f602082840312156128b6576128b56124e3565b5b5f6128c3848285016125e4565b91505092915050565b5f5f604083850312156128e2576128e16124e3565b5b5f6128ef85828601612726565b925050602061290085828601612726565b9150509250929050565b61291381612707565b82525050565b5f60408201905061292c5f830185612765565b612939602083018461290a565b9392505050565b5f5f60408385031215612956576129556124e3565b5b5f6129638582860161283a565b9250506020612974858286016125e4565b9150509250929050565b5f5f5f60608486031215612995576129946124e3565b5b5f6129a286828701612726565b93505060206129b3868287016125e4565b92505060406129c486828701612625565b9150509250925092565b5f6020820190506129e15f83018461290a565b92915050565b6129f08161256b565b81146129fa575f5ffd5b50565b5f81359050612a0b816129e7565b92915050565b5f5f60408385031215612a2757612a266124e3565b5b5f612a34858286016125e4565b9250506020612a45858286016129fd565b9150509250929050565b5f5ffd5b5f5ffd5b7f4e487b71000000000000000000000000000000000000000000000000000000005f52604160045260245ffd5b612a8d8261269f565b810181811067ffffffffffffffff82111715612aac57612aab612a57565b5b80604052505050565b5f612abe6124da565b9050612aca8282612a84565b919050565b5f67ffffffffffffffff821115612ae957612ae8612a57565b5b612af28261269f565b9050602081019050919050565b828183375f83830152505050565b5f612b1f612b1a84612acf565b612ab5565b905082815260208101848484011115612b3b57612b3a612a53565b5b612b46848285612aff565b509392505050565b5f82601f830112612b6257612b61612a4f565b5b8135612b72848260208601612b0d565b91505092915050565b5f5f5f5f60808587031215612b9357612b926124e3565b5b5f612ba0878288016125e4565b9450506020612bb1878288016125e4565b9350506040612bc287828801612726565b925050606085013567ffffffffffffffff811115612be357612be26124e7565b5b612bef87828801612b4e565b91505092959194509250565b5f67ffffffffffffffff821115612c1557612c14612a57565b5b612c1e8261269f565b9050602081019050919050565b5f612c3d612c3884612bfb565b612ab5565b905082815260208101848484011115612c5957612c58612a53565b5b612c64848285612aff565b509392505050565b5f82601f830112612c8057612c7f612a4f565b5b8135612c90848260208601612c2b565b91505092915050565b5f5f60408385031215612caf57612cae6124e3565b5b5f612cbc858286016125e4565b925050602083013567ffffffffffffffff811115612cdd57612cdc6124e7565b5b612ce985828601612c6c565b9150509250929050565b5f5f60408385031215612d0957612d086124e3565b5b5f612d16858286016125e4565b9250506020612d27858286016125e4565b9150509250929050565b7f4e487b71000000000000000000000000000000000000000000000000000000005f52602260045260245ffd5b5f6002820490506001821680612d7557607f821691505b602082108103612d8857612d87612d31565b5b50919050565b5f606082019050612da15f830186612765565b612dae602083018561290a565b612dbb6040830184612765565b949350505050565b7f4e487b71000000000000000000000000000000000000000000000000000000005f52601160045260245ffd5b5f612dfa82612707565b9150612e0583612707565b9250828202612e1381612707565b91508282048414831517612e2a57612e29612dc3565b5b5092915050565b7f4e487b71000000000000000000000000000000000000000000000000000000005f52601260045260245ffd5b5f612e6882612707565b9150612e7383612707565b925082612e8357612e82612e31565b5b828204905092915050565b5f81905092915050565b5f612ea282612677565b612eac8185612e8e565b9350612ebc818560208601612691565b80840191505092915050565b5f612ed38285612e98565b9150612edf8284612e98565b91508190509392505050565b5f612ef582612707565b91507fffffffffffffffffffffffffffffffffffffffffffffffffffffffffffffffff8203612f2757612f26612dc3565b5b600182019050919050565b5f819050919050565b5f612f55612f50612f4b846125f8565b612f32565b612707565b9050919050565b612f6581612f3b565b82525050565b5f604082019050612f7e5f830185612f5c565b612f8b602083018461290a565b9392505050565b5f606082019050612fa55f83018661290a565b612fb26020830185612f5c565b612fbf604083018461290a565b949350505050565b5f604082019050612fda5f83018561290a565b612fe76020830184612765565b9392505050565b5f81519050919050565b5f82825260208201905092915050565b5f61301282612fee565b61301c8185612ff8565b935061302c818560208601612691565b6130358161269f565b840191505092915050565b5f6080820190506130535f830187612765565b6130606020830186612765565b61306d604083018561290a565b818103606083015261307f8184613008565b905095945050505050565b5f8151905061309881612516565b92915050565b5f602082840312156130b3576130b26124e3565b5b5f6130c08482850161308a565b91505092915050565b5f819050815f5260205f209050919050565b5f6020601f8301049050919050565b5f82821b905092915050565b5f600883026131257fffffffffffffffffffffffffffffffffffffffffffffffffffffffffffffffff826130ea565b61312f86836130ea565b95508019841693508086168417925050509392505050565b5f61316161315c61315784612707565b612f32565b612707565b9050919050565b5f819050919050565b61317a83613147565b61318e61318682613168565b8484546130f6565b825550505050565b5f5f905090565b6131a5613196565b6131b0818484613171565b505050565b5f5b828110156131d6576131cb5f82840161319d565b6001810190506131b7565b505050565b601f8211156132295782821115613228576131f5816130c9565b6131fe836130db565b613207856130db565b6020861015613214575f90505b808301613223828403826131b5565b505050505b5b505050565b5f82821c905092915050565b5f6132495f198460080261322e565b1980831691505092915050565b5f613261838361323a565b9150826002028217905092915050565b61327a82612677565b67ffffffffffffffff81111561329357613292612a57565b5b61329d8254612d5e565b6132a88282856131db565b5f60209050601f8311600181146132d9575f84156132c7578287015190505b6132d18582613256565b865550613338565b601f1984166132e7866130c9565b5f5b8281101561330e578489015182556001820191506020850194506020810190506132e9565b8683101561332b5784890151613327601f89168261323a565b8355505b6001600288020188555050505b505050505050565b5f6040820190506133535f830185612765565b6133606020830184612879565b939250505056fea26469706673582212200eeff1e1912562d7ff0e490c688dc3ad103cccece16337b8fe7838230d79102864736f6c63430008210033","linkReferences":{}},"methodIdentifiers":{"DEFAULT_ADMIN_ROLE()":"a217fddf","MINTER_ROLE()":"d5391393","approve(address,uint256)":"095ea7b3","balanceOf(address)":"70a08231","getApproved(uint256)":"081812fc","getRoleAdmin(bytes32)":"248a9ca3","grantMinter(address)":"261707fa","grantRole(bytes32,address)":"2f2ff15d","hasRole(bytes32,address)":"91d14854","isApprovedForAll(address,address)":"e985e9c5","mint(address,string)":"d0def521","name()":"06fdde03","ownerOf(uint256)":"6352211e","renounceRole(bytes32,address)":"36568abe","revokeMinter(address)":"cfbd4885","revokeRole(bytes32,address)":"d547741f","royaltyInfo(uint256,uint256)":"2a55205a","safeTransferFrom(address,address,uint256)":"42842e0e","safeTransferFrom(address,address,uint256,bytes)":"b88d4fde","setApprovalForAll(address,bool)":"a22cb465","setDefaultRoyalty(address,uint96)":"04634d8d","setTokenRoyalty(uint256,address,uint96)":"5944c753","supportsInterface(bytes4)":"01ffc9a7","symbol()":"95d89b41","tokenCounter()":"d082e381","tokenURI(uint256)":"c87b56dd","transferFrom(address,address,uint256)":"23b872dd"},"id":43}