{"abi":[{"type":"constructor","inputs":[{"name":"admin","type":"address","internalType":"address"}],"stateMutability":"nonpayable"},{"type":"function","name":"DEFAULT_ADMIN_ROLE","inputs":[],"outputs":[{"name":"","type":"bytes32","internalType":"bytes32"}],"stateMutability":"view"},{"type":"function","name":"REGISTRAR_ROLE","inputs":[],"outputs":[{"name":"","type":"bytes32","internalType":"bytes32"}],"stateMutability":"view"},{"type":"function","name":"deactivateVault","inputs":[{"name":"vaultId","type":"string","internalType":"string"}],"outputs":[],"stateMutability":"nonpayable"},{"type":"function","name":"getAllVaultIds","inputs":[],"outputs":[{"name":"","type":"string[]","internalType":"string[]"}],"stateMutability":"view"},{"type":"function","name":"getRoleAdmin","inputs":[{"name":"role","type":"bytes32","internalType":"bytes32"}],"outputs":[{"name":"","type":"bytes32","internalType":"bytes32"}],"stateMutability":"view"},{"type":"function","name":"getVault","inputs":[{"name":"vaultId","type":"string","internalType":"string"}],"outputs":[{"name":"","type":"tuple","internalType":"struct VaultRegistry.Vault","components":[{"name":"vaultId","type":"string","internalType":"string"},{"name":"tokenId","type":"uint256","internalType":"uint256"},{"name":"contractAddress","type":"address","internalType":"address"},{"name":"legalURI","type":"string","internalType":"string"},{"name":"active","type":"bool","internalType":"bool"},{"name":"registeredBy","type":"address","internalType":"address"},{"name":"registeredAt","type":"uint256","internalType":"uint256"}]}],"stateMutability":"view"},{"type":"function","name":"grantRole","inputs":[{"name":"role","type":"bytes32","internalType":"bytes32"},{"name":"account","type":"address","internalType":"address"}],"outputs":[],"stateMutability":"nonpayable"},{"type":"function","name":"hasRole","inputs":[{"name":"role","type":"bytes32","internalType":"bytes32"},{"name":"account","type":"address","internalType":"address"}],"outputs":[{"name":"","type":"bool","internalType":"bool"}],"stateMutability":"view"},{"type":"function","name":"isActive","inputs":[{"name":"vaultId","type":"string","internalType":"string"}],"outputs":[{"name":"","type":"bool","internalType":"bool"}],"stateMutability":"view"},{"type":"function","name":"registerVault","inputs":[{"name":"vaultId","type":"string","internalType":"string"},{"name":"tokenId","type":"uint256","internalType":"uint256"},{"name":"contractAddr","type":"address","internalType":"address"},{"name":"legalURI","type":"string","internalType":"string"}],"outputs":[],"stateMutability":"nonpayable"},{"type":"function","name":"renounceRole","inputs":[{"name":"role","type":"bytes32","internalType":"bytes32"},{"name":"callerConfirmation","type":"address","internalType":"address"}],"outputs":[],"stateMutability":"nonpayable"},{"type":"function","name":"revokeRole","inputs":[{"name":"role","type":"bytes32","internalType":"bytes32"},{"name":"account","type":"address","internalType":"address"}],"outputs":[],"stateMutability":"nonpayable"},{"type":"function","name":"supportsInterface","inputs":[{"name":"interfaceId","type":"bytes4","internalType":"bytes4"}],"outputs":[{"name":"","type":"bool","internalType":"bool"}],"stateMutability":"view"},{"type":"function","name":"totalVaults","inputs":[],"outputs":[{"name":"","type":"uint256","internalType":"uint256"}],"stateMutability":"view"},{"type":"function","name":"updateLegalURI","inputs":[{"name":"vaultId","type":"string","internalType":"string"},{"name":"newLegalURI","type":"string","internalType":"string"}],"outputs":[],"stateMutability":"nonpayable"},{"type":"event","name":"RoleAdminChanged","inputs":[{"name":"role","type":"bytes32","indexed":true,"internalType":"bytes32"},{"name":"previousAdminRole","type":"bytes32","indexed":true,"internalType":"bytes32"},{"name":"newAdminRole","type":"bytes32","indexed":true,"internalType":"bytes32"}],"anonymous":false},{"type":"event","name":"RoleGranted","inputs":[{"name":"role","type":"bytes32","indexed":true,"internalType":"bytes32"},{"name":"account","type":"address","indexed":true,"internalType":"address"},{"name":"sender","type":"address","indexed":true,"internalType":"address"}],"anonymous":false},{"type":"event","name":"RoleRevoked","inputs":[{"name":"role","type":"bytes32","indexed":true,"internalType":"bytes32"},{"name":"account","type":"address","indexed":true,"internalType":"address"},{"name":"sender","type":"address","indexed":true,"internalType":"address"}],"anonymous":false},{"type":"event","name":"VaultDeactivated","inputs":[{"name":"vaultId","type":"string","indexed":true,"internalType":"string"},{"name":"deactivatedBy","type":"address","indexed":true,"internalType":"address"},{"name":"timestamp","type":"uint256","indexed":false,"internalType":"uint256"}],"anonymous":false},{"type":"event","name":"VaultLegalURIUpdated","inputs":[{"name":"vaultId","type":"string","indexed":true,"internalType":"string"},{"name":"newLegalURI","type":"string","indexed":false,"internalType":"string"},{"name":"updatedBy","type":"address","indexed":true,"internalType":"address"},{"name":"timestamp","type":"uint256","indexed":false,"internalType":"uint256"}],"anonymous":false},{"type":"event","name":"VaultRegistered","inputs":[{"name":"vaultId","type":"string","indexed":true,"internalType":"string"},{"name":"tokenId","type":"uint256","indexed":false,"internalType":"uint256"},{"name":"contractAddr","type":"address","indexed":true,"internalType":"address"},{"name":"legalURI","type":"string","indexed":false,"internalType":"string"},{"name":"registeredBy","type":"address","indexed":true,"internalType":"address"},{"name":"timestamp","type":"uint256","indexed":false,"internalType":"uint256"}],"anonymous":false},{"type":"error","name":"AccessControlBadConfirmation","inputs":[]},{"type":"error","name":"AccessControlUnauthorizedAccount","inputs":[{"name":"account","type":"address","internalType":"address"},{"name":"neededRole","type":"bytes32","internalType":"bytes32"}]},{"type":"error","name":"EmptyVaultId","inputs":[]},{"type":"error","name":"InvalidContractAddress","inputs":[]},{"type":"error","name":"VaultAlreadyExists","inputs":[{"name":"vaultId","type":"string","internalType":"string"}]},{"type":"error","name":"VaultAlreadyInactive","inputs":[{"name":"vaultId","type":"string","internalType":"string"}]},{"type":"error","name":"VaultNotFound","inputs":[{"name":"vaultId","type":"string","internalType":"string"}]}],"bytecode":{"object":"0x608060405234801561000f575f5ffd5b50604051612178380380612178833981810160405281019061003191906102a6565b5f73ffffffffffffffffffffffffffffffffffffffff168173ffffffffffffffffffffffffffffffffffffffff160361009f576040517f08c379a00000000000000000000000000000000000000000000000000000000081526004016100969061032b565b60405180910390fd5b6100b15f5f1b826100e960201b60201c565b506100e27fedcc084d3dcd65a1f7f23c65c46722faca6953d28e43150a467cf43e5c309238826100e960201b60201c565b5050610349565b5f6100fa83836101de60201b60201c565b6101d45760015f5f8581526020019081526020015f205f015f8473ffffffffffffffffffffffffffffffffffffffff1673ffffffffffffffffffffffffffffffffffffffff1681526020019081526020015f205f6101000a81548160ff02191690831515021790555061017161024160201b60201c565b73ffffffffffffffffffffffffffffffffffffffff168273ffffffffffffffffffffffffffffffffffffffff16847f2f8788117e7eff1d82e926ec794901d17c78024a50270940304540a733656f0d60405160405180910390a4600190506101d8565b5f90505b92915050565b5f5f5f8481526020019081526020015f205f015f8373ffffffffffffffffffffffffffffffffffffffff1673ffffffffffffffffffffffffffffffffffffffff1681526020019081526020015f205f9054906101000a900460ff16905092915050565b5f33905090565b5f5ffd5b5f73ffffffffffffffffffffffffffffffffffffffff82169050919050565b5f6102758261024c565b9050919050565b6102858161026b565b811461028f575f5ffd5b50565b5f815190506102a08161027c565b92915050565b5f602082840312156102bb576102ba610248565b5b5f6102c884828501610292565b91505092915050565b5f82825260208201905092915050565b7f41646d696e2063616e6e6f74206265207a65726f2061646472657373000000005f82015250565b5f610315601c836102d1565b9150610320826102e1565b602082019050919050565b5f6020820190508181035f83015261034281610309565b9050919050565b611e22806103565f395ff3fe608060405234801561000f575f5ffd5b50600436106100f3575f3560e01c806368f9489911610095578063b7e6aa7111610064578063b7e6aa711461027f578063c8902a211461029d578063d547741f146102cd578063f68e9553146102e9576100f3565b806368f94899146101f75780638d6540231461021357806391d1485414610231578063a217fddf14610261576100f3565b80632f2ff15d116100d15780632f2ff15d1461017357806336568abe1461018f57806345590232146101ab57806345947bec146101c7576100f3565b806301ffc9a7146100f75780630e6dee4014610127578063248a9ca314610143575b5f5ffd5b610111600480360381019061010c91906112d9565b610307565b60405161011e919061131e565b60405180910390f35b610141600480360381019061013c9190611425565b610380565b005b61015d600480360381019061015891906114fb565b610770565b60405161016a9190611535565b60405180910390f35b61018d6004803603810190610188919061154e565b61078c565b005b6101a960048036038101906101a4919061154e565b6107ae565b005b6101c560048036038101906101c0919061158c565b610829565b005b6101e160048036038101906101dc919061158c565b6109d4565b6040516101ee9190611714565b60405180910390f35b610211600480360381019061020c9190611734565b610c70565b005b61021b610da7565b60405161022891906117c1565b60405180910390f35b61024b6004803603810190610246919061154e565b610db3565b604051610258919061131e565b60405180910390f35b610269610e16565b6040516102769190611535565b60405180910390f35b610287610e1c565b6040516102949190611895565b60405180910390f35b6102b760048036038101906102b2919061158c565b610ef0565b6040516102c4919061131e565b60405180910390f35b6102e760048036038101906102e2919061154e565b610f29565b005b6102f1610f4b565b6040516102fe9190611535565b60405180910390f35b5f7f7965db0b000000000000000000000000000000000000000000000000000000007bffffffffffffffffffffffffffffffffffffffffffffffffffffffff1916827bffffffffffffffffffffffffffffffffffffffffffffffffffffffff19161480610379575061037882610f6f565b5b9050919050565b7fedcc084d3dcd65a1f7f23c65c46722faca6953d28e43150a467cf43e5c3092386103aa81610fd8565b5f87879050036103e6576040517f8939c4d200000000000000000000000000000000000000000000000000000000815260040160405180910390fd5b5f73ffffffffffffffffffffffffffffffffffffffff168473ffffffffffffffffffffffffffffffffffffffff160361044b576040517fa710429d00000000000000000000000000000000000000000000000000000000815260040160405180910390fd5b5f6001888860405161045e9291906118f1565b908152602001604051809103902060050154146104b45786866040517f2db800910000000000000000000000000000000000000000000000000000000081526004016104ab929190611945565b60405180910390fd5b6040518060e0016040528088888080601f0160208091040260200160405190810160405280939291908181526020018383808284375f81840152601f19601f8201169050808301925050505050505081526020018681526020018573ffffffffffffffffffffffffffffffffffffffff16815260200184848080601f0160208091040260200160405190810160405280939291908181526020018383808284375f81840152601f19601f8201169050808301925050505050505081526020016001151581526020013373ffffffffffffffffffffffffffffffffffffffff16815260200142815250600188886040516105ae9291906118f1565b90815260200160405180910390205f820151815f0190816105cf9190611ba2565b50602082015181600101556040820151816002015f6101000a81548173ffffffffffffffffffffffffffffffffffffffff021916908373ffffffffffffffffffffffffffffffffffffffff16021790555060608201518160030190816106359190611ba2565b506080820151816004015f6101000a81548160ff02191690831515021790555060a08201518160040160016101000a81548173ffffffffffffffffffffffffffffffffffffffff021916908373ffffffffffffffffffffffffffffffffffffffff16021790555060c082015181600501559050506002878790918060018154018082558091505060019003905f5260205f20015f9091929091929091929091925091826106e3929190611c7b565b503373ffffffffffffffffffffffffffffffffffffffff168473ffffffffffffffffffffffffffffffffffffffff1688886040516107229291906118f1565b60405180910390207f60f699d2746658d2dbaac3304dd4a3481d19f4801e0e60ea32d2c2fb5e50ab008887874260405161075f9493929190611d48565b60405180910390a450505050505050565b5f5f5f8381526020019081526020015f20600101549050919050565b61079582610770565b61079e81610fd8565b6107a88383610fec565b50505050565b6107b66110d5565b73ffffffffffffffffffffffffffffffffffffffff168173ffffffffffffffffffffffffffffffffffffffff161461081a576040517f6697b23200000000000000000000000000000000000000000000000000000000815260040160405180910390fd5b61082482826110dc565b505050565b7fedcc084d3dcd65a1f7f23c65c46722faca6953d28e43150a467cf43e5c30923861085381610fd8565b5f600184846040516108669291906118f1565b908152602001604051809103902060050154036108bc5782826040517f589c86ce0000000000000000000000000000000000000000000000000000000081526004016108b3929190611945565b60405180910390fd5b600183836040516108ce9291906118f1565b90815260200160405180910390206004015f9054906101000a900460ff1661092f5782826040517fb4fb1727000000000000000000000000000000000000000000000000000000008152600401610926929190611945565b60405180910390fd5b5f600184846040516109429291906118f1565b90815260200160405180910390206004015f6101000a81548160ff0219169083151502179055503373ffffffffffffffffffffffffffffffffffffffff1683836040516109909291906118f1565b60405180910390207fa974bcec8f67be79fb2ece8b378fadad9889cfeb08bac0028e19c0e6dab4f2d2426040516109c791906117c1565b60405180910390a3505050565b6109dc611216565b5f600184846040516109ef9291906118f1565b90815260200160405180910390206005015403610a455782826040517f589c86ce000000000000000000000000000000000000000000000000000000008152600401610a3c929190611945565b60405180910390fd5b60018383604051610a579291906118f1565b90815260200160405180910390206040518060e00160405290815f82018054610a7f906119c1565b80601f0160208091040260200160405190810160405280929190818152602001828054610aab906119c1565b8015610af65780601f10610acd57610100808354040283529160200191610af6565b820191905f5260205f20905b815481529060010190602001808311610ad957829003601f168201915b5050505050815260200160018201548152602001600282015f9054906101000a900473ffffffffffffffffffffffffffffffffffffffff1673ffffffffffffffffffffffffffffffffffffffff1673ffffffffffffffffffffffffffffffffffffffff168152602001600382018054610b6e906119c1565b80601f0160208091040260200160405190810160405280929190818152602001828054610b9a906119c1565b8015610be55780601f10610bbc57610100808354040283529160200191610be5565b820191905f5260205f20905b815481529060010190602001808311610bc857829003601f168201915b50505050508152602001600482015f9054906101000a900460ff161515151581526020016004820160019054906101000a900473ffffffffffffffffffffffffffffffffffffffff1673ffffffffffffffffffffffffffffffffffffffff1673ffffffffffffffffffffffffffffffffffffffff168152602001600582015481525050905092915050565b7fedcc084d3dcd65a1f7f23c65c46722faca6953d28e43150a467cf43e5c309238610c9a81610fd8565b5f60018686604051610cad9291906118f1565b90815260200160405180910390206005015403610d035784846040517f589c86ce000000000000000000000000000000000000000000000000000000008152600401610cfa929190611945565b60405180910390fd5b828260018787604051610d179291906118f1565b90815260200160405180910390206003019182610d35929190611c7b565b503373ffffffffffffffffffffffffffffffffffffffff168585604051610d5d9291906118f1565b60405180910390207f6ef9382578a86e4e3bc98aa1c275be78f95a5123ec638f1b40863c42b6794183858542604051610d9893929190611d86565b60405180910390a35050505050565b5f600280549050905090565b5f5f5f8481526020019081526020015f205f015f8373ffffffffffffffffffffffffffffffffffffffff1673ffffffffffffffffffffffffffffffffffffffff1681526020019081526020015f205f9054906101000a900460ff16905092915050565b5f5f1b81565b60606002805480602002602001604051908101604052809291908181526020015f905b82821015610ee7578382905f5260205f20018054610e5c906119c1565b80601f0160208091040260200160405190810160405280929190818152602001828054610e88906119c1565b8015610ed35780601f10610eaa57610100808354040283529160200191610ed3565b820191905f5260205f20905b815481529060010190602001808311610eb657829003601f168201915b505050505081526020019060010190610e3f565b50505050905090565b5f60018383604051610f039291906118f1565b90815260200160405180910390206004015f9054906101000a900460ff16905092915050565b610f3282610770565b610f3b81610fd8565b610f4583836110dc565b50505050565b7fedcc084d3dcd65a1f7f23c65c46722faca6953d28e43150a467cf43e5c30923881565b5f7f01ffc9a7000000000000000000000000000000000000000000000000000000007bffffffffffffffffffffffffffffffffffffffffffffffffffffffff1916827bffffffffffffffffffffffffffffffffffffffffffffffffffffffff1916149050919050565b610fe981610fe46110d5565b6111c5565b50565b5f610ff78383610db3565b6110cb5760015f5f8581526020019081526020015f205f015f8473ffffffffffffffffffffffffffffffffffffffff1673ffffffffffffffffffffffffffffffffffffffff1681526020019081526020015f205f6101000a81548160ff0219169083151502179055506110686110d5565b73ffffffffffffffffffffffffffffffffffffffff168273ffffffffffffffffffffffffffffffffffffffff16847f2f8788117e7eff1d82e926ec794901d17c78024a50270940304540a733656f0d60405160405180910390a4600190506110cf565b5f90505b92915050565b5f33905090565b5f6110e78383610db3565b156111bb575f5f5f8581526020019081526020015f205f015f8473ffffffffffffffffffffffffffffffffffffffff1673ffffffffffffffffffffffffffffffffffffffff1681526020019081526020015f205f6101000a81548160ff0219169083151502179055506111586110d5565b73ffffffffffffffffffffffffffffffffffffffff168273ffffffffffffffffffffffffffffffffffffffff16847ff6391f5c32d9c69d2a47ea670b442974b53935d1edc7fd64eb21e047a839171b60405160405180910390a4600190506111bf565b5f90505b92915050565b6111cf8282610db3565b6112125780826040517fe2517d3f000000000000000000000000000000000000000000000000000000008152600401611209929190611dc5565b60405180910390fd5b5050565b6040518060e00160405280606081526020015f81526020015f73ffffffffffffffffffffffffffffffffffffffff168152602001606081526020015f151581526020015f73ffffffffffffffffffffffffffffffffffffffff1681526020015f81525090565b5f5ffd5b5f5ffd5b5f7fffffffff0000000000000000000000000000000000000000000000000000000082169050919050565b6112b881611284565b81146112c2575f5ffd5b50565b5f813590506112d3816112af565b92915050565b5f602082840312156112ee576112ed61127c565b5b5f6112fb848285016112c5565b91505092915050565b5f8115159050919050565b61131881611304565b82525050565b5f6020820190506113315f83018461130f565b92915050565b5f5ffd5b5f5ffd5b5f5ffd5b5f5f83601f84011261135857611357611337565b5b8235905067ffffffffffffffff8111156113755761137461133b565b5b6020830191508360018202830111156113915761139061133f565b5b9250929050565b5f819050919050565b6113aa81611398565b81146113b4575f5ffd5b50565b5f813590506113c5816113a1565b92915050565b5f73ffffffffffffffffffffffffffffffffffffffff82169050919050565b5f6113f4826113cb565b9050919050565b611404816113ea565b811461140e575f5ffd5b50565b5f8135905061141f816113fb565b92915050565b5f5f5f5f5f5f6080878903121561143f5761143e61127c565b5b5f87013567ffffffffffffffff81111561145c5761145b611280565b5b61146889828a01611343565b9650965050602061147b89828a016113b7565b945050604061148c89828a01611411565b935050606087013567ffffffffffffffff8111156114ad576114ac611280565b5b6114b989828a01611343565b92509250509295509295509295565b5f819050919050565b6114da816114c8565b81146114e4575f5ffd5b50565b5f813590506114f5816114d1565b92915050565b5f602082840312156115105761150f61127c565b5b5f61151d848285016114e7565b91505092915050565b61152f816114c8565b82525050565b5f6020820190506115485f830184611526565b92915050565b5f5f604083850312156115645761156361127c565b5b5f611571858286016114e7565b925050602061158285828601611411565b9150509250929050565b5f5f602083850312156115a2576115a161127c565b5b5f83013567ffffffffffffffff8111156115bf576115be611280565b5b6115cb85828601611343565b92509250509250929050565b5f81519050919050565b5f82825260208201905092915050565b8281835e5f83830152505050565b5f601f19601f8301169050919050565b5f611619826115d7565b61162381856115e1565b93506116338185602086016115f1565b61163c816115ff565b840191505092915050565b61165081611398565b82525050565b61165f816113ea565b82525050565b61166e81611304565b82525050565b5f60e083015f8301518482035f86015261168e828261160f565b91505060208301516116a36020860182611647565b5060408301516116b66040860182611656565b50606083015184820360608601526116ce828261160f565b91505060808301516116e36080860182611665565b5060a08301516116f660a0860182611656565b5060c083015161170960c0860182611647565b508091505092915050565b5f6020820190508181035f83015261172c8184611674565b905092915050565b5f5f5f5f6040858703121561174c5761174b61127c565b5b5f85013567ffffffffffffffff81111561176957611768611280565b5b61177587828801611343565b9450945050602085013567ffffffffffffffff81111561179857611797611280565b5b6117a487828801611343565b925092505092959194509250565b6117bb81611398565b82525050565b5f6020820190506117d45f8301846117b2565b92915050565b5f81519050919050565b5f82825260208201905092915050565b5f819050602082019050919050565b5f61180e838361160f565b905092915050565b5f602082019050919050565b5f61182c826117da565b61183681856117e4565b935083602082028501611848856117f4565b805f5b8581101561188357848403895281516118648582611803565b945061186f83611816565b925060208a0199505060018101905061184b565b50829750879550505050505092915050565b5f6020820190508181035f8301526118ad8184611822565b905092915050565b5f81905092915050565b828183375f83830152505050565b5f6118d883856118b5565b93506118e58385846118bf565b82840190509392505050565b5f6118fd8284866118cd565b91508190509392505050565b5f82825260208201905092915050565b5f6119248385611909565b93506119318385846118bf565b61193a836115ff565b840190509392505050565b5f6020820190508181035f83015261195e818486611919565b90509392505050565b7f4e487b71000000000000000000000000000000000000000000000000000000005f52604160045260245ffd5b7f4e487b71000000000000000000000000000000000000000000000000000000005f52602260045260245ffd5b5f60028204905060018216806119d857607f821691505b6020821081036119eb576119ea611994565b5b50919050565b5f819050815f5260205f209050919050565b5f6020601f8301049050919050565b5f82821b905092915050565b5f60088302611a4d7fffffffffffffffffffffffffffffffffffffffffffffffffffffffffffffffff82611a12565b611a578683611a12565b95508019841693508086168417925050509392505050565b5f819050919050565b5f611a92611a8d611a8884611398565b611a6f565b611398565b9050919050565b5f819050919050565b611aab83611a78565b611abf611ab782611a99565b848454611a1e565b825550505050565b5f5f905090565b611ad6611ac7565b611ae1818484611aa2565b505050565b5f5b82811015611b0757611afc5f828401611ace565b600181019050611ae8565b505050565b601f821115611b5a5782821115611b5957611b26816119f1565b611b2f83611a03565b611b3885611a03565b6020861015611b45575f90505b808301611b5482840382611ae6565b505050505b5b505050565b5f82821c905092915050565b5f611b7a5f1984600802611b5f565b1980831691505092915050565b5f611b928383611b6b565b9150826002028217905092915050565b611bab826115d7565b67ffffffffffffffff811115611bc457611bc3611967565b5b611bce82546119c1565b611bd9828285611b0c565b5f60209050601f831160018114611c0a575f8415611bf8578287015190505b611c028582611b87565b865550611c69565b601f198416611c18866119f1565b5f5b82811015611c3f57848901518255600182019150602085019450602081019050611c1a565b86831015611c5c5784890151611c58601f891682611b6b565b8355505b6001600288020188555050505b505050505050565b5f82905092915050565b611c858383611c71565b67ffffffffffffffff811115611c9e57611c9d611967565b5b611ca882546119c1565b611cb3828285611b0c565b5f601f831160018114611ce0575f8415611cce578287013590505b611cd88582611b87565b865550611d3f565b601f198416611cee866119f1565b5f5b82811015611d1557848901358255600182019150602085019450602081019050611cf0565b86831015611d325784890135611d2e601f891682611b6b565b8355505b6001600288020188555050505b50505050505050565b5f606082019050611d5b5f8301876117b2565b8181036020830152611d6e818587611919565b9050611d7d60408301846117b2565b95945050505050565b5f6040820190508181035f830152611d9f818587611919565b9050611dae60208301846117b2565b949350505050565b611dbf816113ea565b82525050565b5f604082019050611dd85f830185611db6565b611de56020830184611526565b939250505056fea264697066735822122035e24fa6f32ae3c96e409f15fe4943ea0b05ecdc00e6f1888e3ce466d7856ee064736f6c63430008210033","linkReferences":{}},"methodIdentifiers":{"DEFAULT_ADMIN_ROLE()":"a217fddf","REGISTRAR_ROLE()":"f68e9553","deactivateVault(string)":"45590232","getAllVaultIds()":"b7e6aa71","getRoleAdmin(bytes32)":"248a9ca3","getVault(string)":"45947bec","grantRole(bytes32,address)":"2f2ff15d","hasRole(bytes32,address)":"91d14854","isActive(string)":"c8902a21","registerVault(string,uint256,address,string)":"0e6dee40","renounceRole(bytes32,address)":"36568abe","revokeRole(bytes32,address)":"d547741f","supportsInterface(bytes4)":"01ffc9a7","totalVaults()":"8d654023","updateLegalURI(string,string)":"68f94899"},"id":49}