{
  "_format": "hh-sol-artifact-1",
  "contractName": "VaultRegistry",
  "sourceName": "contracts/VaultRegistry.sol",
  "abi": [
    {
      "anonymous": false,
      "inputs": [
        {
          "indexed": false,
          "internalType": "string",
          "name": "vaultId",
          "type": "string"
        },
        {
          "indexed": false,
          "internalType": "uint256",
          "name": "tokenId",
          "type": "uint256"
        },
        {
          "indexed": false,
          "internalType": "address",
          "name": "contractAddr",
          "type": "address"
        },
        {
          "indexed": false,
          "internalType": "string",
          "name": "legalURI",
          "type": "string"
        }
      ],
      "name": "VaultRegistered",
      "type": "event"
    },
    {
      "inputs": [
        {
          "internalType": "string",
          "name": "vaultId",
          "type": "string"
        },
        {
          "internalType": "uint256",
          "name": "tokenId",
          "type": "uint256"
        },
        {
          "internalType": "address",
          "name": "contractAddr",
          "type": "address"
        },
        {
          "internalType": "string",
          "name": "legalURI",
          "type": "string"
        }
      ],
      "name": "registerVault",
      "outputs": [],
      "stateMutability": "nonpayable",
      "type": "function"
    },
    {
      "inputs": [
        {
          "internalType": "string",
          "name": "",
          "type": "string"
        }
      ],
      "name": "vaults",
      "outputs": [
        {
          "internalType": "string",
          "name": "vaultId",
          "type": "string"
        },
        {
          "internalType": "uint256",
          "name": "tokenId",
          "type": "uint256"
        },
        {
          "internalType": "address",
          "name": "contractAddress",
          "type": "address"
        },
        {
          "internalType": "string",
          "name": "legalURI",
          "type": "string"
        },
        {
          "internalType": "bool",
          "name": "active",
          "type": "bool"
        }
      ],
      "stateMutability": "view",
      "type": "function"
    }
  ],
  "bytecode": "0x608060405234801561001057600080fd5b50610c1d806100206000396000f3fe608060405234801561001057600080fd5b50600436106100365760003560e01c80630e6dee401461003b57806311b6f8e614610057575b600080fd5b610055600480360381019061005091906104f2565b61008b565b005b610071600480360381019061006c91906106da565b61025c565b6040516100829594939291906107db565b60405180910390f35b6040518060a0016040528087878080601f016020809104026020016040519081016040528093929190818152602001838380828437600081840152601f19601f8201169050808301925050505050505081526020018581526020018473ffffffffffffffffffffffffffffffffffffffff16815260200183838080601f016020809104026020016040519081016040528093929190818152602001838380828437600081840152601f19601f820116905080830192505050505050508152602001600115158152506000878760405161016592919061086c565b908152602001604051809103902060008201518160000190816101889190610a91565b506020820151816001015560408201518160020160006101000a81548173ffffffffffffffffffffffffffffffffffffffff021916908373ffffffffffffffffffffffffffffffffffffffff16021790555060608201518160030190816101ef9190610a91565b5060808201518160040160006101000a81548160ff0219169083151502179055509050507fe9afcaec24c53dd24fb5445675cd540e94e3dd1eb6c7c23f1658404ceff9a10386868686868660405161024c96959493929190610b90565b60405180910390a1505050505050565b600081805160208101820180518482526020830160208501208183528095505050505050600091509050806000018054610295906108b4565b80601f01602080910402602001604051908101604052809291908181526020018280546102c1906108b4565b801561030e5780601f106102e35761010080835404028352916020019161030e565b820191906000526020600020905b8154815290600101906020018083116102f157829003601f168201915b5050505050908060010154908060020160009054906101000a900473ffffffffffffffffffffffffffffffffffffffff169080600301805461034f906108b4565b80601f016020809104026020016040519081016040528092919081815260200182805461037b906108b4565b80156103c85780601f1061039d576101008083540402835291602001916103c8565b820191906000526020600020905b8154815290600101906020018083116103ab57829003601f168201915b5050505050908060040160009054906101000a900460ff16905085565b6000604051905090565b600080fd5b600080fd5b600080fd5b600080fd5b600080fd5b60008083601f84011261041e5761041d6103f9565b5b8235905067ffffffffffffffff81111561043b5761043a6103fe565b5b60208301915083600182028301111561045757610456610403565b5b9250929050565b6000819050919050565b6104718161045e565b811461047c57600080fd5b50565b60008135905061048e81610468565b92915050565b600073ffffffffffffffffffffffffffffffffffffffff82169050919050565b60006104bf82610494565b9050919050565b6104cf816104b4565b81146104da57600080fd5b50565b6000813590506104ec816104c6565b92915050565b6000806000806000806080878903121561050f5761050e6103ef565b5b600087013567ffffffffffffffff81111561052d5761052c6103f4565b5b61053989828a01610408565b9650965050602061054c89828a0161047f565b945050604061055d89828a016104dd565b935050606087013567ffffffffffffffff81111561057e5761057d6103f4565b5b61058a89828a01610408565b92509250509295509295509295565b600080fd5b6000601f19601f8301169050919050565b7f4e487b7100000000000000000000000000000000000000000000000000000000600052604160045260246000fd5b6105e78261059e565b810181811067ffffffffffffffff82111715610606576106056105af565b5b80604052505050565b60006106196103e5565b905061062582826105de565b919050565b600067ffffffffffffffff821115610645576106446105af565b5b61064e8261059e565b9050602081019050919050565b82818337600083830152505050565b600061067d6106788461062a565b61060f565b90508281526020810184848401111561069957610698610599565b5b6106a484828561065b565b509392505050565b600082601f8301126106c1576106c06103f9565b5b81356106d184826020860161066a565b91505092915050565b6000602082840312156106f0576106ef6103ef565b5b600082013567ffffffffffffffff81111561070e5761070d6103f4565b5b61071a848285016106ac565b91505092915050565b600081519050919050565b600082825260208201905092915050565b60005b8381101561075d578082015181840152602081019050610742565b60008484015250505050565b600061077482610723565b61077e818561072e565b935061078e81856020860161073f565b6107978161059e565b840191505092915050565b6107ab8161045e565b82525050565b6107ba816104b4565b82525050565b60008115159050919050565b6107d5816107c0565b82525050565b600060a08201905081810360008301526107f58188610769565b905061080460208301876107a2565b61081160408301866107b1565b81810360608301526108238185610769565b905061083260808301846107cc565b9695505050505050565b600081905092915050565b6000610853838561083c565b935061086083858461065b565b82840190509392505050565b6000610879828486610847565b91508190509392505050565b7f4e487b7100000000000000000000000000000000000000000000000000000000600052602260045260246000fd5b600060028204905060018216806108cc57607f821691505b6020821081036108df576108de610885565b5b50919050565b60008190508160005260206000209050919050565b60006020601f8301049050919050565b600082821b905092915050565b6000600883026109477fffffffffffffffffffffffffffffffffffffffffffffffffffffffffffffffff8261090a565b610951868361090a565b95508019841693508086168417925050509392505050565b6000819050919050565b600061098e6109896109848461045e565b610969565b61045e565b9050919050565b6000819050919050565b6109a883610973565b6109bc6109b482610995565b848454610917565b825550505050565b600090565b6109d16109c4565b6109dc81848461099f565b505050565b5b81811015610a00576109f56000826109c9565b6001810190506109e2565b5050565b601f821115610a4557610a16816108e5565b610a1f846108fa565b81016020851015610a2e578190505b610a42610a3a856108fa565b8301826109e1565b50505b505050565b600082821c905092915050565b6000610a6860001984600802610a4a565b1980831691505092915050565b6000610a818383610a57565b9150826002028217905092915050565b610a9a82610723565b67ffffffffffffffff811115610ab357610ab26105af565b5b610abd82546108b4565b610ac8828285610a04565b600060209050601f831160018114610afb5760008415610ae9578287015190505b610af38582610a75565b865550610b5b565b601f198416610b09866108e5565b60005b82811015610b3157848901518255600182019150602085019450602081019050610b0c565b86831015610b4e5784890151610b4a601f891682610a57565b8355505b6001600288020188555050505b505050505050565b6000610b6f838561072e565b9350610b7c83858461065b565b610b858361059e565b840190509392505050565b60006080820190508181036000830152610bab81888a610b63565b9050610bba60208301876107a2565b610bc760408301866107b1565b8181036060830152610bda818486610b63565b905097965050505050505056fea264697066735822122032cf2bcde988788cf538e803d0025bd60833769d7d2846437f357af2e472e3a264736f6c63430008140033",
  "linkReferences": {},
  "deployedLinkReferences": {}
}