{
  "_format": "hh-sol-artifact-1",
  "contractName": "Vault1155",
  "sourceName": "contracts/Vault1155.sol",
  "abi": [
    {
      "inputs": [
        {
          "internalType": "string",
          "name": "uri_",
          "type": "string"
        },
        {
          "internalType": "address",
          "name": "initialOwner",
          "type": "address"
        }
      ],
      "stateMutability": "nonpayable",
      "type": "constructor"
    },
    {
      "inputs": [
        {
          "internalType": "address",
          "name": "sender",
          "type": "address"
        },
        {
          "internalType": "uint256",
          "name": "balance",
          "type": "uint256"
        },
        {
          "internalType": "uint256",
          "name": "needed",
          "type": "uint256"
        },
        {
          "internalType": "uint256",
          "name": "tokenId",
          "type": "uint256"
        }
      ],
      "name": "ERC1155InsufficientBalance",
      "type": "error"
    },
    {
      "inputs": [
        {
          "internalType": "address",
          "name": "approver",
          "type": "address"
        }
      ],
      "name": "ERC1155InvalidApprover",
      "type": "error"
    },
    {
      "inputs": [
        {
          "internalType": "uint256",
          "name": "idsLength",
          "type": "uint256"
        },
        {
          "internalType": "uint256",
          "name": "valuesLength",
          "type": "uint256"
        }
      ],
      "name": "ERC1155InvalidArrayLength",
      "type": "error"
    },
    {
      "inputs": [
        {
          "internalType": "address",
          "name": "operator",
          "type": "address"
        }
      ],
      "name": "ERC1155InvalidOperator",
      "type": "error"
    },
    {
      "inputs": [
        {
          "internalType": "address",
          "name": "receiver",
          "type": "address"
        }
      ],
      "name": "ERC1155InvalidReceiver",
      "type": "error"
    },
    {
      "inputs": [
        {
          "internalType": "address",
          "name": "sender",
          "type": "address"
        }
      ],
      "name": "ERC1155InvalidSender",
      "type": "error"
    },
    {
      "inputs": [
        {
          "internalType": "address",
          "name": "operator",
          "type": "address"
        },
        {
          "internalType": "address",
          "name": "owner",
          "type": "address"
        }
      ],
      "name": "ERC1155MissingApprovalForAll",
      "type": "error"
    },
    {
      "inputs": [
        {
          "internalType": "address",
          "name": "owner",
          "type": "address"
        }
      ],
      "name": "OwnableInvalidOwner",
      "type": "error"
    },
    {
      "inputs": [
        {
          "internalType": "address",
          "name": "account",
          "type": "address"
        }
      ],
      "name": "OwnableUnauthorizedAccount",
      "type": "error"
    },
    {
      "anonymous": false,
      "inputs": [
        {
          "indexed": true,
          "internalType": "address",
          "name": "account",
          "type": "address"
        },
        {
          "indexed": true,
          "internalType": "address",
          "name": "operator",
          "type": "address"
        },
        {
          "indexed": false,
          "internalType": "bool",
          "name": "approved",
          "type": "bool"
        }
      ],
      "name": "ApprovalForAll",
      "type": "event"
    },
    {
      "anonymous": false,
      "inputs": [
        {
          "indexed": true,
          "internalType": "address",
          "name": "previousOwner",
          "type": "address"
        },
        {
          "indexed": true,
          "internalType": "address",
          "name": "newOwner",
          "type": "address"
        }
      ],
      "name": "OwnershipTransferred",
      "type": "event"
    },
    {
      "anonymous": false,
      "inputs": [
        {
          "indexed": true,
          "internalType": "address",
          "name": "operator",
          "type": "address"
        },
        {
          "indexed": true,
          "internalType": "address",
          "name": "from",
          "type": "address"
        },
        {
          "indexed": true,
          "internalType": "address",
          "name": "to",
          "type": "address"
        },
        {
          "indexed": false,
          "internalType": "uint256[]",
          "name": "ids",
          "type": "uint256[]"
        },
        {
          "indexed": false,
          "internalType": "uint256[]",
          "name": "values",
          "type": "uint256[]"
        }
      ],
      "name": "TransferBatch",
      "type": "event"
    },
    {
      "anonymous": false,
      "inputs": [
        {
          "indexed": true,
          "internalType": "address",
          "name": "operator",
          "type": "address"
        },
        {
          "indexed": true,
          "internalType": "address",
          "name": "from",
          "type": "address"
        },
        {
          "indexed": true,
          "internalType": "address",
          "name": "to",
          "type": "address"
        },
        {
          "indexed": false,
          "internalType": "uint256",
          "name": "id",
          "type": "uint256"
        },
        {
          "indexed": false,
          "internalType": "uint256",
          "name": "value",
          "type": "uint256"
        }
      ],
      "name": "TransferSingle",
      "type": "event"
    },
    {
      "anonymous": false,
      "inputs": [
        {
          "indexed": false,
          "internalType": "string",
          "name": "value",
          "type": "string"
        },
        {
          "indexed": true,
          "internalType": "uint256",
          "name": "id",
          "type": "uint256"
        }
      ],
      "name": "URI",
      "type": "event"
    },
    {
      "inputs": [
        {
          "internalType": "address",
          "name": "account",
          "type": "address"
        },
        {
          "internalType": "uint256",
          "name": "id",
          "type": "uint256"
        }
      ],
      "name": "balanceOf",
      "outputs": [
        {
          "internalType": "uint256",
          "name": "",
          "type": "uint256"
        }
      ],
      "stateMutability": "view",
      "type": "function"
    },
    {
      "inputs": [
        {
          "internalType": "address[]",
          "name": "accounts",
          "type": "address[]"
        },
        {
          "internalType": "uint256[]",
          "name": "ids",
          "type": "uint256[]"
        }
      ],
      "name": "balanceOfBatch",
      "outputs": [
        {
          "internalType": "uint256[]",
          "name": "",
          "type": "uint256[]"
        }
      ],
      "stateMutability": "view",
      "type": "function"
    },
    {
      "inputs": [
        {
          "internalType": "address",
          "name": "account",
          "type": "address"
        },
        {
          "internalType": "address",
          "name": "operator",
          "type": "address"
        }
      ],
      "name": "isApprovedForAll",
      "outputs": [
        {
          "internalType": "bool",
          "name": "",
          "type": "bool"
        }
      ],
      "stateMutability": "view",
      "type": "function"
    },
    {
      "inputs": [],
      "name": "owner",
      "outputs": [
        {
          "internalType": "address",
          "name": "",
          "type": "address"
        }
      ],
      "stateMutability": "view",
      "type": "function"
    },
    {
      "inputs": [],
      "name": "renounceOwnership",
      "outputs": [],
      "stateMutability": "nonpayable",
      "type": "function"
    },
    {
      "inputs": [
        {
          "internalType": "address",
          "name": "from",
          "type": "address"
        },
        {
          "internalType": "address",
          "name": "to",
          "type": "address"
        },
        {
          "internalType": "uint256[]",
          "name": "ids",
          "type": "uint256[]"
        },
        {
          "internalType": "uint256[]",
          "name": "values",
          "type": "uint256[]"
        },
        {
          "internalType": "bytes",
          "name": "data",
          "type": "bytes"
        }
      ],
      "name": "safeBatchTransferFrom",
      "outputs": [],
      "stateMutability": "nonpayable",
      "type": "function"
    },
    {
      "inputs": [
        {
          "internalType": "address",
          "name": "from",
          "type": "address"
        },
        {
          "internalType": "address",
          "name": "to",
          "type": "address"
        },
        {
          "internalType": "uint256",
          "name": "id",
          "type": "uint256"
        },
        {
          "internalType": "uint256",
          "name": "value",
          "type": "uint256"
        },
        {
          "internalType": "bytes",
          "name": "data",
          "type": "bytes"
        }
      ],
      "name": "safeTransferFrom",
      "outputs": [],
      "stateMutability": "nonpayable",
      "type": "function"
    },
    {
      "inputs": [
        {
          "internalType": "address",
          "name": "operator",
          "type": "address"
        },
        {
          "internalType": "bool",
          "name": "approved",
          "type": "bool"
        }
      ],
      "name": "setApprovalForAll",
      "outputs": [],
      "stateMutability": "nonpayable",
      "type": "function"
    },
    {
      "inputs": [
        {
          "internalType": "bytes4",
          "name": "interfaceId",
          "type": "bytes4"
        }
      ],
      "name": "supportsInterface",
      "outputs": [
        {
          "internalType": "bool",
          "name": "",
          "type": "bool"
        }
      ],
      "stateMutability": "view",
      "type": "function"
    },
    {
      "inputs": [
        {
          "internalType": "address",
          "name": "newOwner",
          "type": "address"
        }
      ],
      "name": "transferOwnership",
      "outputs": [],
      "stateMutability": "nonpayable",
      "type": "function"
    },
    {
      "inputs": [
        {
          "internalType": "uint256",
          "name": "",
          "type": "uint256"
        }
      ],
      "name": "uri",
      "outputs": [
        {
          "internalType": "string",
          "name": "",
          "type": "string"
        }
      ],
      "stateMutability": "view",
      "type": "function"
    }
  ],
  "bytecode": "0x60806040523480156200001157600080fd5b506040516200296b3803806200296b8339818101604052810190620000379190620003ad565b80826200004a81620000da60201b60201c565b50600073ffffffffffffffffffffffffffffffffffffffff168173ffffffffffffffffffffffffffffffffffffffff1603620000c05760006040517f1e4fbdf7000000000000000000000000000000000000000000000000000000008152600401620000b7919062000424565b60405180910390fd5b620000d181620000ef60201b60201c565b50505062000773565b8060029081620000eb91906200068c565b5050565b6000600360009054906101000a900473ffffffffffffffffffffffffffffffffffffffff16905081600360006101000a81548173ffffffffffffffffffffffffffffffffffffffff021916908373ffffffffffffffffffffffffffffffffffffffff1602179055508173ffffffffffffffffffffffffffffffffffffffff168173ffffffffffffffffffffffffffffffffffffffff167f8be0079c531659141344cd1fd0a4f28419497f9722a3daafe3b4186f6b6457e060405160405180910390a35050565b6000604051905090565b600080fd5b600080fd5b600080fd5b600080fd5b6000601f19601f8301169050919050565b7f4e487b7100000000000000000000000000000000000000000000000000000000600052604160045260246000fd5b6200021e82620001d3565b810181811067ffffffffffffffff8211171562000240576200023f620001e4565b5b80604052505050565b600062000255620001b5565b905062000263828262000213565b919050565b600067ffffffffffffffff821115620002865762000285620001e4565b5b6200029182620001d3565b9050602081019050919050565b60005b83811015620002be578082015181840152602081019050620002a1565b60008484015250505050565b6000620002e1620002db8462000268565b62000249565b9050828152602081018484840111156200030057620002ff620001ce565b5b6200030d8482856200029e565b509392505050565b600082601f8301126200032d576200032c620001c9565b5b81516200033f848260208601620002ca565b91505092915050565b600073ffffffffffffffffffffffffffffffffffffffff82169050919050565b6000620003758262000348565b9050919050565b620003878162000368565b81146200039357600080fd5b50565b600081519050620003a7816200037c565b92915050565b60008060408385031215620003c757620003c6620001bf565b5b600083015167ffffffffffffffff811115620003e857620003e7620001c4565b5b620003f68582860162000315565b9250506020620004098582860162000396565b9150509250929050565b6200041e8162000368565b82525050565b60006020820190506200043b600083018462000413565b92915050565b600081519050919050565b7f4e487b7100000000000000000000000000000000000000000000000000000000600052602260045260246000fd5b600060028204905060018216806200049457607f821691505b602082108103620004aa57620004a96200044c565b5b50919050565b60008190508160005260206000209050919050565b60006020601f8301049050919050565b600082821b905092915050565b600060088302620005147fffffffffffffffffffffffffffffffffffffffffffffffffffffffffffffffff82620004d5565b620005208683620004d5565b95508019841693508086168417925050509392505050565b6000819050919050565b6000819050919050565b60006200056d62000567620005618462000538565b62000542565b62000538565b9050919050565b6000819050919050565b62000589836200054c565b620005a1620005988262000574565b848454620004e2565b825550505050565b600090565b620005b8620005a9565b620005c58184846200057e565b505050565b5b81811015620005ed57620005e1600082620005ae565b600181019050620005cb565b5050565b601f8211156200063c576200060681620004b0565b6200061184620004c5565b8101602085101562000621578190505b620006396200063085620004c5565b830182620005ca565b50505b505050565b600082821c905092915050565b6000620006616000198460080262000641565b1980831691505092915050565b60006200067c83836200064e565b9150826002028217905092915050565b620006978262000441565b67ffffffffffffffff811115620006b357620006b2620001e4565b5b620006bf82546200047b565b620006cc828285620005f1565b600060209050601f831160018114620007045760008415620006ef578287015190505b620006fb85826200066e565b8655506200076b565b601f1984166200071486620004b0565b60005b828110156200073e5784890151825560018201915060208501945060208101905062000717565b868310156200075e57848901516200075a601f8916826200064e565b8355505b6001600288020188555050505b505050505050565b6121e880620007836000396000f3fe608060405234801561001057600080fd5b50600436106100a85760003560e01c8063715018a611610071578063715018a6146101895780638da5cb5b14610193578063a22cb465146101b1578063e985e9c5146101cd578063f242432a146101fd578063f2fde38b14610219576100a8565b8062fdd58e146100ad57806301ffc9a7146100dd5780630e89341c1461010d5780632eb2c2d61461013d5780634e1273f414610159575b600080fd5b6100c760048036038101906100c291906115cc565b610235565b6040516100d4919061161b565b60405180910390f35b6100f760048036038101906100f2919061168e565b61028f565b60405161010491906116d6565b60405180910390f35b610127600480360381019061012291906116f1565b610371565b60405161013491906117ae565b60405180910390f35b610157600480360381019061015291906119cd565b610405565b005b610173600480360381019061016e9190611b5f565b6104ad565b6040516101809190611c95565b60405180910390f35b6101916105bc565b005b61019b6105d0565b6040516101a89190611cc6565b60405180910390f35b6101cb60048036038101906101c69190611d0d565b6105fa565b005b6101e760048036038101906101e29190611d4d565b610610565b6040516101f491906116d6565b60405180910390f35b61021760048036038101906102129190611d8d565b6106a4565b005b610233600480360381019061022e9190611e24565b61074c565b005b600080600083815260200190815260200160002060008473ffffffffffffffffffffffffffffffffffffffff1673ffffffffffffffffffffffffffffffffffffffff16815260200190815260200160002054905092915050565b60007fd9b67a26000000000000000000000000000000000000000000000000000000007bffffffffffffffffffffffffffffffffffffffffffffffffffffffff1916827bffffffffffffffffffffffffffffffffffffffffffffffffffffffff1916148061035a57507f0e89341c000000000000000000000000000000000000000000000000000000007bffffffffffffffffffffffffffffffffffffffffffffffffffffffff1916827bffffffffffffffffffffffffffffffffffffffffffffffffffffffff1916145b8061036a5750610369826107d2565b5b9050919050565b60606002805461038090611e80565b80601f01602080910402602001604051908101604052809291908181526020018280546103ac90611e80565b80156103f95780601f106103ce576101008083540402835291602001916103f9565b820191906000526020600020905b8154815290600101906020018083116103dc57829003601f168201915b50505050509050919050565b600061040f61083c565b90508073ffffffffffffffffffffffffffffffffffffffff168673ffffffffffffffffffffffffffffffffffffffff161415801561045457506104528682610610565b155b156104985780866040517fe237d92200000000000000000000000000000000000000000000000000000000815260040161048f929190611eb1565b60405180910390fd5b6104a58686868686610844565b505050505050565b606081518351146104f957815183516040517f5b0599910000000000000000000000000000000000000000000000000000000081526004016104f0929190611eda565b60405180910390fd5b6000835167ffffffffffffffff811115610516576105156117d5565b5b6040519080825280602002602001820160405280156105445781602001602082028036833780820191505090505b50905060005b84518110156105b157610581610569828761093c90919063ffffffff16565b61057c838761095090919063ffffffff16565b610235565b82828151811061059457610593611f03565b5b602002602001018181525050806105aa90611f61565b905061054a565b508091505092915050565b6105c4610964565b6105ce60006109eb565b565b6000600360009054906101000a900473ffffffffffffffffffffffffffffffffffffffff16905090565b61060c61060561083c565b8383610ab1565b5050565b6000600160008473ffffffffffffffffffffffffffffffffffffffff1673ffffffffffffffffffffffffffffffffffffffff16815260200190815260200160002060008373ffffffffffffffffffffffffffffffffffffffff1673ffffffffffffffffffffffffffffffffffffffff16815260200190815260200160002060009054906101000a900460ff16905092915050565b60006106ae61083c565b90508073ffffffffffffffffffffffffffffffffffffffff168673ffffffffffffffffffffffffffffffffffffffff16141580156106f357506106f18682610610565b155b156107375780866040517fe237d92200000000000000000000000000000000000000000000000000000000815260040161072e929190611eb1565b60405180910390fd5b6107448686868686610c21565b505050505050565b610754610964565b600073ffffffffffffffffffffffffffffffffffffffff168173ffffffffffffffffffffffffffffffffffffffff16036107c65760006040517f1e4fbdf70000000000000000000000000000000000000000000000000000000081526004016107bd9190611cc6565b60405180910390fd5b6107cf816109eb565b50565b60007f01ffc9a7000000000000000000000000000000000000000000000000000000007bffffffffffffffffffffffffffffffffffffffffffffffffffffffff1916827bffffffffffffffffffffffffffffffffffffffffffffffffffffffff1916149050919050565b600033905090565b600073ffffffffffffffffffffffffffffffffffffffff168473ffffffffffffffffffffffffffffffffffffffff16036108b65760006040517f57f447ce0000000000000000000000000000000000000000000000000000000081526004016108ad9190611cc6565b60405180910390fd5b600073ffffffffffffffffffffffffffffffffffffffff168573ffffffffffffffffffffffffffffffffffffffff16036109285760006040517f01a8351400000000000000000000000000000000000000000000000000000000815260040161091f9190611cc6565b60405180910390fd5b6109358585858585610d2c565b5050505050565b600060208202602084010151905092915050565b600060208202602084010151905092915050565b61096c61083c565b73ffffffffffffffffffffffffffffffffffffffff1661098a6105d0565b73ffffffffffffffffffffffffffffffffffffffff16146109e9576109ad61083c565b6040517f118cdaa70000000000000000000000000000000000000000000000000000000081526004016109e09190611cc6565b60405180910390fd5b565b6000600360009054906101000a900473ffffffffffffffffffffffffffffffffffffffff16905081600360006101000a81548173ffffffffffffffffffffffffffffffffffffffff021916908373ffffffffffffffffffffffffffffffffffffffff1602179055508173ffffffffffffffffffffffffffffffffffffffff168173ffffffffffffffffffffffffffffffffffffffff167f8be0079c531659141344cd1fd0a4f28419497f9722a3daafe3b4186f6b6457e060405160405180910390a35050565b600073ffffffffffffffffffffffffffffffffffffffff168273ffffffffffffffffffffffffffffffffffffffff1603610b235760006040517fced3e100000000000000000000000000000000000000000000000000000000008152600401610b1a9190611cc6565b60405180910390fd5b80600160008573ffffffffffffffffffffffffffffffffffffffff1673ffffffffffffffffffffffffffffffffffffffff16815260200190815260200160002060008473ffffffffffffffffffffffffffffffffffffffff1673ffffffffffffffffffffffffffffffffffffffff16815260200190815260200160002060006101000a81548160ff0219169083151502179055508173ffffffffffffffffffffffffffffffffffffffff168373ffffffffffffffffffffffffffffffffffffffff167f17307eab39ab6107e8899845ad3d59bd9653f200f220920489ca2b5937696c3183604051610c1491906116d6565b60405180910390a3505050565b600073ffffffffffffffffffffffffffffffffffffffff168473ffffffffffffffffffffffffffffffffffffffff1603610c935760006040517f57f447ce000000000000000000000000000000000000000000000000000000008152600401610c8a9190611cc6565b60405180910390fd5b600073ffffffffffffffffffffffffffffffffffffffff168573ffffffffffffffffffffffffffffffffffffffff1603610d055760006040517f01a83514000000000000000000000000000000000000000000000000000000008152600401610cfc9190611cc6565b60405180910390fd5b600080610d128585610dde565b91509150610d238787848487610d2c565b50505050505050565b610d3885858585610e0e565b600073ffffffffffffffffffffffffffffffffffffffff168473ffffffffffffffffffffffffffffffffffffffff1614610dd7576000610d7661083c565b90506001845103610dc6576000610d9760008661095090919063ffffffff16565b90506000610daf60008661095090919063ffffffff16565b9050610dbf8389898585896111bc565b5050610dd5565b610dd4818787878787611370565b5b505b5050505050565b60608060405191506001825283602083015260408201905060018152826020820152604081016040529250929050565b8051825114610e5857815181516040517f5b059991000000000000000000000000000000000000000000000000000000008152600401610e4f929190611eda565b60405180910390fd5b6000610e6261083c565b905060005b8351811015611077576000610e85828661095090919063ffffffff16565b90506000610e9c838661095090919063ffffffff16565b9050600073ffffffffffffffffffffffffffffffffffffffff168873ffffffffffffffffffffffffffffffffffffffff1614610fc957600080600084815260200190815260200160002060008a73ffffffffffffffffffffffffffffffffffffffff1673ffffffffffffffffffffffffffffffffffffffff16815260200190815260200160002054905081811015610f7157888183856040517f03dee4c5000000000000000000000000000000000000000000000000000000008152600401610f689493929190611fa9565b60405180910390fd5b81810360008085815260200190815260200160002060008b73ffffffffffffffffffffffffffffffffffffffff1673ffffffffffffffffffffffffffffffffffffffff16815260200190815260200160002081905550505b600073ffffffffffffffffffffffffffffffffffffffff168773ffffffffffffffffffffffffffffffffffffffff1614611064578060008084815260200190815260200160002060008973ffffffffffffffffffffffffffffffffffffffff1673ffffffffffffffffffffffffffffffffffffffff168152602001908152602001600020600082825461105c9190611fee565b925050819055505b50508061107090611f61565b9050610e67565b50600183510361113657600061109760008561095090919063ffffffff16565b905060006110af60008561095090919063ffffffff16565b90508573ffffffffffffffffffffffffffffffffffffffff168773ffffffffffffffffffffffffffffffffffffffff168473ffffffffffffffffffffffffffffffffffffffff167fc3d58168c5ae7397731d063d5bbf3d657854427343f4c083240f7aacaa2d0f628585604051611127929190611eda565b60405180910390a450506111b5565b8373ffffffffffffffffffffffffffffffffffffffff168573ffffffffffffffffffffffffffffffffffffffff168273ffffffffffffffffffffffffffffffffffffffff167f4a39dc06d4c0dbc64b70af90fd698a233a518aa5d07e595d983b8c0526c8f7fb86866040516111ac929190612022565b60405180910390a45b5050505050565b60008473ffffffffffffffffffffffffffffffffffffffff163b1115611368578373ffffffffffffffffffffffffffffffffffffffff1663f23a6e6187878686866040518663ffffffff1660e01b815260040161121d9594939291906120ae565b6020604051808303816000875af192505050801561125957506040513d601f19601f82011682018060405250810190611256919061211d565b60015b6112dd573d8060008114611289576040519150601f19603f3d011682016040523d82523d6000602084013e61128e565b606091505b5060008151036112d557846040517f57f447ce0000000000000000000000000000000000000000000000000000000081526004016112cc9190611cc6565b60405180910390fd5b805160208201fd5b63f23a6e6160e01b7bffffffffffffffffffffffffffffffffffffffffffffffffffffffff1916817bffffffffffffffffffffffffffffffffffffffffffffffffffffffff19161461136657846040517f57f447ce00000000000000000000000000000000000000000000000000000000815260040161135d9190611cc6565b60405180910390fd5b505b505050505050565b60008473ffffffffffffffffffffffffffffffffffffffff163b111561151c578373ffffffffffffffffffffffffffffffffffffffff1663bc197c8187878686866040518663ffffffff1660e01b81526004016113d195949392919061214a565b6020604051808303816000875af192505050801561140d57506040513d601f19601f8201168201806040525081019061140a919061211d565b60015b611491573d806000811461143d576040519150601f19603f3d011682016040523d82523d6000602084013e611442565b606091505b50600081510361148957846040517f57f447ce0000000000000000000000000000000000000000000000000000000081526004016114809190611cc6565b60405180910390fd5b805160208201fd5b63bc197c8160e01b7bffffffffffffffffffffffffffffffffffffffffffffffffffffffff1916817bffffffffffffffffffffffffffffffffffffffffffffffffffffffff19161461151a57846040517f57f447ce0000000000000000000000000000000000000000000000000000000081526004016115119190611cc6565b60405180910390fd5b505b505050505050565b6000604051905090565b600080fd5b600080fd5b600073ffffffffffffffffffffffffffffffffffffffff82169050919050565b600061156382611538565b9050919050565b61157381611558565b811461157e57600080fd5b50565b6000813590506115908161156a565b92915050565b6000819050919050565b6115a981611596565b81146115b457600080fd5b50565b6000813590506115c6816115a0565b92915050565b600080604083850312156115e3576115e261152e565b5b60006115f185828601611581565b9250506020611602858286016115b7565b9150509250929050565b61161581611596565b82525050565b6000602082019050611630600083018461160c565b92915050565b60007fffffffff0000000000000000000000000000000000000000000000000000000082169050919050565b61166b81611636565b811461167657600080fd5b50565b60008135905061168881611662565b92915050565b6000602082840312156116a4576116a361152e565b5b60006116b284828501611679565b91505092915050565b60008115159050919050565b6116d0816116bb565b82525050565b60006020820190506116eb60008301846116c7565b92915050565b6000602082840312156117075761170661152e565b5b6000611715848285016115b7565b91505092915050565b600081519050919050565b600082825260208201905092915050565b60005b8381101561175857808201518184015260208101905061173d565b60008484015250505050565b6000601f19601f8301169050919050565b60006117808261171e565b61178a8185611729565b935061179a81856020860161173a565b6117a381611764565b840191505092915050565b600060208201905081810360008301526117c88184611775565b905092915050565b600080fd5b7f4e487b7100000000000000000000000000000000000000000000000000000000600052604160045260246000fd5b61180d82611764565b810181811067ffffffffffffffff8211171561182c5761182b6117d5565b5b80604052505050565b600061183f611524565b905061184b8282611804565b919050565b600067ffffffffffffffff82111561186b5761186a6117d5565b5b602082029050602081019050919050565b600080fd5b600061189461188f84611850565b611835565b905080838252602082019050602084028301858111156118b7576118b661187c565b5b835b818110156118e057806118cc88826115b7565b8452602084019350506020810190506118b9565b5050509392505050565b600082601f8301126118ff576118fe6117d0565b5b813561190f848260208601611881565b91505092915050565b600080fd5b600067ffffffffffffffff821115611938576119376117d5565b5b61194182611764565b9050602081019050919050565b82818337600083830152505050565b600061197061196b8461191d565b611835565b90508281526020810184848401111561198c5761198b611918565b5b61199784828561194e565b509392505050565b600082601f8301126119b4576119b36117d0565b5b81356119c484826020860161195d565b91505092915050565b600080600080600060a086880312156119e9576119e861152e565b5b60006119f788828901611581565b9550506020611a0888828901611581565b945050604086013567ffffffffffffffff811115611a2957611a28611533565b5b611a35888289016118ea565b935050606086013567ffffffffffffffff811115611a5657611a55611533565b5b611a62888289016118ea565b925050608086013567ffffffffffffffff811115611a8357611a82611533565b5b611a8f8882890161199f565b9150509295509295909350565b600067ffffffffffffffff821115611ab757611ab66117d5565b5b602082029050602081019050919050565b6000611adb611ad684611a9c565b611835565b90508083825260208201905060208402830185811115611afe57611afd61187c565b5b835b81811015611b275780611b138882611581565b845260208401935050602081019050611b00565b5050509392505050565b600082601f830112611b4657611b456117d0565b5b8135611b56848260208601611ac8565b91505092915050565b60008060408385031215611b7657611b7561152e565b5b600083013567ffffffffffffffff811115611b9457611b93611533565b5b611ba085828601611b31565b925050602083013567ffffffffffffffff811115611bc157611bc0611533565b5b611bcd858286016118ea565b9150509250929050565b600081519050919050565b600082825260208201905092915050565b6000819050602082019050919050565b611c0c81611596565b82525050565b6000611c1e8383611c03565b60208301905092915050565b6000602082019050919050565b6000611c4282611bd7565b611c4c8185611be2565b9350611c5783611bf3565b8060005b83811015611c88578151611c6f8882611c12565b9750611c7a83611c2a565b925050600181019050611c5b565b5085935050505092915050565b60006020820190508181036000830152611caf8184611c37565b905092915050565b611cc081611558565b82525050565b6000602082019050611cdb6000830184611cb7565b92915050565b611cea816116bb565b8114611cf557600080fd5b50565b600081359050611d0781611ce1565b92915050565b60008060408385031215611d2457611d2361152e565b5b6000611d3285828601611581565b9250506020611d4385828601611cf8565b9150509250929050565b60008060408385031215611d6457611d6361152e565b5b6000611d7285828601611581565b9250506020611d8385828601611581565b9150509250929050565b600080600080600060a08688031215611da957611da861152e565b5b6000611db788828901611581565b9550506020611dc888828901611581565b9450506040611dd9888289016115b7565b9350506060611dea888289016115b7565b925050608086013567ffffffffffffffff811115611e0b57611e0a611533565b5b611e178882890161199f565b9150509295509295909350565b600060208284031215611e3a57611e3961152e565b5b6000611e4884828501611581565b91505092915050565b7f4e487b7100000000000000000000000000000000000000000000000000000000600052602260045260246000fd5b60006002820490506001821680611e9857607f821691505b602082108103611eab57611eaa611e51565b5b50919050565b6000604082019050611ec66000830185611cb7565b611ed36020830184611cb7565b9392505050565b6000604082019050611eef600083018561160c565b611efc602083018461160c565b9392505050565b7f4e487b7100000000000000000000000000000000000000000000000000000000600052603260045260246000fd5b7f4e487b7100000000000000000000000000000000000000000000000000000000600052601160045260246000fd5b6000611f6c82611596565b91507fffffffffffffffffffffffffffffffffffffffffffffffffffffffffffffffff8203611f9e57611f9d611f32565b5b600182019050919050565b6000608082019050611fbe6000830187611cb7565b611fcb602083018661160c565b611fd8604083018561160c565b611fe5606083018461160c565b95945050505050565b6000611ff982611596565b915061200483611596565b925082820190508082111561201c5761201b611f32565b5b92915050565b6000604082019050818103600083015261203c8185611c37565b905081810360208301526120508184611c37565b90509392505050565b600081519050919050565b600082825260208201905092915050565b600061208082612059565b61208a8185612064565b935061209a81856020860161173a565b6120a381611764565b840191505092915050565b600060a0820190506120c36000830188611cb7565b6120d06020830187611cb7565b6120dd604083018661160c565b6120ea606083018561160c565b81810360808301526120fc8184612075565b90509695505050505050565b60008151905061211781611662565b92915050565b6000602082840312156121335761213261152e565b5b600061214184828501612108565b91505092915050565b600060a08201905061215f6000830188611cb7565b61216c6020830187611cb7565b818103604083015261217e8186611c37565b905081810360608301526121928185611c37565b905081810360808301526121a68184612075565b9050969550505050505056fea2646970667358221220ec199d6d20d864823c7b1a0d5087420577b6a113014dd409b0b45d9b249a7fd764736f6c63430008140033",
  "linkReferences": {},
  "deployedLinkReferences": {}
}