{
  "_format": "hh-sol-artifact-1",
  "contractName": "XERPremiumGate",
  "sourceName": "contracts/XERPremiumGate.sol",
  "abi": [
    {
      "anonymous": false,
      "inputs": [
        {
          "indexed": true,
          "internalType": "address",
          "name": "buyer",
          "type": "address"
        },
        {
          "indexed": false,
          "internalType": "uint256",
          "name": "amount",
          "type": "uint256"
        },
        {
          "indexed": false,
          "internalType": "uint256",
          "name": "timestamp",
          "type": "uint256"
        }
      ],
      "name": "PremiumPurchased",
      "type": "event"
    },
    {
      "inputs": [],
      "name": "purchasePremium",
      "outputs": [],
      "stateMutability": "payable",
      "type": "function"
    }
  ],
  "bytecode": "0x608060405234801561001057600080fd5b5060eb8061001f6000396000f3fe608060405260043610601c5760003560e01c806381ef77d3146021575b600080fd5b60276029565b005b3373ffffffffffffffffffffffffffffffffffffffff167fbc9b2d27a2818f1a1bd296d73ae827d1c9019b00fe177365df70ba0a3faab28e3442604051606f9291906090565b60405180910390a2565b6000819050919050565b608a816079565b82525050565b600060408201905060a360008301856083565b60ae60208301846083565b939250505056fea2646970667358221220dd11f7b38bb2666d4238ebeb6e1da6562f082706ef141afd77e6516e35ad623c64736f6c63430008140033",
  "linkReferences": {},
  "deployedLinkReferences": {}
}