{"abi":[{"type":"constructor","inputs":[{"name":"xerToken","type":"address","internalType":"address"},{"name":"adminWallet","type":"address","internalType":"address"}],"stateMutability":"nonpayable"},{"type":"function","name":"ADMIN_WALLET","inputs":[],"outputs":[{"name":"","type":"address","internalType":"address"}],"stateMutability":"view"},{"type":"function","name":"PREMIUM_COST","inputs":[],"outputs":[{"name":"","type":"uint256","internalType":"uint256"}],"stateMutability":"view"},{"type":"function","name":"XER_TOKEN","inputs":[],"outputs":[{"name":"","type":"address","internalType":"address"}],"stateMutability":"view"},{"type":"function","name":"hasPremium","inputs":[{"name":"user","type":"address","internalType":"address"}],"outputs":[{"name":"","type":"bool","internalType":"bool"}],"stateMutability":"view"},{"type":"function","name":"isPremium","inputs":[{"name":"","type":"address","internalType":"address"}],"outputs":[{"name":"","type":"bool","internalType":"bool"}],"stateMutability":"view"},{"type":"function","name":"purchasePremium","inputs":[],"outputs":[],"stateMutability":"nonpayable"},{"type":"event","name":"PremiumPurchased","inputs":[{"name":"user","type":"address","indexed":true,"internalType":"address"},{"name":"amount","type":"uint256","indexed":false,"internalType":"uint256"}],"anonymous":false}],"bytecode":{"object":"0x60c060405234801561000f575f5ffd5b50604051610a06380380610a06833981810160405281019061003191906101da565b5f73ffffffffffffffffffffffffffffffffffffffff168273ffffffffffffffffffffffffffffffffffffffff160361009f576040517f08c379a000000000000000000000000000000000000000000000000000000000815260040161009690610272565b60405180910390fd5b5f73ffffffffffffffffffffffffffffffffffffffff168173ffffffffffffffffffffffffffffffffffffffff160361010d576040517f08c379a0000000000000000000000000000000000000000000000000000000008152600401610104906102da565b60405180910390fd5b8173ffffffffffffffffffffffffffffffffffffffff1660808173ffffffffffffffffffffffffffffffffffffffff16815250508073ffffffffffffffffffffffffffffffffffffffff1660a08173ffffffffffffffffffffffffffffffffffffffff168152505050506102f8565b5f5ffd5b5f73ffffffffffffffffffffffffffffffffffffffff82169050919050565b5f6101a982610180565b9050919050565b6101b98161019f565b81146101c3575f5ffd5b50565b5f815190506101d4816101b0565b92915050565b5f5f604083850312156101f0576101ef61017c565b5b5f6101fd858286016101c6565b925050602061020e858286016101c6565b9150509250929050565b5f82825260208201905092915050565b7f496e76616c696420746f6b656e000000000000000000000000000000000000005f82015250565b5f61025c600d83610218565b915061026782610228565b602082019050919050565b5f6020820190508181035f83015261028981610250565b9050919050565b7f496e76616c69642061646d696e000000000000000000000000000000000000005f82015250565b5f6102c4600d83610218565b91506102cf82610290565b602082019050919050565b5f6020820190508181035f8301526102f1816102b8565b9050919050565b60805160a0516106df6103275f395f818161026b01526103e401525f818161022e015261040801526106df5ff3fe608060405234801561000f575f5ffd5b5060043610610060575f3560e01c80630a137ffe146100645780636283aa4e14610082578063742fe0d4146100b257806381ef77d3146100e2578063c2cd4a07146100ec578063eb97afb61461010a575b5f5ffd5b61006c610128565b6040516100799190610442565b60405180910390f35b61009c600480360381019061009791906104b9565b610135565b6040516100a991906104fe565b60405180910390f35b6100cc60048036038101906100c791906104b9565b610186565b6040516100d991906104fe565b60405180910390f35b6100ea6101a2565b005b6100f46103e2565b6040516101019190610526565b60405180910390f35b610112610406565b60405161011f9190610526565b60405180910390f35b68056bc75e2d6310000081565b5f5f5f8373ffffffffffffffffffffffffffffffffffffffff1673ffffffffffffffffffffffffffffffffffffffff1681526020019081526020015f205f9054906101000a900460ff169050919050565b5f602052805f5260405f205f915054906101000a900460ff1681565b5f5f3373ffffffffffffffffffffffffffffffffffffffff1673ffffffffffffffffffffffffffffffffffffffff1681526020019081526020015f205f9054906101000a900460ff161561022b576040517f08c379a000000000000000000000000000000000000000000000000000000000815260040161022290610599565b60405180910390fd5b5f7f000000000000000000000000000000000000000000000000000000000000000073ffffffffffffffffffffffffffffffffffffffff166323b872dd337f000000000000000000000000000000000000000000000000000000000000000068056bc75e2d631000006040518463ffffffff1660e01b81526004016102b2939291906105b7565b6020604051808303815f875af11580156102ce573d5f5f3e3d5ffd5b505050506040513d601f19601f820116820180604052508101906102f29190610616565b905080610334576040517f08c379a000000000000000000000000000000000000000000000000000000000815260040161032b9061068b565b60405180910390fd5b60015f5f3373ffffffffffffffffffffffffffffffffffffffff1673ffffffffffffffffffffffffffffffffffffffff1681526020019081526020015f205f6101000a81548160ff0219169083151502179055503373ffffffffffffffffffffffffffffffffffffffff167faac641193722e260ce312e714156cdc3510a4892fdb1b50ea84cb29a0341800468056bc75e2d631000006040516103d79190610442565b60405180910390a250565b7f000000000000000000000000000000000000000000000000000000000000000081565b7f000000000000000000000000000000000000000000000000000000000000000081565b5f819050919050565b61043c8161042a565b82525050565b5f6020820190506104555f830184610433565b92915050565b5f5ffd5b5f73ffffffffffffffffffffffffffffffffffffffff82169050919050565b5f6104888261045f565b9050919050565b6104988161047e565b81146104a2575f5ffd5b50565b5f813590506104b38161048f565b92915050565b5f602082840312156104ce576104cd61045b565b5b5f6104db848285016104a5565b91505092915050565b5f8115159050919050565b6104f8816104e4565b82525050565b5f6020820190506105115f8301846104ef565b92915050565b6105208161047e565b82525050565b5f6020820190506105395f830184610517565b92915050565b5f82825260208201905092915050565b7f416c7265616479207072656d69756d00000000000000000000000000000000005f82015250565b5f610583600f8361053f565b915061058e8261054f565b602082019050919050565b5f6020820190508181035f8301526105b081610577565b9050919050565b5f6060820190506105ca5f830186610517565b6105d76020830185610517565b6105e46040830184610433565b949350505050565b6105f5816104e4565b81146105ff575f5ffd5b50565b5f81519050610610816105ec565b92915050565b5f6020828403121561062b5761062a61045b565b5b5f61063884828501610602565b91505092915050565b7f584552207472616e73666572206661696c6564000000000000000000000000005f82015250565b5f61067560138361053f565b915061068082610641565b602082019050919050565b5f6020820190508181035f8301526106a281610669565b905091905056fea26469706673582212201c9618a712da7c8e1ec999477c136478d516e88a6ffe8121785bcaffd606dd4f64736f6c63430008210033","linkReferences":{}},"methodIdentifiers":{"ADMIN_WALLET()":"c2cd4a07","PREMIUM_COST()":"0a137ffe","XER_TOKEN()":"eb97afb6","hasPremium(address)":"6283aa4e","isPremium(address)":"742fe0d4","purchasePremium()":"81ef77d3"},"id":45}