{"abi":[{"type":"constructor","inputs":[{"name":"_xer","type":"address","internalType":"address"},{"name":"_quorum","type":"uint256","internalType":"uint256"},{"name":"_votingPeriod","type":"uint256","internalType":"uint256"}],"stateMutability":"nonpayable"},{"type":"function","name":"execute","inputs":[{"name":"id","type":"uint256","internalType":"uint256"}],"outputs":[],"stateMutability":"nonpayable"},{"type":"function","name":"proposalCount","inputs":[],"outputs":[{"name":"","type":"uint256","internalType":"uint256"}],"stateMutability":"view"},{"type":"function","name":"proposals","inputs":[{"name":"","type":"uint256","internalType":"uint256"}],"outputs":[{"name":"proposer","type":"address","internalType":"address"},{"name":"target","type":"address","internalType":"address"},{"name":"data","type":"bytes","internalType":"bytes"},{"name":"yesVotes","type":"uint256","internalType":"uint256"},{"name":"noVotes","type":"uint256","internalType":"uint256"},{"name":"endBlock","type":"uint256","internalType":"uint256"},{"name":"executed","type":"bool","internalType":"bool"}],"stateMutability":"view"},{"type":"function","name":"propose","inputs":[{"name":"target","type":"address","internalType":"address"},{"name":"data","type":"bytes","internalType":"bytes"}],"outputs":[],"stateMutability":"nonpayable"},{"type":"function","name":"quorum","inputs":[],"outputs":[{"name":"","type":"uint256","internalType":"uint256"}],"stateMutability":"view"},{"type":"function","name":"vote","inputs":[{"name":"id","type":"uint256","internalType":"uint256"},{"name":"support","type":"bool","internalType":"bool"}],"outputs":[],"stateMutability":"nonpayable"},{"type":"function","name":"voted","inputs":[{"name":"","type":"uint256","internalType":"uint256"},{"name":"","type":"address","internalType":"address"}],"outputs":[{"name":"","type":"bool","internalType":"bool"}],"stateMutability":"view"},{"type":"function","name":"votingPeriod","inputs":[],"outputs":[{"name":"","type":"uint256","internalType":"uint256"}],"stateMutability":"view"},{"type":"function","name":"xer","inputs":[],"outputs":[{"name":"","type":"address","internalType":"contract IXER"}],"stateMutability":"view"},{"type":"event","name":"ProposalCreated","inputs":[{"name":"id","type":"uint256","indexed":false,"internalType":"uint256"},{"name":"proposer","type":"address","indexed":false,"internalType":"address"}],"anonymous":false},{"type":"event","name":"ProposalExecuted","inputs":[{"name":"id","type":"uint256","indexed":false,"internalType":"uint256"}],"anonymous":false},{"type":"event","name":"VoteCast","inputs":[{"name":"id","type":"uint256","indexed":false,"internalType":"uint256"},{"name":"voter","type":"address","indexed":false,"internalType":"address"},{"name":"support","type":"bool","indexed":false,"internalType":"bool"},{"name":"weight","type":"uint256","indexed":false,"internalType":"uint256"}],"anonymous":false}],"bytecode":{"object":"0x608060405234801561000f575f5ffd5b5060405161198638038061198683398181016040528101906100319190610118565b8260035f6101000a81548173ffffffffffffffffffffffffffffffffffffffff021916908373ffffffffffffffffffffffffffffffffffffffff1602179055508160018190555080600281905550505050610168565b5f5ffd5b5f73ffffffffffffffffffffffffffffffffffffffff82169050919050565b5f6100b48261008b565b9050919050565b6100c4816100aa565b81146100ce575f5ffd5b50565b5f815190506100df816100bb565b92915050565b5f819050919050565b6100f7816100e5565b8114610101575f5ffd5b50565b5f81519050610112816100ee565b92915050565b5f5f5f6060848603121561012f5761012e610087565b5b5f61013c868287016100d1565b935050602061014d86828701610104565b925050604061015e86828701610104565b9150509250925092565b611811806101755f395ff3fe608060405234801561000f575f5ffd5b5060043610610091575f3560e01c80635277b4ae116100645780635277b4ae146101255780639d48184814610155578063c9d27afe14610171578063da35c6641461018d578063fe0d94c1146101ab57610091565b8063013cf08b1461009557806302a251a3146100cb5780630a333300146100e95780631703a01814610107575b5f5ffd5b6100af60048036038101906100aa9190610b6e565b6101c7565b6040516100c29796959493929190610c71565b60405180910390f35b6100d36102d5565b6040516100e09190610ce5565b60405180910390f35b6100f16102db565b6040516100fe9190610d59565b60405180910390f35b61010f610300565b60405161011c9190610ce5565b60405180910390f35b61013f600480360381019061013a9190610d9c565b610306565b60405161014c9190610dda565b60405180910390f35b61016f600480360381019061016a9190610e54565b610330565b005b61018b60048036038101906101869190610edb565b610602565b005b6101956108ba565b6040516101a29190610ce5565b60405180910390f35b6101c560048036038101906101c09190610b6e565b6108bf565b005b6004602052805f5260405f205f91509050805f015f9054906101000a900473ffffffffffffffffffffffffffffffffffffffff1690806001015f9054906101000a900473ffffffffffffffffffffffffffffffffffffffff169080600201805461023090610f46565b80601f016020809104026020016040519081016040528092919081815260200182805461025c90610f46565b80156102a75780601f1061027e576101008083540402835291602001916102a7565b820191905f5260205f20905b81548152906001019060200180831161028a57829003601f168201915b505050505090806003015490806004015490806005015490806006015f9054906101000a900460ff16905087565b60025481565b60035f9054906101000a900473ffffffffffffffffffffffffffffffffffffffff1681565b60015481565b6005602052815f5260405f20602052805f5260405f205f915091509054906101000a900460ff1681565b5f60035f9054906101000a900473ffffffffffffffffffffffffffffffffffffffff1673ffffffffffffffffffffffffffffffffffffffff166370a08231336040518263ffffffff1660e01b815260040161038b9190610f76565b602060405180830381865afa1580156103a6573d5f5f3e3d5ffd5b505050506040513d601f19601f820116820180604052508101906103ca9190610fa3565b1161040a576040517f08c379a000000000000000000000000000000000000000000000000000000000815260040161040190611028565b60405180910390fd5b5f5f81548092919061041b90611073565b91905055506040518060e001604052803373ffffffffffffffffffffffffffffffffffffffff1681526020018473ffffffffffffffffffffffffffffffffffffffff16815260200183838080601f0160208091040260200160405190810160405280939291908181526020018383808284375f81840152601f19601f8201169050808301925050505050505081526020015f81526020015f8152602001600254436104c691906110ba565b81526020015f151581525060045f5f5481526020019081526020015f205f820151815f015f6101000a81548173ffffffffffffffffffffffffffffffffffffffff021916908373ffffffffffffffffffffffffffffffffffffffff1602179055506020820151816001015f6101000a81548173ffffffffffffffffffffffffffffffffffffffff021916908373ffffffffffffffffffffffffffffffffffffffff160217905550604082015181600201908161058291906112c2565b50606082015181600301556080820151816004015560a0820151816005015560c0820151816006015f6101000a81548160ff0219169083151502179055509050507fcd423cc1203c0af96b9b3d68d73b3064a69de2d14450bb7181c5e5df2132b3585f54336040516105f5929190611391565b60405180910390a1505050565b5f60045f8481526020019081526020015f2090508060050154431061065c576040517f08c379a000000000000000000000000000000000000000000000000000000000815260040161065390611402565b60405180910390fd5b60055f8481526020019081526020015f205f3373ffffffffffffffffffffffffffffffffffffffff1673ffffffffffffffffffffffffffffffffffffffff1681526020019081526020015f205f9054906101000a900460ff16156106f5576040517f08c379a00000000000000000000000000000000000000000000000000000000081526004016106ec9061146a565b60405180910390fd5b5f60035f9054906101000a900473ffffffffffffffffffffffffffffffffffffffff1673ffffffffffffffffffffffffffffffffffffffff166370a08231336040518263ffffffff1660e01b81526004016107509190610f76565b602060405180830381865afa15801561076b573d5f5f3e3d5ffd5b505050506040513d601f19601f8201168201806040525081019061078f9190610fa3565b90505f81116107d3576040517f08c379a00000000000000000000000000000000000000000000000000000000081526004016107ca906114d2565b60405180910390fd5b600160055f8681526020019081526020015f205f3373ffffffffffffffffffffffffffffffffffffffff1673ffffffffffffffffffffffffffffffffffffffff1681526020019081526020015f205f6101000a81548160ff021916908315150217905550821561085c5780826003015f82825461085091906110ba565b92505081905550610877565b80826004015f82825461086f91906110ba565b925050819055505b7fcbdf6214089cba887ecbf35a0b6a734589959c9763342c756bb2a80ca2bc9f6e843385846040516108ac94939291906114f0565b60405180910390a150505050565b5f5481565b5f60045f8381526020019081526020015f209050806005015443101561091a576040517f08c379a00000000000000000000000000000000000000000000000000000000081526004016109119061157d565b60405180910390fd5b806006015f9054906101000a900460ff161561096b576040517f08c379a0000000000000000000000000000000000000000000000000000000008152600401610962906115e5565b60405180910390fd5b6001548160040154826003015461098291906110ba565b10156109c3576040517f08c379a00000000000000000000000000000000000000000000000000000000081526004016109ba9061164d565b60405180910390fd5b8060040154816003015411610a0d576040517f08c379a0000000000000000000000000000000000000000000000000000000008152600401610a04906116b5565b60405180910390fd5b6001816006015f6101000a81548160ff0219169083151502179055505f816001015f9054906101000a900473ffffffffffffffffffffffffffffffffffffffff1673ffffffffffffffffffffffffffffffffffffffff1682600201604051610a75919061175d565b5f604051808303815f865af19150503d805f8114610aae576040519150601f19603f3d011682016040523d82523d5f602084013e610ab3565b606091505b5050905080610af7576040517f08c379a0000000000000000000000000000000000000000000000000000000008152600401610aee906117bd565b60405180910390fd5b7f712ae1383f79ac853f8d882153778e0260ef8f03b504e2866e0593e04d2b291f83604051610b269190610ce5565b60405180910390a1505050565b5f5ffd5b5f5ffd5b5f819050919050565b610b4d81610b3b565b8114610b57575f5ffd5b50565b5f81359050610b6881610b44565b92915050565b5f60208284031215610b8357610b82610b33565b5b5f610b9084828501610b5a565b91505092915050565b5f73ffffffffffffffffffffffffffffffffffffffff82169050919050565b5f610bc282610b99565b9050919050565b610bd281610bb8565b82525050565b5f81519050919050565b5f82825260208201905092915050565b8281835e5f83830152505050565b5f601f19601f8301169050919050565b5f610c1a82610bd8565b610c248185610be2565b9350610c34818560208601610bf2565b610c3d81610c00565b840191505092915050565b610c5181610b3b565b82525050565b5f8115159050919050565b610c6b81610c57565b82525050565b5f60e082019050610c845f83018a610bc9565b610c916020830189610bc9565b8181036040830152610ca38188610c10565b9050610cb26060830187610c48565b610cbf6080830186610c48565b610ccc60a0830185610c48565b610cd960c0830184610c62565b98975050505050505050565b5f602082019050610cf85f830184610c48565b92915050565b5f819050919050565b5f610d21610d1c610d1784610b99565b610cfe565b610b99565b9050919050565b5f610d3282610d07565b9050919050565b5f610d4382610d28565b9050919050565b610d5381610d39565b82525050565b5f602082019050610d6c5f830184610d4a565b92915050565b610d7b81610bb8565b8114610d85575f5ffd5b50565b5f81359050610d9681610d72565b92915050565b5f5f60408385031215610db257610db1610b33565b5b5f610dbf85828601610b5a565b9250506020610dd085828601610d88565b9150509250929050565b5f602082019050610ded5f830184610c62565b92915050565b5f5ffd5b5f5ffd5b5f5ffd5b5f5f83601f840112610e1457610e13610df3565b5b8235905067ffffffffffffffff811115610e3157610e30610df7565b5b602083019150836001820283011115610e4d57610e4c610dfb565b5b9250929050565b5f5f5f60408486031215610e6b57610e6a610b33565b5b5f610e7886828701610d88565b935050602084013567ffffffffffffffff811115610e9957610e98610b37565b5b610ea586828701610dff565b92509250509250925092565b610eba81610c57565b8114610ec4575f5ffd5b50565b5f81359050610ed581610eb1565b92915050565b5f5f60408385031215610ef157610ef0610b33565b5b5f610efe85828601610b5a565b9250506020610f0f85828601610ec7565b9150509250929050565b7f4e487b71000000000000000000000000000000000000000000000000000000005f52602260045260245ffd5b5f6002820490506001821680610f5d57607f821691505b602082108103610f7057610f6f610f19565b5b50919050565b5f602082019050610f895f830184610bc9565b92915050565b5f81519050610f9d81610b44565b92915050565b5f60208284031215610fb857610fb7610b33565b5b5f610fc584828501610f8f565b91505092915050565b5f82825260208201905092915050565b7f4e6f20766f74696e6720706f77657200000000000000000000000000000000005f82015250565b5f611012600f83610fce565b915061101d82610fde565b602082019050919050565b5f6020820190508181035f83015261103f81611006565b9050919050565b7f4e487b71000000000000000000000000000000000000000000000000000000005f52601160045260245ffd5b5f61107d82610b3b565b91507fffffffffffffffffffffffffffffffffffffffffffffffffffffffffffffffff82036110af576110ae611046565b5b600182019050919050565b5f6110c482610b3b565b91506110cf83610b3b565b92508282019050808211156110e7576110e6611046565b5b92915050565b7f4e487b71000000000000000000000000000000000000000000000000000000005f52604160045260245ffd5b5f819050815f5260205f209050919050565b5f6020601f8301049050919050565b5f82821b905092915050565b5f600883026111767fffffffffffffffffffffffffffffffffffffffffffffffffffffffffffffffff8261113b565b611180868361113b565b95508019841693508086168417925050509392505050565b5f6111b26111ad6111a884610b3b565b610cfe565b610b3b565b9050919050565b5f819050919050565b6111cb83611198565b6111df6111d7826111b9565b848454611147565b825550505050565b5f5f905090565b6111f66111e7565b6112018184846111c2565b505050565b5f5b828110156112275761121c5f8284016111ee565b600181019050611208565b505050565b601f82111561127a5782821115611279576112468161111a565b61124f8361112c565b6112588561112c565b6020861015611265575f90505b80830161127482840382611206565b505050505b5b505050565b5f82821c905092915050565b5f61129a5f198460080261127f565b1980831691505092915050565b5f6112b2838361128b565b9150826002028217905092915050565b6112cb82610bd8565b67ffffffffffffffff8111156112e4576112e36110ed565b5b6112ee8254610f46565b6112f982828561122c565b5f60209050601f83116001811461132a575f8415611318578287015190505b61132285826112a7565b865550611389565b601f1984166113388661111a565b5f5b8281101561135f5784890151825560018201915060208501945060208101905061133a565b8683101561137c5784890151611378601f89168261128b565b8355505b6001600288020188555050505b505050505050565b5f6040820190506113a45f830185610c48565b6113b16020830184610bc9565b9392505050565b7f566f74696e6720656e64656400000000000000000000000000000000000000005f82015250565b5f6113ec600c83610fce565b91506113f7826113b8565b602082019050919050565b5f6020820190508181035f830152611419816113e0565b9050919050565b7f416c726561647920766f746564000000000000000000000000000000000000005f82015250565b5f611454600d83610fce565b915061145f82611420565b602082019050919050565b5f6020820190508181035f83015261148181611448565b9050919050565b7f4e6f20706f7765720000000000000000000000000000000000000000000000005f82015250565b5f6114bc600883610fce565b91506114c782611488565b602082019050919050565b5f6020820190508181035f8301526114e9816114b0565b9050919050565b5f6080820190506115035f830187610c48565b6115106020830186610bc9565b61151d6040830185610c62565b61152a6060830184610c48565b95945050505050565b7f566f74696e6720616374697665000000000000000000000000000000000000005f82015250565b5f611567600d83610fce565b915061157282611533565b602082019050919050565b5f6020820190508181035f8301526115948161155b565b9050919050565b7f45786563757465640000000000000000000000000000000000000000000000005f82015250565b5f6115cf600883610fce565b91506115da8261159b565b602082019050919050565b5f6020820190508181035f8301526115fc816115c3565b9050919050565b7f4e6f2071756f72756d00000000000000000000000000000000000000000000005f82015250565b5f611637600983610fce565b915061164282611603565b602082019050919050565b5f6020820190508181035f8301526116648161162b565b9050919050565b7f52656a65637465640000000000000000000000000000000000000000000000005f82015250565b5f61169f600883610fce565b91506116aa8261166b565b602082019050919050565b5f6020820190508181035f8301526116cc81611693565b9050919050565b5f81905092915050565b5f81546116e981610f46565b6116f381866116d3565b9450600182165f811461170d576001811461172257611754565b60ff1983168652811515820286019350611754565b61172b8561111a565b5f5b8381101561174c5781548189015260018201915060208101905061172d565b838801955050505b50505092915050565b5f61176882846116dd565b915081905092915050565b7f457865637574696f6e206661696c6564000000000000000000000000000000005f82015250565b5f6117a7601083610fce565b91506117b282611773565b602082019050919050565b5f6020820190508181035f8301526117d48161179b565b905091905056fea2646970667358221220f796749bcc6b0c29a39ee90b0b81c261b3ed1bc978010e4cd79f24c62d56dacb64736f6c63430008210033","linkReferences":{}},"methodIdentifiers":{"execute(uint256)":"fe0d94c1","proposalCount()":"da35c664","proposals(uint256)":"013cf08b","propose(address,bytes)":"9d481848","quorum()":"1703a018","vote(uint256,bool)":"c9d27afe","voted(uint256,address)":"5277b4ae","votingPeriod()":"02a251a3","xer()":"0a333300"},"id":41}